:040000006F80A23833
:100004000000000000000000CC810200EC8102002E
:1000140000000000888302000000000000000000CF
:1000240088830200888302000000000000000000B2
:1000340010370000000000009002000000000000E3
:100044008883020088830200888302008883020078
:1000540088830200888302008C7C0200B47C020046
:10006400DC7C0200047D02002C7D020088830200F7
:100074008883020088830200888302008883020048
:1000840088830200888302002C780200888302009F
:10009400888302008883020088830200547D020062
:1000A4008883020088830200888302008883020018
:1000B400888302008883020088830200EC730200B4
:1000C400007402008883020088830200888302008F
:1000D400888302008C810200AC81020088830200C4
:1000E400CC7D02008883020088830200888302009A
:1000F40088830200888302008883020088830200C8
:1001040000000000888302008883020088830200C4
:1001140088830200888302008883020088830200A7
:100124008883020088830200888302008883020097
:100134008883020088830200888302008883020087
:100144008883020088830200888302008883020077
:100154008883020088830200888302008883020067
:100164008883020088830200888302008883020057
:100174008883020088830200888302008883020047
:100184008883020088830200888302008883020037
:100194008883020088830200888302008883020027
:1001A400000000000000000000000000000000004B
:0C01B4000000000000000000000000003F
:1001C00097820120938202E4938202E073900234CA
:1001D00003210500224573100530B1A819712320B1
:1001E000250006C006C216CAF322003093F2820030
:1001F000638402009302000816C412C81ACC1ECEF3
:1002000022D026D22AD42ED632D836DA3ADC3EDEB6
:10021000C2C0C6C2CAC4CEC6D2C8D6CADACCDECE26
:10022000E2D0E6D2EAD4EED6F2D8F6DAFADCFEDE96
:1002300003A1050009A002457310153492403785CB
:10024000000013050580732005302245732005301A
:100250004242D2426243F243025492542255B25572
:100260004256D2566257F257064896482649B64932
:10027000464AD64A664BF64B065C965C265DB65DF2
:10028000465ED65E665FF65F09617300203000004F
:10029000197116CA9302000816C49302000273A0D3
:1002A000428006C212C81ACC1ECE22D026D22AD430
:1002B0002ED632D836DA3ADC3EDEC2C0C6C2CAC456
:1002C000CEC6D2C8D6CADACCDECEE2D0E6D2EAD4E6
:1002D000EED6F2D8F6DAFADCFEDE73110134EF0066
:1002E000F033EF204001EF005036731101341384D6
:1002F000C18E03290400630409022320040073252E
:1003000010342AC01384418E044023A02400138497
:10031000818E044003A104000245731015349240FD
:10032000B78200009382028073A00230A24273A0C1
:1003300002304242D2426243F24302549254225566
:10034000B2554256D2566257F25706489648264949
:10035000B649464AD64A664BF64B065C965C265D25
:10036000B65D465ED65E665FF65F0961730020305B
:100370000000397101436EC619A0397141536AC832
:1003800066CA62CC5ECE19A0397101535AD056D2DA
:1003900052D44ED64AD826DA22DC06DE330161403A
:1003A000828241114AC026C222C406C68282B24D50
:1003B0004101024D924C224CB24B4101024B924AF8
:1003C000224AB2494101024992442244B2404101C9
:1003D00082803D432A876373C3029377F700BDEFA2
:1003E000ADE5937606FF3D8ABA960CC34CC30CC7A5
:1003F0004CC74107E36BD7FE11E28280B306C340CE
:100400008A069702000096966780A6002307B70029
:10041000A306B7002306B700A305B7002305B7005E
:10042000A304B7002304B700A303B7002303B70056
:10043000A302B7002302B700A301B7002301B7004E
:10044000A300B7002300B700828093F5F50F9396C1
:100450008500D58D93960501D58D61B793962700BC
:100460009702000096968682E78086FA9680C117EA
:100470001D8F3E96E374C3F8A5B73367B500FD53EF
:100480000D8B79E7B7877F7F9387F7F7104194410A
:10049000B372F6003363F600BE92B3E26200639576
:1004A000720C6318D6065041D441B372F600336320
:1004B000F600BE92B3E262006396720A631BD60432
:1004C00010459445B372F6003363F600BE92B3E272
:1004D0006200639F7208631ED6025045D445B37212
:1004E000F6003363F600BE92B3E2620063987208CE
:1004F0006311D60210499449B372F6003363F600D3
:10050000BE92B3E26200639172085105D105E30F18
:10051000D6F61317060193970601631CF7001357CD
:10052000060193D706013305F7409375F50F91E95E
:1005300082804183C1833305F7409375F50F91E1C4
:1005400082801377F70F93F7F70F3305F740828018
:1005500010219421050585056313D60075FA33052E
:10056000D640828011059105E314D6FE01458280B4
:100570002105A105E31ED6FC014582803105B105A8
:10058000E318D6FC014582804105C105E312D6FC83
:100590000145828003A541858280EFF29FE0938729
:1005A00041859843050798C3EF1080763C45FD17B9
:1005B0003CC589E77C413CC5EF10207EEF10B0368A
:1005C00019B5634205029307803E3347F502336550
:1005D000F5023305F5021305753E3345F502330781
:1005E000F7023A9582807D558280014582800145DF
:1005F00082800145828001458280EFF29FDA3714C4
:100600000300B71403001304447C9384047D6363E4
:10061000940055BB1C4011048297D5BFEFF27FD8E0
:1006200037140300B71403001304047D9384847DFE
:100630006363940049BB1C4011048297D5BFEFF25D
:100640005FD6E93FEF70923CBDBBEFF29FD5B70597
:10065000000037B50200D1471547896601469385EA
:10066000E5631305455BEF10006BEF101007A1BBAE
:10067000EFF23FD3EF101049EF306002EF00506E01
:10068000EF10903EEF10003BC937EF10903E192C51
:10069000EF10203D014505BBEFF2BFD0D13F014532
:1006A0001DB3EFF27FCEAA89EF10806619C1EF105B
:1006B000804D2545EF10A023444113044500639667
:1006C0008400EF10E064014919A8138944FF214612
:1006D000CE854A85EF00502401E9EF10606319C10F
:1006E000EF10004C4A85D9B98440D1BF09E57D554A
:1006F00082807D55C9B9EFF2DFCA2A842E853289FE
:10070000AE8445377DF522852686A545EF10C020AD
:100710000145231C2401230E0400231D0400D9BF1E
:10072000EFF23FC81E2D41112A84C18B9DE71C5555
:100730008DC32EC68297AA84B24501CD2A8637B5CD
:100740000200A2851305C55BEF00105B2685410101
:100750009DB91E2C93E707011EAC1E2CA18B89C7E7
:100760003E2CE554A18BFDF35C5489CF2285829702
:10077000AA8405E13E2C93E787003EAC5C2C8507FC
:100780005CACE9B785679387F7F0FD8D2EAC8144AB
:10079000D5B7E957E31CF5FAF1BF5C2D85CBEFF235
:1007A0005FC0FD1793F7F70F5CAD2A84014789EF0F
:1007B0001C5989E70147231D040039A082972A8725
:1007C00075D9E957E309F5FE3A85F5BE7D573A85B7
:1007D0008280EFF21FBD582D11E77D55EF005002CA
:1007E000014521A05C5999C38297F1BE6955FDB7B7
:1007F000EFF23FBB582D11E77D55EF00700001452A
:1008000021A01C5D99C382977DBE6955FDB70CD1AF
:1008100001458280EFF25FB79389018B854A83A7F8
:10082000018B63863705EF10F02D83A7018B2A8A91
:10083000638D370303A4018B5C4018401309C4FE89
:100840005CC398C340C000C0EF10E0337C5099C334
:100850004A8582974A85EF10601D631B55014A85C2
:10086000EF106011EF10C0335285EF10702AB9B647
:10087000EF1000335285EF10B0294848EF00907C0C
:100880004A85EF10801761BFEFF2BFB1138481B0CA
:10089000130904011C4091C382971104E31C24FF37
:1008A000953FEDB7EFF2FFAF37160000B7B5020086
:1008B000930800023D4893070020138781B18146C9
:1008C000130686889385455F138581A8EF10204124
:1008D000138581A8EF106060FDB4EFF29FAC411169
:1008E0002A842E8532C62EC4EF1040503246A245CF
:1008F00019C68547630DF60001454101E9B458402A
:10090000938745011CC398CD5CC0C0C9F5B71C4096
:100910006388870083C6550303C7170263FAE6009E
:10092000D4431387450198C294CDD8C3DCC9E9B735
:100930009C43F9BFEFF2FFA64111B2842E86894590
:100940002A8436C6EF00507DB246930744011CCC82
:100950005CC846AC14B401454101B5B4EFF2DFA266
:1009600083A7C18941112EC62A8491C38297EF10B3
:1009700070195E2CAA8989CFFD175EACEF10501953
:1009800083A78189014591CB22858297014531A0BA
:10099000B24791E7EF10D0177955410105B4EF1038
:1009A0002037232805021034AA85AA8413054401A0
:1009B0002D37B247635CF0001389C4047000814591
:1009C0004A85EF10C0724A85EF1080644E85EF10A3
:1009D0003014EF10C00B885845D5C1B7EFF27F9C9B
:1009E00083A741892A8491C38297EF10B011AA840A
:1009F000484893074401630FF5003115EF10204973
:100A000005442685EF10D01019C0EF1040080145AD
:100A10006FF07F9B5E2C85075EAC0144DDB7EFF283
:100A20005F98B2842E868D452A84EF00F06E93077E
:100A300044011CCC5CC8B707FF0085075CCC2320B1
:100A4000040204B401456FF01F98EFF2FF934111C7
:100A50002EC62A84EF10C02BAA84EF10B00A83A7F9
:100A6000C1892A8999C3228582971C5023A8040230
:100A700063819702938A5403130B44019389C4043E
:100A80005D5A5E2C8DC7FD175EAC04D083C754033E
:100A90007CAC7C3C85077CBC4A85EF10700783A743
:100AA0008189014589CF22858297014509A8B247EE
:100AB00091EBF9574A859CD8EF1090057955410183
:100AC0006FF0DF8F085003C75403834755036376E5
:100AD000F70056868945EF1000431034A6855A85E5
:100AE000ED3BB247635AF000700081454E85EF1030
:100AF00000604E85EF10C0514A85EF107001EF0085
:100B00001079885801C5E30E45F755BFEF10807F77
:100B10002A8959B7EFF25F8741112A84EF10401FED
:100B2000AA84EF10207E83A74189AA8999C32285D0
:100B300082971C50638B9700FD574E859CD8EF1011
:100B4000207D7D5541016FF07F877C3C0149FD1779
:100B500093F7F70F7CBC8DEF782C83C754036308A1
:100B6000F7001306E40189452685EF10C0395C487B
:100B7000130744016389E7021385C7FE08D083C7C2
:100B8000170205497CAC7C3C85077CBCEF1020300B
:100B90004E85EF10E0770145E30609FA2AC6EF001B
:100BA000106F324545B75E2C2320040201498507AA
:100BB0005EACFD577CACE9BFEFF2AFFE4111B284F1
:100BC0002E8695452A8436C63AC4EF00F054224753
:100BD000B246930744011CCC5CC89307840218B446
:100BE00044CC16B023110402232204025CD41CD48A
:100BF000014541016FF02FFDEFF22FF841112A84DA
:100C00002E8A32C6EF10C01083A74189AA8999C3E2
:100C100022858297EF10006F3A301E30AA84014976
:100C20006310F70CB247CDEFEF10806E75554101A0
:100C30006FF02FF8B24723A8090299E32685EDB794
:100C40001034CE855A855139B247635DF000EFF01C
:100C50007F942A89700081455685EF10404956855A
:100C6000EF10003B2685EF10A06AEF00506203A54D
:100C7000090355FDEF100069B247AA84CA8B635D72
:100C8000F000EFF03F91B247B30B2541CA9733858F
:100C9000A740634505042AC65E893A301230E30B4B
:100CA000C7F85E30544C939527008507AE96C2076F
:100CB00023A04601C18363FAC7025EB04848050716
:100CC0003AB05104630685023115EF10401C2685A9
:100CD000EF100064EF00B05B014591BF02C66DBF2D
:100CE000130B8402938AC9044DBF23120402F9B77F
:100CF0002685EF10E061CDB7EFF22FE841112A848D
:100D00002E8A32C6EF10C00083A7C189AA8999C371
:100D100022858297EF10005F3E30AA84639F070C04
:100D2000B2470149639C070CEF10805E7955410181
:100D30006FF02FE8B24723A8090281EB2685EF1058
:100D4000205DF95723A8F902D5B71034CE855A850E
:100D50006936B247635DF000EFF0DF832A897000E7
:100D600081455685EF10A0385685EF10602A2685FC
:100D7000EF10005AEF00B05103A509034DF9EF1031
:100D80006058B247AA84CA8B635DF000EFF09F8081
:100D9000B247B30B2541CA973385A740634D05047D
:100DA0002AC65E893A3059D77E30544C13962700B4
:100DB000B29694428507C2072320DA001630C18319
:100DC0007EB063E4D7002313040208547D173AB0C1
:100DD000930784026309F5023115EF10400B268555
:100DE000EF10005383A7818999C322858297EF0072
:100DF000104A01452DBF02C66DB70149130B4401CE
:100E0000938AC90445B72685EF10805083A781894E
:100E10000145E38E07F022858297E1BFEFF26FD89C
:100E20004111EF10204E138701861C23850793F78D
:100E3000F70F1CA383A7818581C72AC682973245F5
:100E4000EF10004D41016FF00FD8EFF28FD5411137
:100E5000EF10404B138701861C23FD1793F7F70F04
:100E60001CA383A7C18581C72AC682973245EF108C
:100E7000204A41016FF02FD503C501868280937807
:100E800008044111639F0800B7B802009388087AEC
:100E900093730801638C03001378E8FF930E00023C
:100EA00021A8B7B802009388C86FDDB71373180084
:100EB000930E0003E30403FE13732800630E03067E
:100EC000635806023306C0409302D0020A8E814F57
:100ED000294F6395E6073373D6023356D6024693FD
:100EE00003430300850F050EA30F6EFE7DF20DA0D8
:100EF000137348009302B0026317030093728800D3
:100F0000B3325000960279F2930600035480854F65
:100F1000FE8663D3FF00BE8613781801158F631316
:100F20000804638502006353E0007D172A86B30836
:100F3000E5001303000221A88142F1B71373F60004
:100F4000118271BF6374B600230066000506338802
:100F5000C840E34900FF3A866353070001467D1706
:100F60003295118F638802006374B5002300550029
:100F70007D17050563870302AA96130800031DA8C1
:100F80006374B6002300D60105063388C840E349E0
:100F900000FF3A866353070001467D173295118F93
:100FA000E1BF2A86B308E500CDB76374B50023001E
:100FB000050105053386A640E3C9CFFEFD56FD1F9A
:100FC0006383DF0099E7AA873306E5001308000270
:100FD00031A86376B5003306F101102210A1050592
:100FE000F9BF63F4B700238007018507B306F64015
:100FF000E349D0FE6353070001473A9541018280DF
:10100000EFF22FBA2A848D3D09C523A281866FF0A5
:101010008FBBEF00F04F75D900D9D5BF0D47AA8718
:101020006376C7009377350091C7AA873E9663978A
:10103000C706828093F7F50F13978700D98F139710
:1010400007015D8FB308C500AA87BD463388F84005
:1010500063EB060393574600C156B386D702920747
:10106000AA970D4836963383C700BE86B308D3408F
:101070006362180313572600F156B306D7020A0716
:10108000BA97369665B798C3D8C398C7C10723AE39
:10109000E7FE6DBF910623AEE6FEC9BF8507A38FAD
:1010A000B7FE71B763F2A504B386C500637ED502AF
:1010B0009345F6FF8147FD176393F50082803387E0
:1010C000F600030807003387C7002A9723000701AB
:1010D000DDB73387F500830607003307F500850782
:1010E00014A3E318F6FE82808147E5BF0DC6AA87E8
:1010F00085050387F5FF85079306F6FFA38FE7FEB7
:1011000009EB3E9685076393C7008280A38F07FE95
:10111000D5BF3686F1FE828001476314E600814721
:1011200039A8B307E50083860700B387E5009C2351
:10113000B387F640E207E18799E30507F9FE3E85AC
:101140008280AA870387070001E73385A740828052
:101150008507CDBFEFF26FA22E89B30B2501411198
:101160002A8CB68563F5AB001349F5FFFD5BC169B9
:1011700037BA02006284930AB002130B0002FD1911
:10118000130A8A7931A8130750026389E70263734F
:1011900074011CA013051400B284138614002A8461
:1011A00083070600EDF363060900637C742F2300B8
:1011B00004003305844141016FF0AF9F01481307DC
:1011C000D002930630021305000331A0639E57013D
:1011D0001368480026868307160093041600E397D9
:1011E000E7FE13680801FDB763956701136888007F
:1011F000D5B76395D70013680802E9BF6395A700C8
:1012000013681800C1BF138707FDA54663E6E6040F
:101210000147A546294539A03307A70285043E9713
:10122000130707FD83870400138607FDE3F6C6FE58
:10123000038604009306E002FD57631FD6048387EC
:101240001400254693861400138507FD6365A60ADE
:101250008147254529433DA09306A0027D57E39988
:10126000D7FC9841930426009105E35307FC33070C
:10127000E040136808016DBFB38767028506B29727
:10128000938707FD03860600930806FDE37615FFA6
:1012900063D307008147B684838604001306800663
:1012A000014593F8B6FF6395C80013F5F60F850462
:1012B00003860400930690066303D60663C5C6063C
:1012C000930680056304D61C63C3C60493075002CB
:1012D0006308F61A63757401930750021CA0838794
:1012E0000400130514006387071A637375011CB0AB
:1012F000130524005DB51306A0026397C7009C4147
:1013000093862400910569B7B684814771B7930627
:1013100030066303D60893064006E31DD6FA136829
:101320002800A94699A0930630076304D60C63C52C
:10133000C6029306F0066301D61693060007E31B68
:10134000D6F8FD566315D700136818002147938C13
:101350004500C14690411DA893065007E303D6FC03
:1013600093088007C146E31716F71306C006938C4F
:101370004500E301C5FE13068006E31DC5FC904150
:1013800093752800639C051033763601DE8522852F
:10139000EFF0FFAEE68511B513780801631508027A
:1013A000BA879306000229A06373740114A0050490
:1013B000FD17E34BF0FE9307F7FF6343E00005479B
:1013C0003387E740050793874500637474019441B0
:1013D00014A013051400229713060002B306A740B9
:1013E0006344D000BE8555BB6373750110A105052C
:1013F000F5B783AC0500138D450063930C00D28CC8
:1014000066853EC63AC442C22D3BB247AA86124800
:1014100022476355F00063D3A700BE861378080106
:10142000631E0800BA871306000231A063737401BB
:1014300010A00504BA877D17E3CAF6FE814763C191
:10144000D702B68763D3060081473305F4002A9795
:1014500013060002B307A74063CFF600EA8535BB49
:101460003306F40063777601B385FC0083850500BD
:101470000CA28507E9B76373750110A10505D9BFF3
:101480006373740110A01305140001BB13680804F2
:10149000C146E1BDFD1411B3A146C1BD420641865E
:1014A000F5B5A38F0BFE31B3397136D6741006CE65
:1014B0003AD83EDA42DC46DE36C66939F24021616E
:1014C000828003A581868280EFE2BFED03A9818639
:1014D000EFF02F9D11CD13848186AA84084019C195
:1014E000EFF0AFAB930530042685EFF06FA304C097
:1014F0004A856FE05FED8280397126CA2ED232D4E0
:1015000036D62A8654109305F007138581D13EDA2A
:1015100036C606CE22CC3AD842DC46DE2539AA862B
:1015200003A5818609E9138581D1F137F240624430
:10153000D244216182802686262D1384818693E7FA
:1015400004043EAD9307F00763F4D7009306F00759
:10155000138681D18145EFF0AFA91C40A6AFF9B742
:10156000EFE23FE437B5020013050571713737B577
:1015700002001305C571493737B7020037B50200BD
:10158000130707748D4605468D451305C574AD37A1
:1015900037B502001305C57685376FE0DFE239C540
:1015A000B7B602001377F50F9386C65F09C7BA96E0
:1015B000882205058280C167938707F0E98F81CB78
:1015C00021851377F50F3697082325058280B70705
:1015D000FF00E98F81CB41859377F50FB69788237C
:1015E000450582806181369508216505828003A7C3
:1015F00001875C41BA976305F502B62395E283A69D
:10160000C186638FF6009386418790426313F6008C
:1016100088C2D44354C1DC43B306E540BA9794C7AB
:101620001045B307C700630FF500B62381EE93861C
:1016300041878C426393A5009CC25441D4C35C4152
:101640003E9710C78280EFE2DFD583A5C18737B50B
:1016500002001305457B4D3583A5818837B502000F
:101660001305857C513D83A5818737B5020013059D
:10167000C57D59356FE03FD5EFE2BFD213F7C5FF07
:10168000E1462E8663F1E60693073500F19B93064B
:1016900087FE63EAF6041D8F130687FE23AEC1861C
:1016A0008966511713840187938606EAD8C394C3C9
:1016B00023A407001CC0BA9723A6F186C9669386A7
:1016C00006EAB7C5020094C3D8C398C78146054649
:1016D00093854587138581D9EFF0CFA5184023AABC
:1016E000E1866FE05FCEAA8537C502001305C58786
:1016F0002135C5BFEFE2FFCA39C503A7C18713046F
:10170000350071981389C18781446366870EB1479C
:101710006373F4003144FD55138581D9EFF00FA4B4
:1017200083A7418783A501878328090026853386FF
:10173000B740B3868840138841876368D600138515
:1017400081D9EFF0AFA981447DA0B384C500BA2050
:1017500003AE440061E73307CE40930F47FF63EFCA
:101760008F0A138F8188938E8187130384018326C8
:101770000F0083A30E00138981889382818763EF12
:101780006F061307C4003297896E3383E500938E8A
:101790000EEA2322C3012324C3002320D3010546DC
:1017A000D8C0B2A003264300B108630416012E96E8
:1017B00018C61387C60022972320E90063F4E300CC
:1017C00023A0E2000967130707EA9AA0639A97002B
:1017D00083A6C1860147B22305EE19C32320F80072
:1017E000138581D9EFF08F9F83A74188B10481C70A
:1017F000A2852685829726856FE0FFBC0546369731
:10180000B2A02320EF00E3FFE3FA23A0EE005DBFC8
:10181000E385D7FCDC430547AE9775BF728631BFC1
:10182000EFE23FB83306B5024111328532C6D935F1
:101830002A8409C532468145EFF04FFE22854101D9
:101840006FE07FB845C5EFE23FB483A701882A84E3
:1018500091C3829783A70187138901876366F40880
:1018600083A7C1866372F408FD55138581D9EFF013
:10187000EF8E835764FF930944FF81CB035744FFE6
:101880008967938707EA6301F70237C502001305EA
:1018900085829D31835644FF035664FF37C502009D
:1018A000CE851305458489398967938707EA231A0A
:1018B000F4FE938741879843231B04FE63F4E900F9
:1018C00023A03701138781881C43832684FF4E851C
:1018D000958F83260900B386D940B6971CC3013B78
:1018E000138581D9EFF08F8F6FE05FAD8280B707EE
:1018F00000209386070001479387070021468C420A
:101900006396A500131547003E9582800507C10622
:10191000E317C7FE01458280EFE21FA72A842E85C8
:10192000AE89328AE9372A89B92C83244900930782
:1019300049006390F404AD2493E909F823043401C9
:101940002146D2852285EFF06FFA83A7C18899C31B
:1019500022858297EF00101B032749009307C400DC
:101960005CC358C42322F90004C8EF00701A6FE06A
:10197000FFA484407DBFEFE2DFA283A701892A8410
:1019800091C3829723040400EF00D01754441848F1
:101990009307C400D8C214C31CC85CC4EF0050171E
:1019A0006FE07FA2EFE25F9E2E89AA898937AA8421
:1019B000484589332A841DCDD0448145EFF00FE698
:1019C000214623043401A3040400CA852285EFF0D4
:1019D000EFF183A7C18899C322858297EF00901207
:1019E000D8409307C40091045CC358C49CC004C889
:1019F000EF00101222856FE07F9CEFE29F9A83A791
:101A000001892A8491C3829723040400EF00900F78
:101A1000544418489307C400D8C214C31CC85CC4FB
:101A2000EF00100F2285393D6FE0FF990305850017
:101A30007D8182802396018A938781DB1387070843
:101A4000DCC39CC3A107E39DE7FE3D472380E18AF9
:101A500023A2018A23AC018A9387018BDCC39CC338
:101A60008280EFE21F9403A5818BEFF05FB37D15B9
:101A700093173500138581DB3E9508411307C5FE9A
:101A8000210523A2E18AEFE0AFF36FE0DF93EFE2FD
:101A90005F91EF0030078397C18A2A89B1E703A5D8
:101AA000818BEFF0DFAF7D1513173500938781DB56
:101AB000BA9784439387418A80439385C4FE630524
:101AC000B4028CC383A7818A2380A18A99C322850B
:101AD000829783C701861305C4019385840093F719
:101AE000F70F81EBEFE08FEF4A85EF0070026FE0B8
:101AF0009F8DEF005002CDBFEFE2BF8A2A84EF0036
:101B000070008347440393064401C19B93E7170089
:101B1000230AF4028347540313973700938781DB2A
:101B2000BA97D84314C318CCD4C35CC89387818BAD
:101B30009443185C558F98C3EF00807D6FE0BF8899
:101B4000EFE23F862A84EF00E07B184C544893076D
:101B50004401D8C214C35CC81CCC834754031397F8
:101B60003700938781DBBA979843631AF70013878E
:101B7000818B1C5C144393C7F7FFF58F1CC3EF00E8
:101B800020796FE05F84EFE2DF81EF00A077938739
:101B9000C18A9A2305079AA3EF0080776FE0BF827E
:101BA000EFE23F80EF0000761387C18A1E23FD1706
:101BB000C207C1871EA3634CF00023100700EF008B
:101BC000207583A7418A91C3D9356FE0CFFFEF001D
:101BD0002074E5BFEFE2EFFC03A4418AEF008072BE
:101BE000AA842285B13F9147230AF4021305C40455
:101BF000E1262285253D8547631DF5003C5C91EB80
:101C00002285EFF05FD72685EF00807049356FE0C1
:101C10008FFB83A6018B1307440123A8E18AD8C256
:101C20009387018B54C81CCCF9BFEFE28FF72A844D
:101C30005105411108CC48C80CD050D014D43A8674
:101C400058D49305300236853EC642C4EFF00FBD2E
:101C5000585410544C5008507117B72600003A964B
:101C6000938646BDEF00C064B24722483726000085
:101C700048CC230BF402A30AF402232C040281476C
:101C8000232204052324040523280402230A040232
:101C9000232C0406232E04060147A2861306A6CB96
:101CA000A2851305C404E12C83A7C18B99C32285A7
:101CB0008297014541016FE00FF1EFE28FEE50494D
:101CC000144D795718D954C21307450190C218CD45
:101CD00058C9EFF07FE2EFF09FDB6FE0CFEEEFE26D
:101CE0004FEC4111B2842E8685452A84368946C040
:101CF0003AC63EC442C2EFF03FC202489247224772
:101D0000B2464A86A68522850D3741016FE0AFEBCA
:101D100003A5418A8280EFE22FE741112E89AA852F
:101D2000054532C6B684BA893E8AEFF0BFC72A8419
:101D300011C92685EFF01F9C324609E92285EFF094
:101D4000DFCB0144228541016FE04FE7AA8652882C
:101D5000CE872687CA852285C93DEDB7EFE26FE4BD
:101D6000834745032A84BD8B99C3EFF07FDD1305BC
:101D7000C40499249147230AF402692383A6018BA2
:101D80001307440123A8E18AD8C29387018B54C862
:101D90001CCCBD2B01456FE00FE3EFE28FE09D23EC
:101DA00083A7418A0546AA8603C747033D8B631C68
:101DB000C702D04B984F6308E60258C210C303C64F
:101DC0005703938647010E06138781DB94CF329722
:101DD000504314C290CF54C3D8CB1D2BEFF03FCB50
:101DE00001456FE04FDE36852523DDBF8347450380
:101DF0000547BD8B639FE702EFE2AFDA2A84192320
:101E000083474403AA842285C19B93E72700230AC2
:101E1000F402EFF0FFD21305C4044D242685CD292A
:101E200083A7418C014581C72285829701456FE0D8
:101E30008FD97D558280EFE2CFD641112AC6D921B4
:101E400003A4418A2A89228555379304C40470006B
:101E500081452685692C2685652A4A855529EFF016
:101E60001FC31858F9576314F700232804020145CB
:101E700041016FE04FD5EFE2CFD2753F6FE0AFD4B5
:101E8000EFE22FD2EFE0EFF37D376FE0CFD3834760
:101E900045030947BD8B6390E704EFE28FD02A84A6
:101EA00095215448184C93074401AA84D8C214C3FE
:101EB0001CCC5CC81305C4041124268591292285F5
:101EC000EFF09FC383A7018C014581C722858297CC
:101ED00001456FE04FCF7D558280EFE28FCC834686
:101EE000650305473317D70018DD0947A30AD50254
:101EF000230AE502693F83A7418A99C3EFF03FB9FE
:101F000001456FE04FCCEFE22FC80549638D2505F1
:101F100089476386F500B1C501456FE02FCA2A8461
:101F2000B289CD26834444032A8ABD886392240360
:101F30002285EFF0FFC083C709002285B394F40027
:101F4000A30AF40204DCEFF03FBB5285D126E9B7C7
:101F500083C709003319F900A30AF402232C2403D0
:101F6000EDB7A53F5DBFEFF07FDF45BF5449184D8A
:101F700093074501D8C214C31CCD5CC98280EFE22F
:101F80004FC24111B2842E86A9452A8436C63AC46E
:101F90003EC2EFF07F989247B2462247F99B1CB4AD
:101FA0009307440144CC14D02324040258D01CCC01
:101FB0005CC841016FE02FC1EFE2AFBE2A849926D1
:101FC000AA84228565372685A1262285EFF0BF9A4F
:101FD00001456FE04FBFEFE2CFBC41112E84AA85CF
:101FE000294532C636C43AC2EFF0DF9B19CD1247FD
:101FF0003246A24693074501799B18B540CD10D1D2
:102000002324050254D11CCD5CC941016FE0AFBB54
:10201000EFE22FB92A84FD24AA842285EFF01FF570
:102020001C342685F99B1CB4E52483A7818999C3B8
:1020300022858297EFE00FD65C503E9508D4D924D4
:102040001C34918BA5E39387C18D03A84700370605
:1020500000801346E6FF98436319F8049386818C49
:102060009042050690C29306440154C358C894C3D5
:102070001CCC1C3493E717001CB4592C1C34918BD6
:1020800099CF938781E383C747030547BD8B638857
:10209000E700138581E3EFF09FDFEFF05F9F0145DD
:1020A0006FE06FB29387C18C4DB7544B0C5463856E
:1020B000B6008D8EE374D6FABA8771BF1C35858B56
:1020C0008DC7EFE20FAE83A741892A8491C382971F
:1020D000152CAA842285EFF07FE92685152C1C3467
:1020E0000145F99B1CB46FE00FAE7D55828085479A
:1020F0006381F50263C5B70085C1014582808947C8
:10210000638FF5008D47E39AF5FE1C3593E72700B2
:1021100009A85C511CC2D5B71C425CD1F9BF1C3563
:10212000F59B1CB5D9BFEFE24FA5EFE0AFC62A8CF7
:10213000D12AB70900802A8A9384C18D93C9E9FF07
:102140008D4B8040631694005285D9226FE06FA6B4
:1021500048481309C4FE3305AC40E3E7A9FE83A752
:10216000418D99C34A8582974A85EFF03FE01C4430
:1021700048448297EFE00FC283A7818D2A8C99C3D0
:102180004A858297834754FF13F7E70FA30AE4FEBB
:102190008D8BE39877FB4A85EFF09FE75DB7EFE221
:1021A000CF9DEFE02FBFB70900802A8A93C9E9FFCE
:1021B000EFF07F9D03A4C18C9384C18C8D4B63167B
:1021C0009400EFF0FF9D6FE0CF9E48481309C4FED6
:1021D0003305AA40E3E7A9FE83A7418D99C34A8549
:1021E00082974A85032C0400EFF05FD8EFF05F9BE5
:1021F0001C4448448297EFE0EFB983A7818D2A8A77
:1022000099C34A858297EFF01F98834754FF13F7CD
:102210003700F99BA30AF4FE631577014A85EFF0B6
:102220003FDF628469BFEFE22F9637090080938415
:10223000C18CFD591349E9FF9C4063859700C04B51
:10224000631B3401EFF0DFACEFF05FBAEFF03F84D7
:10225000EFF0FFF4D5B7EFE0EFB33305A440E36947
:10226000A9FEEFF05FC1EDB79387C18DDCC39CC3BE
:102270008280EFE20F939387C18C37260000B7C5A9
:102280000200A9481148138781EB81461306662294
:102290009385858BDCC39CC3138581E39307002062
:1022A000EFF0FFA3138581E3EFF03FC36FE0AF9141
:1022B0001106719A2A8837C7ADDE130506F8AA877A
:1022C0001307F7EE631EF600A167938707882322A2
:1022D000D6F82324B6FA232006F92324F6F88280C0
:1022E00098C39107C5B737F700E01C43B7060080D5
:1022F000D58F1CC3828037F700E01C438607858397
:102300001CC382802165130505807315053082800A
:10231000731005308280EFE2CF881387C18E184397
:102320009387C18E19E323A2A18E23A4B18E054702
:1023300098C3EFF05FFB6FE00F892A87814718434E
:102340006314A7003E8582808507D5BFB707EFBE1F
:1023500037E700E0938707083CC701458280EFE23A
:102360004F8437C502001305058CEFF0EF98014547
:102370006FE06F85EFE2EF822A84FD5437C90200D7
:102380007D14631494006FE00F8413050902EFF0CD
:10239000AF96FDB7EFD25FFF0041AA8437C90200B4
:1023A000B7C90200631494006FE04F819305C4FE27
:1023B00013054902EFF04F941C4063869700138584
:1023C0008902EFF06F930040F1BFEFD29FFD2E899D
:1023D000EFE03FD72A84EFF00FFB83240900639CD2
:1023E0002401EFF0EFFBA14763C3870011E0214414
:1023F00022856FD05FFD138544FFEFE09FD46353C8
:10240000A4002A848440E1BFEFD23FF70545EFF0F6
:102410000FCEB7C90200130945002A84CA85138567
:1024200049B7EFF09FFAAA85AA8437C50200138640
:1024300049B71305C5B7EFF02F8C2685EFF09FF352
:1024400037C50200130505BCEFF00F8B4040B7C93C
:102450000200054A894A37CB0200B7CB020037CCCD
:102460000200B7CC020037CD020063158900014598
:102470006FD03FF403479402138509C0930644FFCD
:102480002146A685EFF04F87834784021385CCC091
:10249000BD8B638E470113058CC1638A5701138579
:1024A0004BC291C711476396E70013050BC3EFF0CA
:1024B000AF844C4C93073002AE8698226306F70235
:1024C0001050930740060848B295B386D540B386AE
:1024D000F602585C5C50898D1305CDC3B3D6C60295
:1024E000EFF08F81004051B78506C1BFEFD2DFE921
:1024F00041110945EFF0AFBF9309450037C902000C
:102500002A84CE85130549B1EFF03FECAA85AA8451
:1025100037C50200130649B1130505B2EFE0DFFD30
:102520002685EFF03FE537C502001305C5B3EFE0A0
:10253000BFFC404037CA0200B7CA0200371B030085
:1025400063968900014541016FD05FE71A281C445A
:10255000930644FF1309840036C63AC44A856306CD
:10256000F902EFF09FDD2247B246AA872146A685F1
:1025700013854AB5EFE05FF84A85EFF0BFE1130538
:102580000B31EFE07FF7004065BFEFF01FDB224724
:10259000B246AA872146A68513054AB6EFE0DFF5C5
:1025A000DDB7EFD27FDE41111145EFF04FB4930953
:1025B000450037C902002A84CE8513058995EFF0BE
:1025C000DFE0AA85AA8437C50200130689951305A2
:1025D0000596EFE07FF22685EFF0DFD937C50200E0
:1025E00013054598EFE05FF1404037CA0200B7CAD3
:1025F0000200371B030063968900014541016FD03B
:10260000FFDB1C4413098400930644FF1848630948
:10261000F9024A8536C63AC4EFF03FD22247B246A5
:10262000AA872146A68513854A9AEFE0FFEC4A85E2
:10263000EFF05FD613050B31EFE01FEC004065BFF4
:102640002146A6851305CA9BEFE01FEBC5BFEFD25D
:10265000BFD341110D45EFF08FA9B7C9020013098F
:1026600045002A84CA85138509ABEFF01FD6AA85D9
:10267000AA8437C50200138609AB130585ABEFE0CA
:10268000BFE72685EFF01FCF37C502001305C5ADA4
:10269000EFE09FE64040B7C902006316890001459C
:1026A00041016FD0BFD1930644FF1305840036C6A5
:1026B000EFF0BFC8034834015C48B246AA882147FE
:1026C0002146A6851385C9AFEFE01FE30040F1B7AF
:1026D000EFD29FCB41111545EFF06FA19309450053
:1026E00037C902002A84CE851305099DEFF0FFCD7E
:1026F000AA85AA8437C502001306099D1305859D86
:10270000EFE09FDF2685EFF0FFC637C50200130517
:10271000C59FEFE07FDE404037CA0200B7CA020023
:10272000371B030063968900014541016FD01FC923
:102730007A285E281044930644FF1309840036C6A5
:102740003AC43EC24A856307C902EFF01FBF9247F1
:102750002247B2462A882146A68513858AA1EFE042
:10276000BFD94A85EFF01FC313050B31EFE0DFD867
:1027700000404DBFEFF07FBC92472247B2462A8807
:102780002146A68513050AA3EFE01FD7D5B7EFD2E0
:10279000BFBF41111945EFF08F959309450037C927
:1027A00002002A84CE85130589A4EFF01FC2AA85F2
:1027B000AA8437C50200130689A4130545A5EFE0D6
:1027C000BFD32685EFF01FBB37C50200130505A751
:1027D000EFE09FD2404037CA0200B7CA0200371B61
:1027E000030063968900014541016FD03FBD1A2C5B
:1027F0001C44930644FF1309840036C63AC44A8534
:102800006306F902EFF07FB32247B246AA8721465A
:10281000A68513858AA8EFE03FCE4A85EFF09FB7E3
:1028200013050B31EFE05FCD004065BFEFF0FFB067
:102830002247B246AA872146A6851305CAA9EFE01A
:10284000BFCBDDB7EFD25FB45D712545EFF02F8AC6
:10285000B7B50200130600052A84130945009385C5
:1028600045540A85EF80E21DB7C90200CA85138569
:10287000098FEFF09FB5AA85AA8437C50200138699
:10288000098F1305858FEFE03FC72685EFF09FAED8
:1028900037C5020013050592EFE01FC64040D1493D
:1028A00037CA020063168900014561616FD01FB10C
:1028B0001C44930644FF63E0F90298088A07BA971C
:1028C00003A707FB1C282146A68513054A94EFE0C1
:1028D000BFC20040C1BF4647F5B7EFD2FFAA2945A6
:1028E000EFF0EF80B7C90200130945002A84CA85BA
:1028F0001385898BEFF07FADAA85AA8437C50200C6
:102900001386898B130545C6EFE01FBF2685EFF0C0
:102910007FA637C502001305C5C8EFE0FFBD4040E4
:10292000B7C9020037CA0200B7CA0200631E890095
:10293000EFD05FC6AA8537C50200130545CEEFE08C
:10294000BFBB01456FD09FA75C4C184C138509CBCA
:10295000930644FF2146A685EFE01FBA8347D4FFC4
:1029600013858ACC858B99E313054ACDEFE0DFB858
:1029700000406DBFEFD25FA137C502001305858C03
:10298000EFE09FB703A4418FB7C9020037CA020026
:1029900083A7818F6365F40001456FD03FA2044097
:1029A00009469385C98D2685EF80425C19C5504044
:1029B000A68513050A8EEFE03FB43104D1BFEFD2F4
:1029C000BF9C37C5020013054518EFE0FFB203A412
:1029D000418FB7C9020037CA020083A7818F636B9A
:1029E000F4003715030013050531EFE0FFB0014592
:1029F0006FD0DF9C044019469385091A2685EF8025
:102A0000E25601E950409385640013058A1AEFE00D
:102A1000BFAE3104D9B705458280EFD2FF967971F8
:102A20002A84AA9593060002254783070400B384ED
:102A300085406385D70A6383E70A0145638B0410E9
:102A4000014913070002A546B30724018387070045
:102A5000638AE7086388D7086314990883A9418FBC
:102A600083AA818F37CB020063F0590903AA0900BA
:102A7000194693050B1A5285EF80424F59E54A8655
:102A8000A28513056A00EF80624E41E14A9A8307EE
:102A90006A00A5EF83A989006388090413068002F0
:102AA00081452800EFD0FF9213098100CA86A287D2
:102AB0000145014713080002A548294313062002D7
:102AC000130EC00583850700638405016396150511
:102AD000631F9702A9476303F50469A80504B1B70A
:102AE00005099DB7E31C09F6A28703870700137742
:102AF000F7FD79E737C502001305C51623800700E7
:102B0000A285EFE07F9F7D55A9A0B109B1BF2380C9
:102B10000700050785077DB76310650437C5020008
:102B200013058514EFE05F9D0018B7C402008325EC
:102B30000900138584161109EFE01F9CE31989FE33
:102B40003715030013050531EFE01F9B29452C00C5
:102B5000829945616FD09F86637E970005056392D9
:102B6000C504850705079CC2838507006381C502EC
:102B70006364970069FD8DBF838E17006396C5015E
:102B80006394CE008507050785070507F1BFE3734A
:102B900097FE23800700050785079106E36497F2F7
:102BA000D1BF9CC283850700638905016387150136
:102BB000E30297FC85070507F5B7E36097FE5DBF65
:102BC000850725B7EFD26FFB8307050099E781459D
:102BD0000145EFF0DFDE6FD0CFFD03AA418FAA8958
:102BE0008144014937CB0200B7CB020083A7818F14
:102BF0006369FA00EDD04A86A6854E85EFE00FCFD7
:102C0000D9BF03240A00194693050B1A2285EF80C9
:102C1000E23521E14E85EF80423419042A86A285EF
:102C20004E85EF80A23415E5631709002285EF80F9
:102C3000C2322A89A284A68722870386070001EE72
:102C4000858F63D327013E89A28513850B1BEFE097
:102C5000BF8A310A61BF83060700FDD2E312D6FEA8
:102C600085070507D9BFEFD2CFF3EFF0EFF90145A4
:102C70006FD06FF5EFD2EFF2EFE0FF9C01456FD020
:102C80008FF4EFD20FF203A5018FEFD03FD50145AE
:102C90006FD06FF3EFD2EFF0B7170300938707679A
:102CA00023AAF18EB71703009387077C23ACF18E1C
:102CB000B71703009387077C23AEF18EB717030085
:102CC0009387077C93050021054523A0F190138489
:102CD000018FEFE0FFB408C019E937C50200130502
:102CE0004526EFE07F817D5422856FD0CFEDB7354B
:102CF000000037C50200A9472D4793060040014652
:102D0000938545E11305C527EFF0EF80AA840840BD
:102D1000B7C502008146014693854528EFD09FC183
:102D20000144F9D02685EFF04F9B7DBFEFD26FE7CE
:102D3000EFF07FCE0DC5B7C502009385052313853F
:102D4000810BEF808220B7C502009385052413858F
:102D5000810BEF80A21D1385810B6FD0CFE6B7C525
:102D6000020093858523E1BFEFD2AFE32A8437C504
:102D700002001305052AEFE02FF8EFF03FFBAA85CC
:102D800037C502001306A41B1305852AEFE0CFF612
:102D900001456FD04FE3EFD2CFE041112AC6EFD00B
:102DA0005F90B24511E937C5020013054524EFE0F5
:102DB000AFF441016FD02FE183A7018FAA84138460
:102DC000018F83A7C720E386A7FE93053014EFD0B9
:102DD0003F9565F11C4003A5C72009C9EFD0FF9BB3
:102DE0001C40814503A5C720EFD07FA200401306F9
:102DF000000581451305A41BEFD0AFDDB7350000FA
:102E00002315042023269420938525C82685EFD0FA
:102E10001FA045B7EFD2EFD583A7018F411193844F
:102E2000018F03C74702136717002382E70283A7B6
:102E3000C72091E7EFE0EFE819C1EFF0DFF5EFF021
:102E4000FFEEEFE06FEB37CB0200B7CB0200B7C964
:102E50000200371A0300B7CA020037CC0200B7CC11
:102E600002009C4085461306F10003A5C720FD55CE
:102E7000EFD03F968547631AF5000309F100ED474F
:102E800080406319F90008D0E9BF8840FD55EFD0B4
:102E9000FFACC1BF1C506392A7029307B005631536
:102EA000F90089471CD075BF23200402E30B09FAFF
:102EB000A5476314F9120149D1A80947E398E7FE31
:102EC00023200402930710046312F9046E30D1D951
:102ED000FD15C205C1816EB09307A41B1307000541
:102EE000B385E502130600053E859385A502A295EC
:102EF000EF703235EF8062061375F50F2305A420BD
:102F0000A305A4202285EFF03FE6A1BF930720048C
:102F10006311F90216347E301387F6FF63D8E70099
:102F200085077EB09307A41B6E304DBF9DDA7AB043
:102F3000D5BF930740046310F9028347B42095D3AB
:102F40001385C928EFE04FDB98408347B720FD1772
:102F5000A305F72039B793073004E319F9F4834741
:102F6000B4200347A420E3FEE7EE3E948305A41BB0
:102F700013850A29EFE04FD898408347B72085078B
:102F8000C1BF1385C928EFE02FD7050980408347CB
:102F9000B420E348F9FE13050A31EFE0EFD5EFF076
:102FA0009FA785471304A41B6315F5002285EFF046
:102FB0007FC1EFF0BFD72286AA8513858C2AEFE068
:102FC000AFD380401305A41BEF7032791375F50F52
:102FD0002305A420A305A42069B59307F007630582
:102FE000F900A1476315F9088347B420E38B07E68E
:102FF0000346A420FD1793F7F70F7D161376F60FFF
:103000002305C420A305F42063F8C7049385B71BE8
:103010001385A71B1D8EA2952295EFE0AF889C40DB
:1030200013854B2903C7A7203E97230D071A83C595
:10303000B7209385A51BBE95EFE00FCC9C4003C441
:10304000B7209C4083C7A720E3CD87E01385C9281C
:10305000EFE08FCA0504F5B71305CB29EFE0CFC920
:103060009C4003C7A720BA97238D071ADDBB3547BD
:103070008347A4206305E9002947631EE90EB9CB05
:10308000035984029147130DA41B63FB2709930D79
:10309000A41613060005EA856E85EF7052181DC947
:1030A0001309A4024A851309090513060005CA85F8
:1030B000EF703219E3982DFF1306000581456E85E8
:1030C000EFD02FB10346A420EA856E85EF7072170A
:1030D00095471EB41E347EB0EFF0FF938547631210
:1030E000F5029C4083C74702858B89C713050A31C7
:1030F000EFE08FC088408345A5201305A51BEFF0A6
:10310000DF91EFF0BFC2EFE02FBF80401306000554
:1031100081451305A41BEFD0CFAB2315042091B339
:10312000630109021305F9FF930700053305F50252
:1031300013060005EA851305A5022295EF70320EED
:1031400051D9930D00053305B903130600058145D8
:103150001305A5022295EFD0CFA70A340346A42079
:10316000EA853305B5031305A5022295EF70720DAC
:103170001E348507B9BF1307F0046374F7002305F5
:1031800004200346B4208347A4206370F608930507
:10319000A61B1305B61BA2953386C7402295EFD018
:1031A0007FF08C4083C7B5203387F500230D271BA4
:1031B00003C74502058B01CB9387A71BBE9513055B
:1031C0004C02EFE06FB39C4003C4B7209C4083C720
:1031D000A7206346F40298408347A7208346B72080
:1031E0008507850693F7F70FA305D7202305F7205A
:1031F0009306F004E3F7F6C6231507209DB1138567
:10320000C928EFE06FAF0504D1B7A297238D271B24
:1032100083474402858BE1D3CA8513850A29EFE0F1
:10322000AFAD55BF7C4123280504232A05049C43E8
:1032300081CBEFD20F979305850482976FD0AF981B
:1032400001458280EFD24F9436899DCAAA84328488
:10325000B309D600294A1C20639B4701BE2C93F773
:10326000070491C7FC40B54526859C478297FC40E2
:103270008305040026859C4705048297E31D34FDE1
:103280004A856FD0AF93EFD2CF9193F705102A8480
:1032900091C71A2D61551377071035CF13F70540E5
:1032A00011C71A2C61551377074035C713F705046A
:1032B0009304000401E7262C93F40404384893F5A2
:1032C000F50F2EAC39EBA1C7684429814205418135
:1032D0003105EFE02FC270442A8931052982420668
:1032E000418281452320A900EFD05FD3232209002A
:1032F0003E2C232409002328240593E707103EAC25
:103300007C4013060010C145DC43228582973E2C89
:103310000145DD8C26AC6FD00F8BF5DB93E50510F6
:103320002EACF5B70948AA8763810503EFD26F87F2
:103330000D486382050305476399E5041A2D137749
:10334000F7FD1AAD01456FD00F881A2D13670702DC
:103350001AAD01458280328775D6504274454C2D96
:103360002982A9824206C2064182C1826304D60034
:103370001D45F1F91443B4C75443F4C7E1D5F443F0
:10338000BA853E859442829675BF7C41DC43829724
:103390005DBFEFC27FFF3684B1CA3E2DAA89328954
:1033A00093F70710B6849DE37D5AA94A83A7490481
:1033B0004E85DC478297630945012300A900FD146F
:1033C000050963035501FDF0058C0DA02449368ADB
:1033D000854AEFE03FF3FE20DA202A869444631A00
:1033E000F70081EAEFE0DFF23304444122856FC049
:1033F000FFFC98403E97034B070003A7C9048507CD
:10340000C2072983C1834207FEA0418363E4E7002A
:10341000239304006394560123A404003285EFE053
:103420003FEF7D1A230069010509E3140AFA6DBF15
:10343000582D854763ECE7023E2D93F707109DC793
:10344000EFC23FF62A842849EFE0CFBF3E2C232865
:1034500004041306001093F7F7EF3EAC7C40C5451B
:103460002285DC43829701456FC0FFF501458280CC
:10347000EFC23FF3373700001307472218D537371D
:1034800000001307672858D5373700001307074394
:1034900018D9373700001307273958D937370000B4
:1034A0001307472418DD3737000013074732420659
:1034B00058DD34C14182232A05002320050223223E
:1034C0000502EFD0AFA26FC01FF093F5F50F85474F
:1034D0006391F50AEFC25FEB20494111AA847D593F
:1034E0008549FC402685DC4782972A8A63072505A3
:1034F000EFE05FE15A201C40BA97238047015E202D
:10350000F8448507C2072983C18342075EA041832F
:1035100063E4E7002312040076205E20639CD7005A
:103520008507C207C1837EA02324340163E4E7003A
:1035300023130400EFE0DFDD6DB79C5085C3EFE09F
:103540007FDC5A206E20636EB700B305B7402EC6ED
:10355000EFE01FDC9C50B2452685829741016FC089
:10356000FFE5FC44998DA983C207C183B385B740A9
:10357000F9BF828001CEEFC2DFE27841B2878E23AD
:1035800018433222029701456FC0FFE37D558280C8
:10359000EFC23FE11387C11378432E86AA851843F3
:1035A0001385C11302976FC01FE2EFC29FDF13871D
:1035B000C11378432E86AA8558431385C1130297F9
:1035C0006FC07FE0EFC2FFDD1387C1137843AA8588
:1035D0001385C113184702976FC0FFDE05C6114758
:1035E0006392E602EFC2FFDB7C410E2241119C4751
:1035F00036C632C482972246B2462AA23685410197
:103600006FC07FDC8146368582801DC2B28711463D
:103610006390C602EFC2FFD87841B2238E2358438D
:10362000411136C60297B246410136856FC0BFD9F7
:10363000814636858280EFC2DFD69387C113494722
:10364000D8CB373700001307C75DD8DB373700000A
:103650001307A76098DF3737000013074757ECC3FD
:10366000B0C3AA850D461385C11323A0070223A268
:10367000070223A4070223A6070223A80702D8DF14
:10368000EFD0CF8601456FC01FD437B5002013059A
:10369000C5A5828037850120130505808280EFC291
:1036A0005FD003A781829307803EC1563357F7024C
:1036B000B7E700E02386D7402387D740856623A05D
:1036C000D710916623A0D710B7F700E023A007001A
:1036D00023A20700014690C78146D4C7814613063E
:1036E000F7FF90CBD4CB3D4798C3EFC01FF1EFF06D
:1036F000DFF92A84EFF01FFAAA852285EFD0DFF7E1
:1037000037C5020013050532EFD01FDC6FC0BFCBF9
:1037100073110134EFD08FF0B7F700E023A2070058
:10372000EFC0BFE7EFD06FF27311013473002030A8
:10373000EFC23FC74946EF10F20F420541856FC007
:103740009FC8EFC21FC64D46EF10D20E42054185FD
:103750006FC07FC7EFC2FFC44146EF10B20D4205F4
:1037600041856FC05FC6EFC2DFC34546EF10920CC4
:10377000420541856FC03FC5EFC23FC0AE8981455C
:103780002A84328AEFF0DFFAAA8481452285EFF09D
:103790005FFBAA8B81452285EFF0DFFB81452A89FB
:1037A0002285EFF05FFC2A8B2285EFF08100058DEA
:1037B000B30A75412285EFF0C10033052541330579
:1037C000654163DFAA022285EFE0B17EB307954031
:1037D000B38777410945B3C7A7025628B694762820
:1037E0003699C207C187139707014183BA943A9962
:1037F00023909900239129012310FA006FC07FBB09
:103800002285EFE0117CB3072541B3876741D9B723
:10381000EFC23FB9B7078700DCD19387E7109CD58B
:10382000B70700809387D702DCD5B70764009CD91F
:1038300083C745032E84C19B93E78700238AF50243
:103840009307002DFEB9EFB030571E3408DC8945D0
:103850005EBC2285EFD0714B228593050030EFD0FE
:103860001152B5452285EFF0616B6FC0DFB5EFC235
:103870005FB301112A842EC432C2B684EFF04166D0
:1038800045C91246A2456385C50A9307801663F6AB
:10389000B700938585E9C205C1819307801663F758
:1038A000C700130786E91316070141825A309307B0
:1038B0008016BA959396050132974207C1824183DB
:1038C00063F6D700938686E9C206C1829307801605
:1038D00063F6E700130787E94207418313062101D6
:1038E0004C0822853AC636C4EFF01FE913060005DE
:1038F000A6852285EF10027493170501C187130670
:103900001005A68522853EC2EF10C2723338A00092
:10391000831561010315410192473247A246B081E8
:1039200093088101EF9031142C082285EFF04113A8
:1039300005616FC05FA9EFC25FA4B28AAE891306AA
:103940000005B7050200AA84368BEF10A26E131A89
:103950000501135A0A410947334AEA0283C744035F
:10396000C230998B420A135A0A01B38A4A41C20AE9
:1039700093DA0A4199E39E3429A09146639ED708C1
:10398000FE303E94420441801305A4054205418562
:10399000EF90C0242A89131504014185EF9000247B
:1039A0002A84B70503002685EFF09FD82A8CB70537
:1039B00003002685EFF0FFD8AA8CB7050300268503
:1039C000EFF05FD9AA8BB70503002685EFF0BFD9CA
:1039D0003307590303D90900529CD29CD29B5295BC
:1039E000B307540303D429003D874A974207418314
:1039F000330C8741669723108B012312EB00BD87A0
:103A0000A297C207C183B38B7741AA9723117B0189
:103A10002313FB006FC0FF99E398E7F603970403B5
:103A2000039624038396E4023297B347F702E3D464
:103A3000F6F4B9B7EFC2FF964111130621004C000E
:103A40002A84EFF07FD30316210034004C00228536
:103A5000EFF07FEE2C002285EFF0810041016FC076
:103A60009F96EFC21F94AA8537C5020013058532C1
:103A7000EFE021022A84EFE0011622856FC0BF9497
:103A8000EFC23F9293078016AA842E8463F6B70094
:103A9000138485E9420441809E34EE303387B74079
:103AA0004207818F4183C20713160701C183939692
:103AB00007014186C1866357060013078716131650
:103AC0000701418663D706009387871693960701FF
:103AD000C1863387C6409357F7413D8F1D8F9307AB
:103AE000400B63DEE7002685EFE0B17A2685EFF034
:103AF0007FF42685E2B0EFF0FFF36FC0DF8C63D96F
:103B0000C600B706020022862685EFF05FD6F9BF11
:103B1000E35ED6FC2E86B7060200A285F5B7EFC29B
:103B20005F8893078016AA842E8463F6B7001384F7
:103B300085E942044180FE308E343387F5404207E8
:103B4000B307F4404183C20713160701C18393965C
:103B500007014186C18663570600130787161316AF
:103B60000701418663D7060093878716939607015E
:103B7000C1863387C6409357F7413D8F1D8F93070A
:103B8000400B63DEE7002685EFE0B1702685EFF09D
:103B90007FEA268582B4EFF0FFE96FC0DF8263DA47
:103BA000C6002E86B7060200A2852685EFF03FCC20
:103BB000F1BFE35DD6FCB70602002286FDB7EFC277
:103BC0004FFEAE84B2852A84EFF07FF5A68522856C
:103BD000EFF01FEB6FC02FFFEFC20FFB2A8403151E
:103BE000E502E1776306F5025A3436346376D7008E
:103BF00013078716420741835C58420705468583B1
:103C00008D8B41876388C700DDC709466383C7087A
:103C10006FC0CFFA83150403031624030948B38445
:103C2000E600B387C500B3C70703B3C40403939882
:103C3000070193D8084113980401C204135808419E
:103C4000C1806357150342873E86EF908016931517
:103C5000050113190501C1812285EFF07FE2135997
:103C60000941A6852285EFF09FEB231E24034DB763
:103C7000BE85C286EF90E013AA8913190501A685B7
:103C80002285EFF0FFDF9395090113590941C181A6
:103C9000D1BF0316240383150403EF90801152341F
:103CA000131905019315050113590941C181228595
:103CB000EFF0FFF05DBF0316240383150403EF90BC
:103CC000400F1319050113160501135909414182CB
:103CD0002E34F1BFEFC2EFEC93078016AA842E8436
:103CE00063F6B700138485E942044180DE34AE34C4
:103CF0003387B7404207818F4183C20713160701FC
:103D0000C183939607014186C18663570600130756
:103D1000871613160701418663D706009387871617
:103D200093960701C1863387C6409357F7413D8F6D
:103D30001D8F9307400B63DBE7002685EFE071558D
:103D4000A2B42685EFF05FE96FC0EFE763D8C60045
:103D5000814622862685EFF09FB1DDB7E352D6FE7D
:103D60002E868146A285FDB7EFC2AFE3930780168A
:103D7000AA842E8463F6B700138485E94204418047
:103D8000BE34CE343387F5404207B307F440418355
:103D9000C20713160701C183939607014186C186A6
:103DA000635706001307871613160701418663D76A
:103DB00006009387871693960701C1863387C6400E
:103DC0009357F7413D8F1D8F9307400B63DBE7004F
:103DD0002685EFE0114CC2B42685EFF0FFDF6FC0FF
:103DE0008FDE63D9C6002E868146A2852685EFF038
:103DF0001FA8D5B7E351D6FE81462286C5BFEFC2C4
:103E00004FDAAE84B2852A84EFF01FF6A6852285AC
:103E1000EFF05FEC6FC02FDBEFC2AFD84EB1EFE039
:103E200051476FC04FDA8316E502638FB6023A3905
:103E300093170701C18763D3F5002E871E39131628
:103E40000701418693950701C18563D3C500BA87F1
:103E50001397070141876389E600EFC28FD47EB5CF
:103E6000EFF09FD76FC02FD68280EFC2EFD137CA55
:103E70000200357113058A322E89EFC0817A854799
:103E8000631CF506AA8A4A85EFC0B115AA894A853E
:103E9000EFC0B114AA844A85EFC0311489472A843F
:103EA0006396F924EFC051522A8939C5EFC03152C7
:103EB000631455050C104A85EFC0115E1008AC085C
:103EC0002685EFF07F8B8357010203578105998F79
:103ED0002310F1020357A10583572102998F231163
:103EE000F10283474403858B99CB831501020315A7
:103EF0002102B3E7A500D1EF0D616FC02FCCB7054C
:103F00000200130600052685EF10C212B88093192F
:103F1000050193D909012A8933073741C1652685EF
:103F2000F880EFD0C17031C5BC80B3873741C2077C
:103F3000C187635EF004FC808316210283170102AF
:103F400003170101B386D602B387F7023307E702EE
:103F5000B697635BF7008347440393E71700230A90
:103F6000F402EFB0606508DC83474403858BC9D752
:103F7000ADBF8317010111471316090133C7E702CB
:103F80004186BA866353C700CA86958F4DB7854769
:103F90005DB78359C4023E3463F7F90093898916EB
:103FA000C20993D90901EF8090503E345A30139AD8
:103FB0000901135A0A413E97198D4205418113198F
:103FC0000501135909416358090013058516131992
:103FD0000501135909415A3CB389F940C209B30A92
:103FE000F740998FC207C183338727014207418772
:103FF0009356F741358FC20A158F9306801193D9D6
:10400000094193DA0A0163DEE608034744030149E4
:10401000218B11E34E89085CCA9713990701EFB011
:10402000605A7E38135909413385A7029307803EB1
:104030003355F50293170501C18763CC2701330778
:10404000F040CA876357E9003305A0409317050184
:10405000C1872E3403172403831604033305BA40A3
:104060000E053306D7403345C502AE9A52868319F2
:10407000E4021105118556953E9542054185EF8074
:1040800050538397E40213190501135909416398AA
:1040900027038317040363962705EFB0E05108DC7C
:1040A000A1BD0947B3C9E902034744036357390176
:1040B00013678700230AE402B9BF5D9BE5BFEFB039
:1040C000A04F08DCCA852685EFF0FFD5E38329FDE4
:1040D0000146F1452685EFC0A16C8547E31EF5E05A
:1040E0004DBF83172403E39927E145BFA1476385AB
:1040F000F9008D47639CF902834744032685F99BA9
:10410000230AF402EFD041542A84EFC0112BAA8471
:10411000EFC0912BEFC0B12B9147E31FF5DCE38D8E
:1041200004DC81452285EFC07124F9B3B54763975C
:10413000F9044A85EFC0616B830705004547031901
:10414000E40293F6D7FF6393E602EE348505C205D9
:10415000C1852685EFF03FCD8317E402E38E27D992
:104160000146F1452685EFC0A16379B3B91793F7EE
:10417000D70FE39307D8EE34FD15D1BFC547639839
:10418000F90A4A85EFC061662A8910080C10268555
:10419000EFF08FDE9C44014499C30394470113065A
:1041A0000005814526854204EF00D2684180BC802D
:1041B000229593140501C180835501020356210203
:1041C000B3869740B387F440C206C207C182C18359
:1041D0003387C600F4803E96AE96BE954207C2066F
:1041E0004206C2054186C185A8084187C186EF7095
:1041F000D07383250900A1691386F9FFA808EF8011
:10420000800A01C523020900C5B93306940042069D
:104210004186B285A808EF701075832509001386C2
:10422000F9FFA808EF8020082302A900F1B1CD47CB
:10423000639FF90A81452685EFF08FCF2A8A814551
:104240002685EFF00FD08145AA892685EFF08FD023
:104250002A8481452685EFF00FD1D28763533A0136
:10426000CE8713970701418763538700A28713976F
:10427000070141876353A700AA87B7050300268576
:1042800013940701EFF0CFCAAA8AB7050300268569
:10429000EFF02FCBB70503002A8A2685EFF08FCBEE
:1042A000B7050300AA892685EFF0EFCBAA844A85DB
:1042B000EFC0A1534184568763D34A0152879317B5
:1042C0000701C18763D337014E8793170701C18761
:1042D00063D39700268793072700C20703170500BB
:1042E000C187818F63D3E700BA871EA131B1D5475B
:1042F000E394F9C04A85EFC0414E2A844A85EFC055
:10430000A1572A89130621004C002285EFF0CFC661
:10431000CA85A808EFE0011083172100130A8A322A
:10432000635EF00404082685EF80117026868145BF
:104330002285EFD0F1705C00BEDE3C81B008E9451B
:104340002285231AF10802C7D2CE82D0A6DCEFC0A4
:1043500021455A3036345E345000A685BA973697D8
:1043600083564109C20742074A85C1834183EF80D2
:10437000316DB008ED452285EFC08142B7050200DE
:104380002285EFF0EFBAAA8AB70502002285EFF086
:104390004FBBB7050200AA892285EFF0AFBBAA8404
:1043A000B70502002285EFF00FBCD68763D33A0130
:1043B000CE8713970701418763539700A68713970A
:1043C000070141876353A700AA872481B387F4407C
:1043D00093940701C18463599006930901014E85A6
:1043E000EF8091644E86B70502002285EFD05165BB
:1043F000B70702003EC78547BED0B0085C00E9455C
:104400002285BEDED2CE231A9108CEDCEFC0413920
:10441000831641098317210163D3F600F4815A30D2
:1044200072301E34C206CE85BA973297C207420751
:1044300050004A85C1834183C182EF807160B0081A
:10444000ED452285EFC0C135031621009309810097
:10445000CE864C002285EFF00FCE04102685EFA00B
:10446000915E2686B70503002285EFD09104B70739
:1044700003003EC7B0088947E9452285BED0D2CEA9
:10448000CED2A6D4EFC0C1314E86A6854A85EFA014
:10449000D160B008ED452285F9B183170503639615
:1044A000B700831725036384C702EFB29FEF83171A
:1044B000E5020EB932B963D3B7006EB58317E502D2
:1044C0006353F60072B5EFF02FF16FB0DFEF82802B
:1044D0005E210A2185073385A740420541858280F8
:1044E0007E212A2185073385A740420541858280A8
:1044F000EFB23FEB2E841305C4038145EF707023A8
:1045000081451305C404EF70D0226FB0DFEBEFB22A
:104510005FE91C417D578843D8C71307C5036398DB
:10452000E7009C475CD1EFE0C1566FB0DFE91307AD
:10453000C504E39AE7FE9C471CD9F5B7EFB27FE6C6
:104540004CC50841EFE0E1546FB0FFE7EFB27FE503
:104550005D712A840CC23685814536C6EF70701DA8
:104560000808EF705019B74700009387C753B24649
:104570003ECA930700103EDAB74700009387E75022
:10458000130660068145228536C83ECE02D602D883
:10459000EF00522A2ADC0808EF70101F61616FB02B
:1045A0009FE2EFB21FDD51712A84EFC00123AA8C74
:1045B0002285EFC0612C2AC22C106685EFE04113E2
:1045C000294681456685EF00F226AA842D4681455D
:1045D0006685EF003226835581020356A102C2048C
:1045E000C18042053387954041812314E10233079E
:1045F000A6408356C1022315E1020357E102A696A5
:10460000C2062A974207C18241838504130415001C
:10461000B6943A942316D10283C6CC05118C231785
:10462000E10203A6CC0203A78C028D8CC2044204D3
:104630008D8A8545C18441843303E640814A639C69
:10464000B600635A07006358C00083AA0C03B38AFC
:10465000EA4093BA1A004946814566851AC4EF00BC
:10466000721D2A8B4D4681456685EF00B21CAA8BD0
:10467000414681456685EF00F21B2A8C45468145FF
:104680006685EF00321B8315A1020317C102831652
:10469000E10203568102420BC20B420C931D05013D
:1046A000135B0B0193DB0B01135C0C0193DD0D011C
:1046B0005A9633077741E295B386B64142064207E0
:1046C000C205C20641824183C181C182239ACC02C4
:1046D000239CEC02239BBC02239DDC02138A4C0327
:1046E000224363C8840685068D8EC206C1860D47A7
:1046F0006341D70209473347E40283D66C013697FA
:10470000420741839306E7FF0907239BDC02239DB1
:10471000EC0283D98C0303D74C0303D9AC0385097E
:10472000B389E94003D76C030509C2093309E9409D
:10473000420993D909411359094163D38412374E71
:10474000000013886C039386AC03CA88130E0E4EC8
:1047500005A20507118F420741878D46E3CBE6FA94
:10476000094733C7E40283D64C0136974207418399
:104770009306E7FF0907239ADC02239CEC0251BF52
:1047800003AD0C03330DCD40330D1D03334D6D02CE
:104790002DA203A74C02118F33071703334767027B
:1047A00085A22310B8009AA201A4338665400506AD
:1047B00042064186635CE60092A203960600031758
:1047C00008006353E61E2310C800F1BF9AA223100D
:1047D000C800E5B783D6AC0303D66C038506A9AC45
:1047E000850BB38B6B41C20B93DB0B410D476346CB
:1047F00077350947B3C4E40203D74C01BA94C20425
:10480000C1801387E4FF8904231CE102231E910267
:104810002DA65285029E05476348A7189245281188
:10482000EFD0513F370702003011E9456685BACF16
:104830006AD702D952DBEFB0B1763011ED4566850B
:10484000EFB011766D616FB09FB69A2205070D8F9C
:104850002310E80003DD06003306CD4092A239A202
:10486000374E000093868C03CE885288130E0E4D6F
:1048700083A58C057D5703A68C02E383E5F003A78F
:104880000C05118F330D170333476D0203AD4C0533
:10489000330DCD40330D1D03131507014185334DF5
:1048A0006D02420D135D0D41330DAD40330DBD0260
:1048B00093050010334DBD023A9D03A58C04420DB3
:1048C0007D57135D0D41E306E5EC03A70C04118F42
:1048D00033071703B345670203A74C04118F33074F
:1048E0001703139605014186334767024207418744
:1048F000118F3307A702130600103347C7022E9704
:10490000420741871306B0068145668546CE1ACC1C
:1049100072CA36C842C63AC4EF00C27122471316A3
:104920000D01418293150701C1813248C246524EA2
:104930006243F248E3CB84F01375F50F854E631E96
:10494000D501330DC0403307B04042864207420DC7
:1049500036884187135D0D41B286035608003297B1
:104960009AA2035708003A9D2310A80137CD0200F0
:10497000130D4D34E38F0AE803A68C0283950600DD
:10498000031708003306C040B308160333C3680298
:10499000420313530301E3CA84E01A974207418795
:1049A000E351B7E02310E800930A01075685EFA012
:1049B00091095686B70502006685EFD0812F924592
:1049C0002811EFD03125370702003011E9456685FF
:1049D000BACF6AD702D956DD52DBEFB0715C13064D
:1049E000000681456685EF00E26442054185228725
:1049F00063D3840026874207418705873A8D635336
:104A0000E5002A8D420D135D0D4103160107CA868C
:104A100063D32901CE86C206C18685863687635355
:104A2000D6003287420741870607E3C584DA83D67A
:104A30008C0303D64C038506918EC206C186635B48
:104A4000D7020347310712455286D6858349A1080C
:104A5000034921093AC4A3090106230501082309D2
:104A60000108EFA0910322472305310923092109F9
:104A7000A309E10603D74C0181466A865A97231899
:104A8000E10203D78C010C18880033077741231A01
:104A9000E10203D76C0162972319E10203D7AC014D
:104AA0003307B741231BE102EFA081308145880025
:104AB000EF9031758315A1020317C1028316E1023D
:104AC000035681022E9CB30B7741329BB38DB641C6
:104AD000420B420CC20BC20D135B0B01135C0C01A9
:104AE00093DB0B0193DD0D01834921092303010AA7
:104AF00023090108231C6103231D8103231E710365
:104B0000231FB1032A89E3CD84CC850DB38D8D415C
:104B1000C20D93DD0D410D476341B703094733448F
:104B2000E40203D76C013A94420441801307E4FF86
:104B30000904231DE102231F810203160107814698
:104B4000D285A808EFA0C1268145A808EF90716B17
:104B50002A8412453018D685EFA02174124552865A
:104B6000D68523093109A30901062305010823037A
:104B7000010AEFA08172A808EF9071748800EF908D
:104B800011742285EF90B16E4A85EF90516E75B128
:104B9000EFB28FFF37C5020013054534AE84EFB086
:104BA00051288547631DF50AAA892685EFB0714310
:104BB0002A892685EFB07142CD472A846313F90A0A
:104BC000B7050200EFD0C1722A892685EFB0F14106
:104BD0001E21AA8413970701418763532701CA87BF
:104BE0009EA0494681452285EF00C24493190501E4
:104BF0004D4681452285EF00E243131A05014146E7
:104C000081452285EF000243131905014546814580
:104C10002285EF002242135A0A41420593D90941E5
:104C2000135909414185D28763D34901CE87139730
:104C3000070141876353E900CA871397070141873A
:104C40006353E500AA87C207C18763DA07000397A9
:104C50000400B307F04063D3E700BA879EA06FB0AB
:104C6000EFF563053901A1476318F9009305440383
:104C70002285EFD0F15EE5B7D547E312F9FE268530
:104C8000EFF03F92E9BF58516308B7045C5563D316
:104C9000F500AE8714590C5563D3D500B68563D3A0
:104CA000F500BE85630AB702EFB2AFEF11E64CD153
:104CB000EFD0315E6FB02FF13445FD57639BF600A6
:104CC00038C16CC19306C50313064502EFF01F8877
:104CD000D5B77C413CC1F5B78280EFB28FEC93072A
:104CE0004006DCD583C7C5052E8423A20502F19BAF
:104CF000238EF50423A4050223A8050223AA050296
:104D000023AC05024CDCFD57BCC523A0050423A23F
:104D100005046CC4BCCD228523A8050423AA050480
:104D2000A145EFC0D1052285C145EFC0510501461F
:104D300081452285EFF03FF56FB0EFE88347C50569
:104D400009478D8B6398E704585563D3E5002E8798
:104D50001C5563D3E700BA874C5163D3B700BE85B7
:104D60001C596389B702EFB2CFE311E60CD9EFD03B
:104D700051526FB04FE5344D7D57639BE6003CC9FF
:104D80006CC99306C50413060503EFF02FFCD5B7D5
:104D90007C49F5B782803845FD576304F7006841C8
:104DA0008280485182808347C50509478D8B638483
:104DB000E70008558280384DFD576304F7006849C5
:104DC000828008598280684D0D898280EFB26FDD44
:104DD0002E842285C145EFC0817A9305004022854B
:104DE000EFC0A1726FB02FDEEFB2AFDBAA8537C57F
:104DF000020013050536EFC0D1492A84EFC0B15D2A
:104E000022856FB04FDCEFB2CFD988552E84EF806A
:104E1000E0004854EF80800023240402232604028B
:104E20006FB06FDAEFB2EFD429712A84EFB0F11AC4
:104E30001E39638F07402A8C2285EFB0F1238357F8
:104E40002C022C182A8B93E747002311FC02628561
:104E5000EFD0110A03270C02B707FBFF83540C02A3
:104E6000F98F37070400D98F2320FC028801EFA0B7
:104E7000813DA810EF8051409001B7050500628583
:104E8000EFC03163B010B70505006285EFD021187F
:104E900083572C0241468145ED9B2311FC022310D0
:104EA0009C026285EF000219931D0501454681456C
:104EB0006285EF00221893170501C1874946814595
:104EC00062853EC8EF00021793170501C1874D4662
:104ED000814562853EC6EF00E21593170501C18743
:104EE000DA85A8193EC4EFD0E152B70705002326A2
:104EF000F112B7C702009387C737BEDF93F70402EA
:104F00003ECA93F724003ECC93F7440093098108EE
:104F1000130A81043ECE93F7840093DD0D412320D4
:104F200001102324311123264111014901443ED0AF
:104F300083570C036379F43083274C02B71A0300BC
:104F4000931B290033877701084393850A310509AC
:104F50003ED24209EFB06FD21359090192576DD179
:104F60008327CC02931A1400D6979A23937787004D
:104F7000639F0724935777401377070213FD1700A9
:104F8000630B0724136D0D0883268C02131734005E
:104F900036970E23031627000318470003156700F2
:104FA000835681030357A103B6953A96C2962A9772
:104FB0002310B1042311C1042312D1042313E104EB
:104FC00063110D24130680038C014E85EF70306D44
:104FD00013060002AC105285EF70706C0327CC02F0
:104FE000834651065697122313F7E60F931736019F
:104FF00063D4070013E71600930C0104B019E945C8
:105000006285A302E1062322911123288112EFB0C9
:1050100021792A579317270063DA07080347B10A53
:10502000B24703160104137717FC1367E701A305C2
:10503000E10A83164C01BE966318D600137717FC5D
:1050400013676701A305E10A03178C01A2478316C2
:1050500041041D8F639BE6000347B10A9376E70284
:10506000137717FC558FA305E10A03176C0183160C
:1050700021046E97639BE6000347B10A9376A7036A
:10508000137717FC558FA305E10A0317AC01C2473C
:10509000831661041D8F639BE6000347B10A937674
:1050A000C703137717FC558FA305E10A035E61045C
:1050B00013730D02035F2104050E420E135E0E01F1
:1050C000630F03008327CC02D6979E2393F7072014
:1050D00099C793171F00B387C7412311F104668650
:1050E000CE855A851AD27AD672D4EFA0011B8327B7
:1050F0004C02035781038316C105BE9B8357C1032E
:1051000083AB0B0026468507998F0348510603178A
:10511000A105C207C187DE854818EFA0E0128357BA
:105120004104835501040315410385078D8FC20790
:10513000C1870946898FB3C7C70203572104831665
:1051400061031253BE9583576104C205C18185076F
:10515000998FC207C187958FB3C7C7022310B104C7
:10516000AA952312B104BA97C207C183BE96C2069C
:10517000C1822311F1042313D104630E0302032718
:10518000CC02BA9A03D70A00137707200DC7225E14
:10519000325F330EEE41420E135E0E41334ECE02AD
:1051A000420E135E0E01B387C741B386C641231179
:1051B000F1042313D1046686D2855A850147DE8621
:1051C000EF80D10FB019ED456285EFB0615D050448
:1051D00042044180B1BB03574C03E31787DAD2473F
:1051E00099C3136D0D02E24799C3136D2D00F24769
:1051F00099C3136D4D008257E38807D8136D8D0056
:1052000061B303572C024E852310AC03136747008C
:105210002311EC02EFA021035285EF80F1054E86A9
:10522000B70505006285EFC0D1285286B705050095
:105230006285EFC0D15D03572C0223109C026D9B49
:105240002311EC0261BB83572C02ED9B2311FC025E
:1052500031616FB0CF95EFB2CF9455468145EFF0F5
:10526000715D420541856FB00F96C167FD17638B75
:10527000F50CEFB26F911E3941112A8463F1F50CE0
:105280001C5513973500AE84BA97039707002C007E
:1052900078800397270078810397470083976700FA
:1052A00078827C83EFD0C144814551462285EFF05E
:1052B0007158931905012285EFF0FFF92A8922859B
:1052C000EF007239EFA04029A9473345F50293D981
:1052D00009412C8442054185AA8663533501CE8657
:1052E0003C80C206C182AE97958F7C8030854A870C
:1052F0006353A9002A8728823C814207AA95AE966B
:10530000748234834183B2973696998F3297C2075D
:1053100042075638C18341837C817883639D960020
:105320004C548604AE94962093F6062089C68607D0
:10533000FD17998F7C818A852285EFD061724101AA
:105340006FB0CF878280EFB2CF8201112E890C0817
:10535000AA84EFD0E1392685EFD0A145AA8C268515
:10536000EFD02146494681452A8D2685EFF0914CA4
:10537000931B05014D4681452685EFF0B14B9319EE
:105380000501414681452685EFF0D14A131C0501F0
:10539000454681452685EFF0F149931D05015146AB
:1053A00081452685EFF011492A842685EFF0BFEA72
:1053B000137714004204894741843344F4020507FB
:1053C000B54693DB0B4193D90941135C0C4193DD46
:1053D0000D41354AB347F5020589229742074187B7
:1053E000AA978507C207C18763C3E6003A8A420AC3
:1053F0003547135A0A41BE8A6353F700B54AC20AB9
:10540000B54793DA0A414E8B63D33701354B420BD4
:10541000B547135B0B41E28963D38701B549C209E4
:10542000B54793D909416E8C63D3B701354C420C13
:10543000135C0C41B38C6C41330D8D4101445E888B
:10544000B54DF91C791D9E38637CF4089854931768
:105450003400A880BA970397070003932700839826
:1054600047008395670093170701C18363C3EB0867
:10547000428763D37D0135473307E540BA97C207BA
:10548000B081C187FC8493160301C182B3074641F2
:1054900063C86900CE8763D33D01B547B307F640C3
:1054A000BE96C206C18613970801F485418363C581
:1054B00098055A952A974207418793970501F886E0
:1054C000C18363CDA5036296B297C207C187014627
:1054D000CA85280842C6FC87EF60F05C32480DC1DF
:1054E0009E386394870041647D14228505616FA016
:1054F0001FEC3307554159B756956DBF5296E9B722
:1055000005044204418081B7EFA2BFE68547797167
:105510002A84AE8A3EB901498144B7190300931722
:105520002900D697884301C5830705009DE71E38EB
:1055300063859706085409C5EF70500E23240402B2
:10554000485409C5EF70900D2326040213953400CA
:10555000EF70103F08D41DE101A093850931EFA041
:10556000DFF109C98504C204C18005094209135944
:10557000090175B73E3885073EB8C5BF13951400BD
:10558000EF70103C48D411E101A01C5491E3814418
:1055900093951400EF70F04B06B81306B0068145E2
:1055A000232254032285EFF0F1289377F50F494623
:1055B000814522853ECAEFF0F1272A8B414681457D
:1055C0002285EFF03127514681452A8D2285EFF063
:1055D0007126AA842285EFF01FC8AA8B2285EFD0FE
:1055E000411FAA8D2285EFD0212203592403420DA9
:1055F000C20D7D1933099902420B135D0D018149DA
:10560000014C814C93DD0D01135B0B0133092541E6
:1056100093170901C1873EC893970401C1833EC611
:1056200093970B01C1833ECC035A2403636F4C074D
:105630002285EFC071602285EFD0A14545616FA042
:105640001FD75454338794010607369718231D8BB0
:1056500011E30547330FE900850413190F01C20454
:1056600013590901C180139724005697184311CF8D
:10567000B7170300938507313A853ACEEFA0FFDFD5
:1056800009C57247030707004DFFC247050CB383E6
:10569000370199EC910A6688B2479E89C28CEA97D5
:1056A000139D0701135D0D0141B78144014965BF99
:1056B000B3D949031307FDFF33DA4303EA99C2095B
:1056C00093D909413A9A1387F4FF33077703420AC3
:1056D000135A0A413387ED4042074187BA8E63531C
:1056E0000700814EC20E93DE0E4166888148814FCD
:1056F000585493161800369710231D8A11E2054658
:105700003387FE03B29FD2471386F8FFB386FE03AA
:1057100033572703B3D62603469742074183B296F1
:10572000C2060546C182638DC70493150701C18572
:10573000C2061C54C186DA95DA9613153800C206E3
:10574000C20552873E95C1864E86C1851ED646D477
:1057500076D27ED042CEEF60501D7248E247A2580A
:10576000050833079841BE98C20893D80801825FA4
:10577000925EB253E36E97F685048A04A69A29BF17
:10578000B386DD4093950601C185B386ED404DB7E4
:10579000EFA23FC1FD57DEB983C765032E8523A263
:1057A0000502F99B238BF50223A4050223A605021B
:1057B00023A80502B705002093850508EFF0DFD484
:1057C0006FA07FC0EFA2FFBDAA8537C502001305F9
:1057D000C537EFC0012C2A84EFC0E13F22856FA0BE
:1057E0009FBE99C5EFA2FFBBEFF01FD26FA0BFBD58
:1057F0008280EFA21FBB12392A8448550606EF703B
:10580000006A4C502285EFF0DFFD6FA0DFBB1E3930
:1058100063E6F500C167FD176390F502EFA27FB85C
:10582000AE844E392A84EFF05FA4A68546B822855F
:10583000EFF0BFA36FA03FB98280163963F9D5029C
:10584000EFA23FB65855939715003284BA97962326
:105850001347F6FF13740420758F9AA3AA84EFF000
:10586000DFA001C42685EFC0313D6FA0DFB5828087
:10587000EFA23FB3AA842E8901449E386364F400EA
:105880006FA07FB4A28505044A8626854204EFF006
:10589000DFFA4180DDB71E3963F5F504EFA27FB072
:1058A000834765032A84B284858B2E8981CB9377C5
:1058B000060889C793050008EFF09FFB5C54131797
:1058C0001900CA85BA979A232285458F9AA393F423
:1058D0000420EFF09F9981C42285EFC0F1356FA0BD
:1058E0009FAE8280EFA2FFABAA842E8901449E382E
:1058F0006364F4006FA03FADA28505044A86268547
:105900004204EFF05FF94180DDB74A398280C16718
:10591000FD176385F506EFA23FA7835A05032A8981
:10592000014563E1BA02AE8981440144371B03009B
:10593000639C3401014563879A00832749020A0466
:105940003E9408406FA09FA7130A1400420A8327C1
:105950004902135A0A0113172A00BA97884385048B
:10596000C20493050B31C180EFA03FB111E50904DA
:10597000131A0401135A0A0152845DBF0145828043
:105980001E3963FBF5005C558605BE958A21718D35
:10599000118D13351500828001458280EFA27FA012
:1059A000130600082A84AE84EFF09FFD2A89930530
:1059B00000082285EFF0DFEB6308090013060008FA
:1059C000A6852285EFF03FED6FA0FF9FEFA2DF9B42
:1059D00037C5020041111305C5372E89EFA0714468
:1059E0008547631BF504AA894A85EFA0915FAA84C5
:1059F0004A85EFA0915ECD472A84639FF4044A85CF
:105A0000EFA0B15E3E38AA8995C7032A44028144BB
:105A1000B71A030093972400D29703A90700630BDA
:105A2000090093850A314A85EFA03FA501C5830788
:105A3000090091E72390090041016FA03F985C5451
:105A400013971400BA979E2393F70720639B074888
:105A50008504C204C1807DBF9307A0026396F40051
:105A60004C50EFF01FD8C9BF93079002E38AF4FEB1
:105A7000639A34094A85EFA051574E382A89228506
:105A8000EFF0AFFEEFB04114EFB061147599631EF3
:105A900095022C004A85EFB021202C002285EFF0E2
:105AA0009F8AC167FD17AA856301F5025C5413172D
:105AB0001500BA979A23935757400D87D98F858B36
:105AC00089E74AB82285EFF04FFA5638C167FD17CB
:105AD000E384F6F65C5413971600BA979A2313568C
