:040000006F800210FB
:1000040000000000000000001E7F02003E7F02008E
:1000140000000000FE80020000000000000000005C
:10002400FE800200FE8002000000000000000000CC
:10003400963500000000000090020000000000005F
:10004400FE800200FE800200FE800200FE800200AC
:10005400FE800200FE800200E0790200087A0200BD
:10006400307A0200587A0200807A0200FE80020090
:10007400FE800200FE800200FE800200FE8002007C
:10008400FE800200FE800200FE800200FE8002006C
:10009400FE800200FE800200FE800200A87A0200B8
:1000A400FE800200FE800200FE800200FE8002004C
:1000B400FE800200FE800200FE800200FE8002003C
:1000C400FE800200FE800200FE800200FE8002002C
:1000D400FE800200DE7E0200FE7E0200FE80020040
:1000E400207B0200FE800200FE800200FE800200EF
:1000F400FE800200FE800200FE800200FE800200FC
:1001040000000000FE800200FE800200FE8002006B
:10011400FE800200FE800200FE800200FE800200DB
:10012400FE800200FE800200FE800200FE800200CB
:10013400FE800200FE800200FE800200FE800200BB
:10014400FE800200FE800200FE800200FE800200AB
:10015400FE800200FE800200FE800200FE8002009B
:10016400FE800200FE800200FE800200FE8002008B
:10017400FE800200FE800200FE800200FE8002007B
:10018400FE800200FE800200FE800200FE8002006B
:10019400FE800200FE800200FE800200FE8002005B
:1001A400000000000000000000000000000000004B
:0C01B4000000000000000000000000003F
:1001C00097820120938202E4938202E073900234CA
:1001D00003210500224573100530B1A819712320B1
:1001E000250006C006C216CAF322003093F2820030
:1001F000638402009302000816C412C81ACC1ECEF3
:1002000022D026D22AD42ED632D836DA3ADC3EDEB6
:10021000C2C0C6C2CAC4CEC6D2C8D6CADACCDECE26
:10022000E2D0E6D2EAD4EED6F2D8F6DAFADCFEDE96
:1002300003A1050009A002457310153492403785CB
:10024000000013050580732005302245732005301A
:100250004242D2426243F243025492542255B25572
:100260004256D2566257F257064896482649B64932
:10027000464AD64A664BF64B065C965C265DB65DF2
:10028000465ED65E665FF65F09617300203000004F
:10029000197116CA9302000816C49302000273A0D3
:1002A000428006C212C81ACC1ECE22D026D22AD430
:1002B0002ED632D836DA3ADC3EDEC2C0C6C2CAC456
:1002C000CEC6D2C8D6CADACCDECEE2D0E6D2EAD4E6
:1002D000EED6F2D8F6DAFADCFEDE73110134EF0066
:1002E000F033EF10B069EF0050367311013413840E
:1002F000018E0329040063040902232004007325EE
:1003000010342AC01384818D044023A02400138458
:10031000C18D044003A104000245731015349240BE
:10032000B78200009382028073A00230A24273A0C1
:1003300002304242D2426243F24302549254225566
:10034000B2554256D2566257F25706489648264949
:10035000B649464AD64A664BF64B065C965C265D25
:10036000B65D465ED65E665FF65F0961730020305B
:100370000000397101436EC619A0397141536AC832
:1003800066CA62CC5ECE19A0397101535AD056D2DA
:1003900052D44ED64AD826DA22DC06DE330161403A
:1003A000828241114AC026C222C406C68282B24D50
:1003B0004101024D924C224CB24B4101024B924AF8
:1003C000224AB2494101024992442244B2404101C9
:1003D00082803D432A876373C3029377F700BDEFA2
:1003E000ADE5937606FF3D8ABA960CC34CC30CC7A5
:1003F0004CC74107E36BD7FE11E28280B306C340CE
:100400008A069702000096966780A6002307B70029
:10041000A306B7002306B700A305B7002305B7005E
:10042000A304B7002304B700A303B7002303B70056
:10043000A302B7002302B700A301B7002301B7004E
:10044000A300B7002300B700828093F5F50F9396C1
:100450008500D58D93960501D58D61B793962700BC
:100460009702000096968682E78086FA9680C117EA
:100470001D8F3E96E374C3F8A5B73367B500FD53EF
:100480000D8B79E7B7877F7F9387F7F7104194410A
:10049000B372F6003363F600BE92B3E26200639576
:1004A000720C6318D6065041D441B372F600336320
:1004B000F600BE92B3E262006396720A631BD60432
:1004C00010459445B372F6003363F600BE92B3E272
:1004D0006200639F7208631ED6025045D445B37212
:1004E000F6003363F600BE92B3E2620063987208CE
:1004F0006311D60210499449B372F6003363F600D3
:10050000BE92B3E26200639172085105D105E30F18
:10051000D6F61317060193970601631CF7001357CD
:10052000060193D706013305F7409375F50F91E95E
:1005300082804183C1833305F7409375F50F91E1C4
:1005400082801377F70F93F7F70F3305F740828018
:1005500010219421050585056313D60075FA33052E
:10056000D640828011059105E314D6FE01458280B4
:100570002105A105E31ED6FC014582803105B105A8
:10058000E318D6FC014582804105C105E312D6FC83
:100590000145828003A501858280EFF29FE0938769
:1005A00001859843050798C3EF1020763C45FD1759
:1005B0003CC589E77C413CC5EF10C07DEF10702F32
:1005C00019B5634205029307803E3347F502336550
:1005D000F5023305F5021305753E3345F502330781
:1005E000F7023A9582807D558280014582800145DF
:1005F00082800145828001458280EFF29FDA3714C4
:100600000300B71403001304843D9384443E6363E2
:10061000940055BB1C4011048297D5BFEFF27FD8E0
:1006200037140300B71403001304443E9384C43EFC
:100630006363940049BB1C4011048297D5BFEFF25D
:100640005FD6E93FEF70B211BDBBEFF29FD5B705A2
:10065000000037B50200D1471547896601469385EA
:10066000E56313050516EF10A06AEF101006A1BB95
:10067000EFF23FD3EF107031EF20D06AEF00506EF1
:10068000EF10B02AEF10003BC937EF10B02A192C39
:10069000EF10203D014505BBEFF2BFD0D13F014532
:1006A0001DB3EFF27FCEAA89EF10206619C1EF10BB
:1006B000804D2545EF10A023444113044500639667
:1006C0008400EF108064014919A8138944FF214672
:1006D000CE854A85EF00502401E9EF10006319C16F
:1006E000EF10004C4A85D9B98440D1BF09E57D554A
:1006F00082807D55C9B9EFF2DFCA2A842E853289FE
:10070000AE8445377DF522852686A545EF10C020AD
:100710000145231C2401230E0400231D0400D9BF1E
:10072000EFF23FC81E2D41112A84C18B9DE71C5555
:100730008DC32EC68297AA84B24501CD2A8637B5CD
:100740000200A28513058516EF00105B2685410186
:100750009DB91E2C93E707011EAC1E2CA18B89C7E7
:100760003E2CE554A18BFDF35C5489CF2285829702
:10077000AA8405E13E2C93E787003EAC5C2C8507FC
:100780005CACE9B785679387F7F0FD8D2EAC8144AB
:10079000D5B7E957E31CF5FAF1BF5C2D85CBEFF235
:1007A0005FC0FD1793F7F70F5CAD2A84014789EF0F
:1007B0001C5989E70147231D040039A082972A8725
:1007C00075D9E957E309F5FE3A85F5BE7D573A85B7
:1007D0008280EFF21FBD582D11E77D55EF005002CA
:1007E000014521A05C5999C38297F1BE6955FDB7B7
:1007F000EFF23FBB582D11E77D55EF00700001452A
:1008000021A01C5D99C382977DBE6955FDB70CD1AF
:1008100001458280EFF25FB79389C18A854A83A739
:10082000C18A63863705EF10501683A7C18A2A8ACA
:10083000638D370303A4C18A5C4018401309C4FECA
:100840005CC398C340C000C0EF10E0337C5099C334
:100850004A8582974A85EF10601D631B55014A85C2
:10086000EF106011EF10C0335285EF10D012B9B6FF
:10087000EF1000335285EF1010124848EF00907CC3
:100880004A85EF10801761BFEFF2BFB1138401AE4C
:10089000130904011C4091C382971104E31C24FF37
:1008A000953FEDB7EFF2FFAF37160000B7B5020086
:1008B000930800023D4893070020138701AF81464B
:1008C000130686889385051A138501A6EF10C0408C
:1008D000138501A6EF10605FFDB4EFF29FAC4111EC
:1008E0002A842E8532C62EC4EF10E04F3246A24530
:1008F00019C68547630DF60001454101E9B458402A
:10090000938745011CC398CD5CC0C0C9F5B71C4096
:100910006388870083C6550303C7170263FAE6009E
:10092000D4431387450198C294CDD8C3DCC9E9B735
:100930009C43F9BFEFF2FFA64111B2842E86894590
:100940002A8436C6EF00507DB246930744011CCC82
:100950005CC846AC14B401454101B5B4EFF2DFA266
:1009600083A7818941112EC62A8491C38297EF10F3
:10097000D0015E2CAA8989CFFD175EACEF10B001C3
:1009800083A74189014591CB22858297014531A0FA
:10099000B24791E7EF1030007955410105B4EF10EF
:1009A000C036232805021034AA85AA841305440101
:1009B0002D37B247635CF0001389C4047000814591
:1009C0004A85EF10806B4A85EF10E05F4E85EF108F
:1009D000807CEF10C00B885845D5C1B7EFF27F9CE3
:1009E00083A701892A8491C38297EF10007AAA8491
:1009F000484893074401630FF5003115EF10204874
:100A000005442685EF10207919C0EF1040080145F4
:100A10006FF07F9B5E2C85075EAC0144DDB7EFF283
:100A20005F98B2842E868D452A84EF00F06E93077E
:100A300044011CCC5CC8B707FF0085075CCC2320B1
:100A4000040204B401456FF01F98EFF2FF934111C7
:100A50002EC62A84EF10602BAA84EF10007383A7A0
:100A600081892A8999C3228582971C5023A8040270
:100A700063819702938A5403130B44019389C4043E
:100A80005D5A5E2C8DC7FD175EAC04D083C754033E
:100A90007CAC7C3C85077CBC4A85EF10C06F83A78B
:100AA0004189014589CF22858297014509A8B2472E
:100AB00091EBF9574A859CD8EF10E06D79554101CB
:100AC0006FF0DF8F085003C75403834755036376E5
:100AD000F70056868945EF1000421034A6855A85E6
:100AE000ED3BB247635AF000700081454E85EF1030
:100AF000C0584E85EF10204D4A85EF10C069EF00B9
:100B00001079885801C5E30E45F755BFEF10E0672F
:100B10002A8959B7EFF25F8741112A84EF10E01E4E
:100B2000AA84EF10806683A70189AA8999C32285C8
:100B300082971C50638B9700FD574E859CD8EF1011
:100B400080657D5541016FF07F877C3C0149FD1731
:100B500093F7F70F7CBC8DEF782C83C754036308A1
:100B6000F7001306E40189452685EF10C0385C487C
:100B7000130744016389E7021385C7FE08D083C7C2
:100B8000170205497CAC7C3C85077CBCEF10202F0C
:100B90004E85EF1040600145E30609FA2AC6EF00D2
:100BA000106F324545B75E2C2320040201498507AA
:100BB0005EACFD577CACE9BFEFF2AFFE4111B284F1
:100BC0002E8695452A8436C63AC4EF00F054224753
:100BD000B246930744011CCC5CC89307840218B446
:100BE00044CC16B023110402232204025CD41CD48A
:100BF000014541016FF02FFDEFF22FF841112A84DA
:100C00002E8A32C6EF10601083A70189AA8999C382
:100C100022858297EF1060573A301E30AA8401492E
:100C20006310F70CB247CDEFEF10E0567555410158
:100C30006FF02FF8B24723A8090299E32685EDB794
:100C40001034CE855A855139B247635DF000EFF01C
:100C50007F942A89700081455685EF1000425685A1
:100C6000EF1060362685EF100053EF00506203A5A9
:100C7000090355FDEF106051B247AA84CA8B635D2A
:100C8000F000EFF03F91B247B30B2541CA9733858F
:100C9000A740634505042AC65E893A301230E30B4B
:100CA000C7F85E30544C939527008507AE96C2076F
:100CB00023A04601C18363FAC7025EB04848050716
:100CC0003AB05104630685023115EF10401B2685AA
:100CD000EF10604CEF00B05B014591BF02C66DBFE5
:100CE000130B8402938AC9044DBF23120402F9B77F
:100CF0002685EF10404ACDB7EFF22FE841112A8444
:100D00002E8A32C6EF10600083A78189AA8999C311
:100D100022858297EF1060473E30AA84639F070CBC
:100D2000B2470149639C070CEF10E0467955410139
:100D30006FF02FE8B24723A8090281EB2685EF1058
:100D40008045F95723A8F902D5B71034CE855A85C6
:100D50006936B247635DF000EFF0DF832A897000E7
:100D600081455685EF1060315685EF10C0252685E8
:100D7000EF106042EF00B05103A509034DF9EF10E9
:100D8000C040B247AA84CA8B635DF000EFF09F8039
:100D9000B247B30B2541CA973385A740634D05047D
:100DA0002AC65E893A3059D77E30544C13962700B4
:100DB000B29694428507C2072320DA001630C18319
:100DC0007EB063E4D7002313040208547D173AB0C1
:100DD000930784026309F5023115EF10400A268556
:100DE000EF10603B83A7418999C322858297EF006A
:100DF000104A01452DBF02C66DB70149130B4401CE
:100E0000938AC90445B72685EF10E03883A7418946
:100E10000145E38E07F022858297E1BFEFF26FD89C
:100E20004111EF1080361387C1851C23850793F786
:100E3000F70F1CA383A7418581C72AC68297324535
:100E4000EF10603541016FF00FD8EFF28FD54111EF
:100E5000EF10A0331387C1851C23FD1793F7F70FFD
:100E60001CA383A7818581C72AC682973245EF10CC
:100E7000803241016FF02FD503C5C1858280937800
:100E800008044111639F0800B7B802009388C83472
:100E900093730801638C03001378E8FF930E00023C
:100EA00021A8B7B802009388882ADDB71373180009
:100EB000930E0003E30403FE13732800630E03067E
:100EC000635806023306C0409302D0020A8E814F57
:100ED000294F6395E6073373D6023356D6024693FD
:100EE00003430300850F050EA30F6EFE7DF20DA0D8
:100EF000137348009302B0026317030093728800D3
:100F0000B3325000960279F2930600035480854F65
:100F1000FE8663D3FF00BE8613781801158F631316
:100F20000804638502006353E0007D172A86B30836
:100F3000E5001303000221A88142F1B71373F60004
:100F4000118271BF6374B600230066000506338802
:100F5000C840E34900FF3A866353070001467D1706
:100F60003295118F638802006374B5002300550029
:100F70007D17050563870302AA96130800031DA8C1
:100F80006374B6002300D60105063388C840E349E0
:100F900000FF3A866353070001467D173295118F93
:100FA000E1BF2A86B308E500CDB76374B50023001E
:100FB000050105053386A640E3C9CFFEFD56FD1F9A
:100FC0006383DF0099E7AA873306E5001308000270
:100FD00031A86376B5003306F101102210A1050592
:100FE000F9BF63F4B700238007018507B306F64015
:100FF000E349D0FE6353070001473A9541018280DF
:10100000EFF22FBA2A848D3D09C523A081866FF0A7
:101010008FBBEF00904F75D900D9D5BF0D47AA8778
:101020006376C7009377350091C7AA873E9663978A
:10103000C706828093F7F50F13978700D98F139710
:1010400007015D8FB308C500AA87BD463388F84005
:1010500063EB060393574600C156B386D702920747
:10106000AA970D4836963383C700BE86B308D3408F
:101070006362180313572600F156B306D7020A0716
:10108000BA97369665B798C3D8C398C7C10723AE39
:10109000E7FE6DBF910623AEE6FEC9BF8507A38FAD
:1010A000B7FE71B763F2A504B386C500637ED502AF
:1010B0009345F6FF8147FD176393F50082803387E0
:1010C000F600030807003387C7002A9723000701AB
:1010D000DDB73387F500830607003307F500850782
:1010E00014A3E318F6FE82808147E5BF0DC6AA87E8
:1010F00085050387F5FF85079306F6FFA38FE7FEB7
:1011000009EB3E9685076393C7008280A38F07FE95
:10111000D5BF3686F1FE828001476314E600814721
:1011200039A8B307E50083860700B387E5009C2351
:10113000B387F640E207E18799E30507F9FE3E85AC
:101140008280AA870387070001E73385A740828052
:101150008507CDBFEFF26FA22E89B30B2501411198
:101160002A8CB68563F5AB001349F5FFFD5BC169B9
:1011700037BA02006284930AB002130B0002FD1911
:10118000130A4A3431A8130750026389E7026373D4
:1011900074011CA013051400B284138614002A8461
:1011A00083070600EDF363060900637C742F2300B8
:1011B00004003305844141016FF0AF9F01481307DC
:1011C000D002930630021305000331A0639E57013D
:1011D0001368480026868307160093041600E397D9
:1011E000E7FE13680801FDB763956701136888007F
:1011F000D5B76395D70013680802E9BF6395A700C8
:1012000013681800C1BF138707FDA54663E6E6040F
:101210000147A546294539A03307A70285043E9713
:10122000130707FD83870400138607FDE3F6C6FE58
:10123000038604009306E002FD57631FD6048387EC
:101240001400254693861400138507FD6365A60ADE
:101250008147254529433DA09306A0027D57E39988
:10126000D7FC9841930426009105E35307FC33070C
:10127000E040136808016DBFB38767028506B29727
:10128000938707FD03860600930806FDE37615FFA6
:1012900063D307008147B684838604001306800663
:1012A000014593F8B6FF6395C80013F5F60F850462
:1012B00003860400930690066303D60663C5C6063C
:1012C000930680056304D61C63C3C60493075002CB
:1012D0006308F61A63757401930750021CA0838794
:1012E0000400130514006387071A637375011CB0AB
:1012F000130524005DB51306A0026397C7009C4147
:1013000093862400910569B7B684814771B7930627
:1013100030066303D60893064006E31DD6FA136829
:101320002800A94699A0930630076304D60C63C52C
:10133000C6029306F0066301D61693060007E31B68
:10134000D6F8FD566315D700136818002147938C13
:101350004500C14690411DA893065007E303D6FC03
:1013600093088007C146E31716F71306C006938C4F
:101370004500E301C5FE13068006E31DC5FC904150
:1013800093752800639C051033763601DE8522852F
:10139000EFF0FFAEE68511B513780801631508027A
:1013A000BA879306000229A06373740114A0050490
:1013B000FD17E34BF0FE9307F7FF6343E00005479B
:1013C0003387E740050793874500637474019441B0
:1013D00014A013051400229713060002B306A740B9
:1013E0006344D000BE8555BB6373750110A105052C
:1013F000F5B783AC0500138D450063930C00D28CC8
:1014000066853EC63AC442C22D3BB247AA86124800
:1014100022476355F00063D3A700BE861378080106
:10142000631E0800BA871306000231A063737401BB
:1014300010A00504BA877D17E3CAF6FE814763C191
:10144000D702B68763D3060081473305F4002A9795
:1014500013060002B307A74063CFF600EA8535BB49
:101460003306F40063777601B385FC0083850500BD
:101470000CA28507E9B76373750110A10505D9BFF3
:101480006373740110A01305140001BB13680804F2
:10149000C146E1BDFD1411B3A146C1BD420641865E
:1014A000F5B5A38F0BFE31B3397136D6741006CE65
:1014B0003AD83EDA42DC46DE36C66939F24021616E
:1014C000828003A541868280EFE2BFED03A94186B9
:1014D000EFF02F9D11CD13844186AA84084019C1D5
:1014E000EFF0AFAB930530042685EFF06FA304C097
:1014F0004A856FE05FED8280397126CA2ED232D4E0
:1015000036D62A8654109305F007138501CF3EDAAC
:1015100036C606CE22CC3AD842DC46DE2539AA862B
:1015200003A5418609E9138501CFF137F2406244F2
:10153000D244216182802686262D1384418693E73A
:1015400004043EAD9307F00763F4D7009306F00759
:10155000138601CF8145EFF0AFA91C40A6AFF9B7C4
:10156000EFE23FE437B502001305C52B713737B5FD
:1015700002001305852C493737B7020037B5020042
:101580001307C72E8D4605468D451305852FAD37AC
:1015900037B502001305853185376FE0DFE239C5C5
:1015A000B7B602001377F50F9386861A09C7BA9665
:1015B000882205058280C167938707F0E98F81CB78
:1015C00021851377F50F3697082325058280B70705
:1015D000FF00E98F81CB41859377F50FB69788237C
:1015E000450582806181369508216505828003A7C3
:1015F000C1865C41BA976305F502B62395E283A6DE
:101600008186638FF6009386018790426313F6000C
:1016100088C2D44354C1DC43B306E540BA9794C7AB
:101620001045B307C700630FF500B62381EE93861C
:1016300001878C426393A5009CC25441D4C35C4192
:101640003E9710C78280EFE2DFD583A5818737B54B
:101650000200130505364D3583A5418837B50200D4
:1016600013054537513D83A5418737B50200130562
:10167000853859356FE03FD5EFE2BFD213F7C5FF8C
:10168000E1462E8663F1E60693073500F19B93064B
:1016900087FE63EAF6041D8F130687FE23ACC1861E
:1016A000896651171384C186938606EAD8C394C30A
:1016B00023A407001CC0BA9723A4F186C9669386A9
:1016C00006EAB7B5020094C3D8C398C78146054659
:1016D00093850542138501D7EFF0CFA5184023A8C5
:1016E000E1866FE05FCEAA8537B50200130585421B
:1016F0002135C5BFEFE2FFCA39C503A781871304AF
:10170000350071981389818781446366870EB147DC
:101710006373F4003144FD55138501D7EFF00FA436
:1017200083A7018783A5C186832809002685338680
:10173000B740B3868840138801876368D600138555
:1017400001D7EFF0AFA981447DA0B384C500BA20D2
:1017500003AE440061E73307CE40930F47FF63EFCA
:101760008F0A138F4188938E418713038401832648
:101770000F0083A30E00138941889382418763EF92
:101780006F061307C4003297896E3383E500938E8A
:101790000EEA2322C3012324C3002320D3010546DC
:1017A000D8C0B2A003264300B108630416012E96E8
:1017B00018C61387C60022972320E90063F4E300CC
:1017C00023A0E2000967130707EA9AA0639A97002B
:1017D00083A681860147B22305EE19C32320F800B2
:1017E000138501D7EFF08F9F83A70188B10481C7CC
:1017F000A2852685829726856FE0FFBC0546369731
:10180000B2A02320EF00E3FFE3FA23A0EE005DBFC8
:10181000E385D7FCDC430547AE9775BF728631BFC1
:10182000EFE23FB83306B5024111328532C6D935F1
:101830002A8409C532468145EFF04FFE22854101D9
:101840006FE07FB845C5EFE23FB483A7C1872A8424
:1018500091C3829783A7C1861389C1866366F40802
:1018600083A781866372F408FD55138501D7EFF0D5
:10187000EF8E835764FF930944FF81CB035744FFE6
:101880008967938707EA6301F70237B502001305FA
:10189000453D9D31835644FF035664FF37B5020032
:1018A000CE851305053F89398967938707EA231A8F
:1018B000F4FE938701879843231B04FE63F4E90039
:1018C00023A03701138741881C43832684FF4E855C
:1018D000958F83260900B386D940B6971CC3013B78
:1018E000138501D7EFF08F8F6FE05FAD8280B70770
:1018F00000209386070001479387070021468C420A
:101900006396A500131547003E9582800507C10622
:10191000E317C7FE01458280EFE21FA72A842E85C8
:10192000AE89328AE9372A89B92C83244900930782
:1019300049006390F404AD2493E909F823043401C9
:101940002146D2852285EFF06FFA83A7818899C35B
:1019500022858297EF007003032749009307C40094
:101960005CC358C42322F90004C8EF00D0026FE022
:10197000FFA484407DBFEFE2DFA283A7C1882A8451
:1019800091C3829723040400EF00300054441848A8
:101990009307C400D8C214C31CC85CC4EF00A07F66
:1019A0006FE07FA2EFE25F9E2E89AA898937AA8421
:1019B000484589332A841DCDD0448145EFF00FE698
:1019C000214623043401A3040400CA852285EFF0D4
:1019D000EFF183A7818899C322858297EF00E07A8F
:1019E000D8409307C40091045CC358C49CC004C889
:1019F000EF00607A22856FE07F9CEFE29F9A83A7D9
:101A0000C1882A8491C3829723040400EF00E07701
:101A1000544418489307C400D8C214C31CC85CC4FB
:101A2000EF0060772285393D6FE0FF99030585005F
:101A30007D8182802394018A938701D913870708C7
:101A4000DCC39CC3A107E39DE7FE3D47238EE188ED
:101A500023A0018A23AA018A9387C18ADCC39CC37D
:101A60008280EFE21F9403A5418BEFF05FB37D15F9
:101A700093173500138501D93E9508411307C5FE1C
:101A8000210523A0E18AEFE0AFF36FE0DF93EFE2FF
:101A90005F91EF00806F8397818A2A89B1E703A560
:101AA000418BEFF0DFAF7D1513173500938701D918
:101AB000BA9784439387018A80439385C4FE630564
:101AC000B4028CC383A7418A238EA18899C322853F
:101AD000829783C7C1851305C4019385840093F75A
:101AE000F70F81EBEFE08FEF4A85EF00C06A6FE000
:101AF0009F8DEF00A06ACDBFEFE2BF8A2A84EF007E
:101B0000C0688347440393064401C19B93E71700D1
:101B1000230AF4028347540313973700938701D9AC
:101B2000BA97D84314C318CCD4C35CC89387418BED
:101B30009443185C558F98C3EF00E0656FE0BF8851
:101B4000EFE23F862A84EF004064184C5448930724
:101B50004401D8C214C35CC81CCC834754031397F8
:101B60003700938701D9BA979843631AF700138710
:101B7000418B1C5C144393C7F7FFF58F1CC3EF0028
:101B800080616FE05F84EFE2DF81EF0000609387A8
:101B9000818A9A2305079AA3EF00E05F6FE0BF8276
:101BA000EFE23F80EF00605E1387818A1E23FD17FE
:101BB000C207C1871EA3634CF00023100700EF008B
:101BC000805D83A7018A91C3D9356FE0CFFFEF0015
:101BD000805CE5BFEFE2EFFC03A4018A7D23AA84C9
:101BE0002285B93F9147230AF4021305C4046D2EE0
:101BF00022852D3D8547631CF5003C5C89EB2285E1
:101C0000EFF07FD72685412B59356FE0CFFB83A6B8
:101C1000C18A1307440123A6E18AD8C29387C18AE7
:101C200054C81CCCC5B7EFE2CFF72A845105411147
:101C300008CC48C80CD050D014D43A8658D4930558
:101C4000300236853EC642C4EFF04FBD58541054A2
:101C50004C5008507117B72600003A96938646BD3F
:101C6000D929B24722483726000048CC230BF4027A
:101C7000A30AF402232C040281472322040523240F
:101C8000040523280402230A0402232C0406232E1D
:101C900004060147A286130646CBA2851305C40499
:101CA000F92483A7818B99C322858297014541013D
:101CB0006FE06FF1EFE2EFEE5049144D795718D90C
:101CC00054C21307450190C218CD58C9EFF0DFE2A6
:101CD000EFF0FFDB6FE02FEFEFE2AFEC4111B284EA
:101CE0002E8685452A84368946C03AC63EC442C2FD
:101CF000EFF09FC2024892472247B2464A86A68525
:101D00002285153741016FE00FEC03A5018A82801F
:101D1000EFE28FE741112E89AA85054532C6B684C8
:101D2000BA893E8AEFF01FC82A8411C92685EFF0D0
:101D30007F9C324609E92285EFF03FCC01442285A1
:101D400041016FE0AFE7AA865288CE872687CA8511
:101D50002285D13DEDB7EFE2CFE4834745032A84E6
:101D6000BD8B99C3EFF0DFDD1305C404352C91471B
:101D7000230AF402192983A6C18A1307440123A662
:101D8000E18AD8C29387C18A54C81CCC2921014555
:101D90006FE06FE3EFE2EFE0CD2E83A7018A054607
:101DA000AA8603C747033D8B631CC702D04B984FDD
:101DB0006308E60258C210C303C65703938647015F
:101DC0000E06138701D994CF3297504314C290CF97
:101DD00054C3D8CBC926EFF09FCB01456FE0AFDEEF
:101DE0003685552EDDBF834745030547BD8B639F71
:101DF000E702EFE20FDB2A84492E83474403AA84DB
:101E00002285C19B93E72700230AF402EFF05FD3FA
:101E10001305C404152C2685BD2E83A7018C01450E
:101E200081C72285829701456FE0EFD97D55828079
:101E3000EFE22FD741112AC6892E03A4018A2A89ED
:101E4000228555379304C4047000814526853524C6
:101E50002685952A4A858126EFF07FC31858F957C1
:101E60006314F70023280402014541016FE0AFD558
:101E7000EFE22FD3EFE0EFF4653F6FE0CFD483477D
:101E800045030947BD8B6390E704EFE28FD12A84B5
:101E9000ED2C5448184C93074401AA84D8C214C3AB
:101EA0001CCC5CC81305C40445222685ED2422857C
:101EB000EFF09FC483A7C18B014581C7228582971C
:101EC00001456FE04FD07D558280EFE28FCD834694
:101ED000650305473317D70018DD0947A30AD50264
:101EE000230AE502693F83A7018A99C3EFF03FBA4D
:101EF00001456FE04FCDEFE22FC90549638D250500
:101F000089476386F500B1C501456FE02FCB2A8470
:101F1000B289A52C834444032A8ABD886392240392
:101F20002285EFF0FFC183C709002285B394F40036
:101F3000A30AF40204DCEFF03FBC5285A92CE9B7F8
:101F400083C709003319F900A30AF402232C2403E0
:101F5000EDB7A53F5DBFEFF01FE045BF5449184DF9
:101F600093074501D8C214C31CCD5CC98280EFE23F
:101F70004FC34111B2842E86A9452A8436C63AC47D
:101F80003EC2EFF07F999247B2462247F99B1CB4BC
:101F90009307440144CC14D02324040258D01CCC11
:101FA0005CC841016FE02FC2EFE2AFBF2A84F12A83
:101FB000AA84228565372685F92A2285EFF0BF9B02
:101FC00001456FE04FC0EFE2CFBD2A847D2AAA848D
:101FD0002285EFF0BFF81C342685F99B1CB4652AD6
:101FE00083A7418999C322858297EFE0AFDA5C50DD
:101FF0003E9508D4592A1387018D032847003706D8
:1020000000809387018D1346E6FF98436315F8021D
:102010009386418C9042050690C29306440154C3B6
:1020200058C894C31CCC1C3493E717001CB4A522D9
:1020300001456FE04FB9544B0C546385B6008D8E4B
:10204000E378D6FCBA87D1B71C35858B8DC7EFE214
:102050004FB583A701892A8491C382973D22AA8420
:102060002285EFF0BFEF26853D221C340145F99B08
:102070001CB46FE04FB57D55828085476381F502C2
:1020800063C5B70085C1014582808947638FF5002C
:102090008D47E39AF5FE1C3593E7270009A85C51AC
:1020A0001CC2D5B71C425CD1F9BF1C35F59B1CB5D1
:1020B000D9BFEFE28FACEFE0EFCD2A8CF920B70962
:1020C00000802A8A9384018D93C9E9FF8D4B80405B
:1020D000631694005285C1206FE0AFAD48481309E4
:1020E000C4FE3305AC40E3E7A9FE83A7818C99C306
:1020F0004A8582974A85EFF07FE61C4448448297E0
:10210000EFE04FC983A7C18C2A8C99C34A85829777
:10211000834754FF13F7E70FA30AE4FE8D8BE39880
:1021200077FB4A85EFF03FEA5DB79387018DDCC30B
:102130009CC3828082801106719A2A8837C7ADDEDF
:10214000130506F8AA871307F7EE631EF600A167CA
:10215000938707882322D6F82324B6FA232006F98A
:102160002324F6F8828098C39107C5B737F700E0BB
:102170001C43B7060080D58F1CC3828037F700E070
:102180001C43860785831CC3828021651305058057
:10219000731505308280731005308280EFE26FA0E6
:1021A0001387018E18439387018E19E323ACA18C0A
:1021B00023AEB18C054798C3EFF05FFB6FE0AFA093
:1021C0002A87814718436314A7003E8582808507CC
:1021D000D5BFB707EFBE37E700E0938707083CC7D6
:1021E00001458280EFE2EF9B37B5020013054546BB
:1021F000EFF08FB001456FE00F9DEFE28F9A2A84D8
:10220000FD5437C902007D14631494006FE0AF9B46
:102210001305C9BCEFF04FAEFDB7EFE2EF960041FA
:10222000AA8437C90200B7C90200631494006FE0A2
:10223000EF989305C4FE130509BDEFF0EFAB1C400A
:1022400063869700138549BDEFF00FAB0040F1BFE7
:10225000EFE22F952E89EFE0DFEE2A84EFF0BF92B8
:1022600083240900639C2401EFF09F93A14763C37B
:10227000870011E0214422856FE0EF94138544FF2D
:10228000EFE03FEC6353A4002A848440E1BFEFE217
:10229000CF8E0545EFF0AFE5B7B902001309450051
:1022A0002A84CA8513858971EFF09FFAAA85AA84CA
:1022B00037B502001386897113050572EFF0CFA3BD
:1022C0002685EFF09FF337B5020013054576EFF052
:1022D000AFA24040B7B90200054A894A37BB0200A5
:1022E000B7BB020037BC0200B7BC020037BD02001A
:1022F0006315890001456FE0CF8B03479402138576
:10230000497A930644FF2146A685EFF0EF9E834766
:10231000840213850C7BBD8B638E47011305CC7B38
:10232000638A570113858B7C91C711476396E70039
:1023300013054B7DEFF04F9C4C4C93073002AE865B
:1023400098226306F7021050930740060848B2959A
:10235000B386D540B386F602585C5C50898D130570
:102360000D7EB3D6C602EFF02F99004051B7850617
:10237000C1BFEFE26F8141110945EFF04FD79309DB
:10238000450037B902002A84CE851305896BEFF02A
:102390003FECAA85AA8437B502001306896B1305A2
:1023A000456CEFF06F952685EFF03FE537B50200FD
:1023B0001305056EEFF04F94404037BA0200B7BAEC
:1023C0000200370B030063968900014541016FD07D
:1023D000FFFE1A281C44930644FF1309840036C6E6
:1023E0003AC44A856306F902EFF09FDD2247B24600
:1023F000AA872146A68513858A6FEFF0EF8F4A855D
:10240000EFF0BFE11305CB70EFF00F8F004065BF19
:10241000EFF01FDB2247B246AA872146A6851305A7
:102420008A70EFF06F8DDDB7EFD21FF641111145C5
:10243000EFF0EFCB9309450037B902002A84CE852F
:102440001305C94FEFF0DFE0AA85AA8437B5020073
:102450001306C94F13054550EFF00F8A2685EFF09C
:10246000DFD937B5020013058552EFF0EF88404001
:1024700037BA0200B7BA0200370B0300639689002F
:10248000014541016FD09FF31C441309840093065A
:1024900044FF18486309F9024A8536C63AC4EFF08A
:1024A0003FD22247B246AA872146A68513858A5481
:1024B000EFF08F844A85EFF05FD61305CB70EFF015
:1024C000AF83004065BF2146A68513050A56EFF08D
:1024D000AF82C5BFEFD25FEB41110D45EFF02FC1C9
:1024E000B7B90200130945002A84CA8513854965D6
:1024F000EFF01FD6AA85AA8437B502001386496576
:102500001305C565EFE05FFF2685EFF01FCF37B5F8
:10251000020013050568EFE03FFE4040B7B9020036
:1025200063168900014541016FD05FE9930644FFBE
:102530001305840036C6EFF0BFC8034834015C4879
:10254000B246AA8821472146A6851385096AEFE08D
:10255000BFFA0040F1B7EFD23FE341111545EFF06C
:102560000FB99309450037B902002A84CE851305B7
:102570004957EFF0FFCDAA85AA8437B502001306AC
:1025800049571305C557EFE03FF72685EFF0FFC623
:1025900037B502001305055AEFE01FF6404037BA81
:1025A0000200B7BA0200370B0300639689000145A9
:1025B00041016FD0BFE07A285E281044930644FFA3
:1025C0001309840036C63AC43EC24A856307C9026D
:1025D000EFF01FBF92472247B2462A882146A685C0
:1025E0001385CA5BEFE05FF14A85EFF01FC3130567
:1025F000CB70EFE07FF000404DBFEFF07FBC924723
:102600002247B2462A882146A68513054A5DEFE097
:10261000BFEED5B7EFD25FD741111945EFF02FAD1F
:102620009309450037B902002A84CE851305C95E97
:10263000EFF01FC2AA85AA8437B502001306C95E4F
:102640001305855FEFE05FEB2685EFF01FBB37B525
:10265000020013054561EFE03FEA404037BA02004F
:10266000B7BA0200370B03006396890001454101A8
:102670006FD0DFD41A2C1C44930644FF1309840046
:1026800036C63AC44A856306F902EFF07FB32247A3
:10269000B246AA872146A6851385CA62EFE0DFE528
:1026A0004A85EFF09FB71305CB70EFE0FFE40040E1
:1026B00065BFEFF0FFB02247B246AA872146A68544
:1026C00013050A64EFE05FE3DDB7EFD2FFCB5D7186
:1026D0002545EFF0CFA1B7B50200130600052A8407
:1026E000130945009385050F0A85EF703270B7B95D
:1026F0000200CA8513854949EFF09FB5AA85AA84CF
:1027000037B50200138649491305C549EFE0DFDEFE
:102710002685EFF09FAE37B502001305454CEFE07C
:10272000BFDD4040D14937BA020063168900014538
:1027300061616FD0BFC81C44930644FF63E0F90297
:1027400098088A07BA9703A707FB1C282146A68585
:1027500013058A4EEFE05FDA0040C1BF4647F5B788
:10276000EFD29FC22945EFF08F98B7C90200130935
:1027700045002A84CA8513858980EFF07FADAA853C
:10278000AA8437C502001386898013050581EFE00E
:10279000BFD62685EFF07FA637C5020013058583D7
:1027A000EFE09FD54040B7C9020037CA0200B7CA60
:1027B0000200631E8900EFD0FFDDAA8537C5020045
:1027C00013050589EFE05FD301456FD03FBF5C4C37
:1027D000184C1385C985930644FF2146A685EFE072
:1027E000BFD18347D4FF13854A87858B99E31305AF
:1027F0000A88EFE07FD000406DBFEFD2FFB837B559
:1028000002001305C546EFE03FCF03A4818EB7B9A0
:10281000020037BA020083A7C18E6365F400014548
:102820006FD0DFB904400946938509482685EF80BB
:10283000822E19C55040A68513054A48EFE0DFCB2C
:102840003104D1BFEFD25FB437C50200130505D301
:10285000EFE09FCA03A4818EB7C9020037CA020005
:1028600083A7C18E636BF400370503001305C570A1
:10287000EFE09FC801456FD07FB4044019469385AF
:10288000C9D42685EF80222901E950409385640050
:1028900013054AD5EFE05FC63104D9B705458280FC
:1028A000EFD29FAE79712A84AA959306000225473C
:1028B00083070400B38485406385D70A6383E70AEE
:1028C0000145638B0410014913070002A546B307B5
:1028D000240183870700638AE7086388D7086314A5
:1028E000990883A9818E83AAC18E37CB020063F039
:1028F000590903AA090019469305CBD45285EF80E4
:10290000822159E54A86A28513056A00EF80A2203C
:1029100041E14A9A83076A00A5EF83A98900638889
:1029200009041306800281452800EFD09FAA1309ED
:102930008100CA86A2870145014713080002A54805
:10294000294313062002130EC00583850700638404
:10295000050163961505631F9702A9476303F504F4
:1029600069A80504B1B705099DB7E31C09F6A2875C
:10297000038707001377F7FD79E737C502001305D2
:1029800085D123800700A285EFE01FB77D55A9A060
:10299000B109B1BF23800700050785077DB7631024
:1029A000650437C50200130545CFEFE0FFB40018FA
:1029B000B7C4020083250900138544D11109EFE053
:1029C000BFB3E31989FE370503001305C570EFE0B7
:1029D000BFB229452C00829945616FD03F9E637E2E
:1029E000970005056392C504850705079CC283858A
:1029F00007006381C5026364970069FD8DBF838E04
:102A000017006396C5016394CE0085070507850707
:102A10000507F1BFE37397FE2380070005078507CD
:102A20009106E36497F2D1BF9CC283850700638956
:102A3000050163871501E30297FC85070507F5B7D4
:102A4000E36097FE5DBF850725B7EFD21F9383072D
:102A5000050099E781450145EFF0DFDE6FD07F95F6
:102A600003AA818EAA898144014937CB0200B7CBE2
:102A7000020083A7C18E6369FA00EDD04A86A6855D
:102A80004E85EFE0AFE6D9BF03240A00194693054F
:102A9000CBD42285EF80220821E14E85EF8082068B
:102AA00019042A86A2854E85EF80E20615E5631794
:102AB00009002285EF8002052A89A284A687228741
:102AC0000386070001EE858F63D327013E89A28527
:102AD0001385CBD5EFE05FA2310A61BF8306070003
:102AE000FDD2E312D6FE85070507D9BFEFD27F8B53
:102AF000EFF0EFF901456FD01F8DEFD29F8AEFE025
:102B00009FB401456FD03F8CEFD2BF8903A5418EA2
:102B1000EFD0DFEC01456FD01F8BEFD29F88B71746
:102B200003009387472823A4F18EB71703009387E8
:102B3000473D23A6F18EB71703009387473D23A88F
:102B4000F18EB71703009387473D93050021054594
:102B500023AAF18E1384418EEFE09FCC08C019E9BF
:102B600037C50200130505E1EFE01F997D5422856A
:102B70006FD07F85B735000037C50200A9472D47C4
:102B80009306004001469385A5C9130585E2EFF041
:102B90002F98AA840840B7C5020081460146938554
:102BA00005E3EFD03FD90144F9D02685EFF0EFB12E
:102BB0007DBFEFD20FFFEFF07FCE0DC5B7C502008E
:102BC0009385C5DD138501E1EF70D272B7C50200B0
:102BD0009385C5DE138501E1EF70F26F138501E186
:102BE0006FD06FFEB7C50200938545DEE1BFEFD21F
:102BF0004FFB2A8437C502001305C5E4EFE0DF8FE1
:102C0000EFF03FFBAA8537C502001306A41B13058E
:102C100045E5EFE07F8E01456FD0EFFAEFD26FF818
:102C200041112AC6EFD0FFA7B24511E937C502000E
:102C3000130505DFEFE05F8C41016FD0CFF883A76C
:102C4000418EAA841384418E83A7C720E386A7FE02
:102C500093053014EFD0DFAC65F11C4003A5C7200D
:102C600009C9EFD09FB31C40814503A5C720EFD011
:102C70001FBA00401306000581451305A41BEFD0C1
:102C80004FF5B735000023150420232694209385A3
:102C900085B02685EFD0BFB745B7EFD28FED83A7BC
:102CA000418E41119384418E03C747021367170079
:102CB0002382E70283A7C72091E7EFE09F8019C135
:102CC000EFF0DFF5EFF0FFEEEFE01F8337CB020010
:102CD000B7CB0200B7C90200370A0300B7CA020027
:102CE00037CC0200B7CC02009C4085461306F100A9
:102CF00003A5C720FD55EFD0DFAD8547631AF5006A
:102D00000309F100ED4780406319F90008D0E9BFDD
:102D10008840FD55EFD09FC4C1BF1C506392A702ED
:102D20009307B0056315F90089471CD075BF2320B0
:102D30000402E30B09FAA5476314F9120149D1A86B
:102D40000947E398E7FE2320040293071004631267
:102D5000F9046E30D1D9FD15C205C1816EB093075B
:102D6000A41B13070005B385E502130600053E8585
:102D70009385A502A295EF707207EF70B258137594
:102D8000F50F2305A420A305A4202285EFF03FE63C
:102D9000A1BF930720046311F90216347E30138714
:102DA000F6FF63D8E70085077EB09307A41B6E305B
:102DB0004DBF9DDA7AB0D5BF930740046310F90286
:102DC0008347B42095D3138589E3EFE0EFF2984071
:102DD0008347B720FD17A305F72039B793073004C1
:102DE000E319F9F48347B4200347A420E3FEE7EE98
:102DF0003E948305A41B1385CAE3EFE0EFEF9840F0
:102E00008347B7208507C1BF138589E3EFE0CFEE85
:102E1000050980408347B420E348F9FE1305CA70D2
:102E2000EFE08FEDEFF09FA785471304A41B631518
:102E3000F5002285EFF07FC1EFF0BFD72286AA858B
:102E400013854CE5EFE04FEB80401305A41BEF70BA
:102E5000724B1375F50F2305A420A305A42069B5B3
:102E60009307F0076305F900A1476315F908834745
:102E7000B420E38B07E60346A420FD1793F7F70F72
:102E80007D161376F60F2305C420A305F42063F8FE
:102E9000C7049385B71B1385A71B1D8EA29522958A
:102EA000EFE04FA09C4013850BE403C7A7203E979B
:102EB000230D071A83C5B7209385A51BBE95EFE0A8
:102EC000AFE39C4003C4B7209C4083C7A720E3CD59
:102ED00087E0138589E3EFE02FE20504F5B71305DA
:102EE0008BE4EFE06FE19C4003C7A720BA97238DE6
:102EF000071ADDBB35478347A4206305E90029474E
:102F0000631EE90EB9CB035984029147130DA41B2C
:102F100063FB2709930DA41613060005EA856E8549
:102F2000EF70826A1DC91309A4024A8513090905B5
:102F300013060005CA85EF70626BE3982DFF130638
:102F4000000581456E85EFD0CFC80346A420EA85F1
:102F50006E85EF70A26995471EB41E347EB0EFF007
:102F6000FF9385476312F5029C4083C74702858B18
:102F700089C71305CA70EFE02FD888408345A52084
:102F80001305A51BEFF0DF91EFF0BFC2EFE0CFD646
:102F900080401306000581451305A41BEFD06FC3C5
:102FA0002315042091B3630109021305F9FF930768
:102FB00000053305F50213060005EA851305A50291
:102FC0002295EF70626051D9930D00053305B90366
:102FD0001306000581451305A5022295EFD06FBFAA
:102FE0000A340346A420EA853305B5031305A50278
:102FF0002295EF70A25F1E348507B9BF1307F00456
:103000006374F700230504200346B4208347A420FB
:103010006370F6089305A61B1305B61BA2953386AD
:10302000C7402295EFE00F888C4083C7B5203387D7
:10303000F500230D271B03C74502058B01CB9387A2
:10304000A71BBE9513050CBDEFE00FCB9C4003C43E
:10305000B7209C4083C7A7206346F402984083476B
:10306000A7208346B7208507850693F7F70FA305AA
:10307000D7202305F7209306F004E3F7F6C62315BF
:1030800007209DB1138589E3EFE00FC70504D1B791
:10309000A297238D271B83474402858BE1D3CA85E2
:1030A0001385CAE3EFE04FC555BF7C4123280504D3
:1030B000232A05049C4381CBEFD2AFAE9305850450
:1030C00082976FD04FB001458280EFD2EFAB368947
:1030D0009DCAAA843284B309D600294A1C20639B66
:1030E0004701BE2C93F7070491C7FC40B5452685E0
:1030F0009C478297FC408305040026859C47050475
:103100008297E31D34FD4A856FD04FABEFD26FA994
:1031100093F705102A8491C71A2D6155137707106C
:1031200035CF13F7054011C71A2C615513770740A7
:1031300035C713F705049304000401E7262C93F424
:103140000404384893F5F50F2EAC39EBA1C7684459
:103150002981420541813105EFE0CFD970442A89A8
:10316000310529824206418281452320A900EFD002
:10317000FFEA232209003E2C2324090023282405EA
:1031800093E707103EAC7C4013060010C145DC43BA
:10319000228582973E2C0145DD8C26AC6FD0AFA2F4
:1031A000F5DB93E505102EACF5B70948AA876381D6
:1031B0000503EFD20F9F0D4863820503054763990E
:1031C000E5041A2D1377F7FD1AAD01456FD0AF9FB7
:1031D0001A2D136707021AAD01458280328775D612
:1031E000504274454C2D2982A9824206C206418272
:1031F000C1826304D6001D45F1F91443B4C754439A
:10320000F4C7E1D5F443BA853E859442829675BFF2
:103210007C41DC4382975DBFEFD20F973684B1CA01
:103220003E2DAA89328993F70710B6849DE37D5A13
:10323000A94A83A749044E85DC4782976309450163
:103240002300A900FD14050963035501FDF0058C59
:103250000DA02449368A854AEFE03FF3FE20DA20AC
:103260002A869444631AF70081EAEFE0DFF2330420
:10327000444122856FD08F9498403E97034B0700BE
:1032800003A7C9048507C2072983C1834207FEA09B
:10329000418363E4E700239304006394560123A46D
:1032A00004003285EFE03FEF7D1A23006901050934
:1032B000E3140AFA6DBF582D854763ECE7023E2DF3
:1032C00093F707109DC7EFD2CF8D2A842849EFE0EE
:1032D0006FD73E2C232804041306001093F7F7EF52
:1032E0003EAC7C40C5452285DC43829701456FD0CA
:1032F0008F8D01458280EFD2CF8A373700001307C8
:10330000A70A18D5373700001307C71058D5373725
:1033100000001307672B18D93737000013078721E0
:1033200058D9373700001307A70C18DD37370000CE
:103330001307A71A420658DD34C14182232A05002B
:103340002320050223220502EFD04FBA6FD0AF87AA
:1033500093F5F50F85476391F50AEFD2EF82204987
:103360004111AA847D598549FC402685DC47829716
:103370002A8A63072505EFE05FE15A201C40BA97CF
:10338000238047015E20F8448507C2072983C18353
:1033900042075EA0418363E4E70023120400762025
:1033A0005E20639CD7008507C207C1837EA02324CB
:1033B000340163E4E70023130400EFE0DFDD6DB7C1
:1033C0009C5085C3EFE07FDC5A206E20636EB7000F
:1033D000B305B7402EC6EFE01FDC9C50B2452685F2
:1033E000829741016FC09FFDFC44998DA983C2075C
:1033F000C183B385B740F9BF828001CEEFC27FFAA7
:103400007841B2878E2318433222029701456FC05C
:103410009FFB7D558280EFC2DFF8138741E9784337
:103420002E86AA851843138541E902976FC0BFF91C
:10343000EFC23FF7138741E978432E86AA855843A8
:10344000138541E902976FC01FF8EFC29FF51387FC
:1034500041E97843AA85138541E9184702976FC06F
:103460009FF605C611476392E602EFC29FF37C41C7
:103470000E2241119C4736C632C482972246B2467C
:103480002AA2368541016FC01FF4814636858280AD
:103490001DC2B28711466390C602EFC29FF0784109
:1034A000B2238E235843411136C60297B2464101DA
:1034B00036856FC05FF1814636858280EFC27FEE30
:1034C000938741E94947D8CB373700001307274690
:1034D000D8DB373700001307074998DF373700007C
:1034E0001307A73FECC3B0C3AA850D46138541E976
:1034F00023A0070223A2070223A4070223A6070290
:1035000023A80702D8DFEFD06F9E01456FC0BFEB45
:10351000371500201305458F82803775002013056D
:10352000458F8280EFC2FFE703A781829307803E29
:10353000C1563357F702B7E700E02386D740238709
:10354000D740856623A0D710916623A0D710B7F780
:1035500000E023A0070023A20700014690C7814690
:10356000D4C781461306F7FF90CBD4CB3D4798C311
:10357000EFD0AF88EFF0DFF92A84EFF01FFAAA85C9
:103580002285EFE06F8F37C502001305C5ECEFD041
:10359000BFF36FC05FE373110134EFD03F88B7F71B
:1035A00000E023A20700EFC05FFF0545EFB0106EFB
:1035B000EFD0BF897311013473002030EFC27FDE7A
:1035C0004946EF10521A420541856FC0DFDFEFC256
:1035D0005FDD4D46EF103219420541856FC0BFDEF9
:1035E000EFC23FDC4146EF101218420541856FC023
:1035F0009FDDEFC21FDB4546EF10F2164205418505
:103600006FC07FDCEFC27FD7AE8981452A84328AC2
:10361000EFF0DFFAAA8481452285EFF05FFBAA8BE9
:1036200081452285EFF0DFFB81452A892285EFF075
:103630005FFC2A8B2285EFF0610A058DB30A754184
:103640002285EFF0A10A330525413305654163DF8B
:10365000AA022285EFF08108B3079540B38777412E
:103660000945B3C7A7025628B69476283699C207EB
:10367000C187139707014183BA943A99239099001F
:10368000239129012310FA006FC0BFD22285EFF0E9
:10369000E105B3072541B3876741D9B7EFC27FD0B2
:1036A000B7078700DCD19387E7109CD5B707008068
:1036B0009387D702DCD5B70764009CD983C745033D
:1036C0002E84C19B93E78700238AF5029307002D80
:1036D000FEB9EFB0B05C1E3408DC89455EBC2285C3
:1036E000EFD05155228593050030EFD0F15BB54501
:1036F0002285EFF041756FC01FCDEFC29FCA011147
:103700002A842EC432C2B684EFF0217045C9124615
:10371000A2456385C50A9307801663F6B7009385B3
:1037200085E9C205C1819307801663F7C7001307B7
:1037300086E91316070141825A3093078016BA951D
:103740009396050132974207C182418363F6D70001
:10375000938686E9C206C1829307801663F6E70066
:10376000130787E942074183130621014C0822858C
:103770003AC636C4EFF01FE913060005A685228578
:10378000EF10627E93170501C18713061005A68509
:1037900022853EC2EF10227D3338A00083156101DF
:1037A0000315410192473247A246B0819308810137
:1037B000EF90511A2C082285EFF0211D05616FC092
:1037C0009FC0EFC29FBBB28AAE8913060005B70542
:1037D0000200AA84368BEF100279131A0501135ADE
:1037E0000A410947334AEA0283C74403C230998B2E
:1037F000420A135A0A01B38A4A41C20A93DA0A41B9
:1038000099E39E3429A09146639ED708FE303E94EA
:10381000420441801305A40542054185EF90C0266E
:103820002A89131504014185EF9000262A84B705E3
:1038300003002685EFF09FD82A8CB7050300268564
:10384000EFF0FFD8AA8CB70503002685EFF05FD90B
:10385000AA8BB70503002685EFF0BFD933075903BC
:1038600003D90900529CD29CD29B5295B3075403B2
:1038700003D429003D874A9742074183330C87418F
:10388000669723108B012312EB00BD87A297C20716
:10389000C183B38B7741AA9723117B012313FB00CC
:1038A0006FC03FB1E398E7F6039704030396240340
:1038B0008396E4023297B347F702E3D4F6F4B9B73C
:1038C000EFC23FAE4111130621004C002A84EFF0F5
:1038D0007FD30316210034004C002285EFF07FEEE9
:1038E0002C002285EFF0610A41016FC0DFADEFC20D
:1038F0005FABAA8537C50200130545EDEFE0010C6B
:103900002A84EFE0E11F22856FC0FFABEFC27FA9E1
:1039100093078016AA842E8463F6B700138485E982
:10392000420441809E34EE303387B7404207818F96
:103930004183C20713160701C1839396070141868D
:10394000C1866357060013078716131607014186C1
:1039500063D706009387871693960701C18633873E
:10396000C6409357F7413D8F1D8F9307400B63DE91
:10397000E7002685EFF081042685EFF07FF42685A9
:10398000E2B0EFF0FFF36FC01FA463D9C600B70623
:10399000020022862685EFF05FD6F9BFE35ED6FCF3
:1039A0002E86B7060200A285F5B7EFC29F9F930748
:1039B0008016AA842E8463F6B700138485E9420436
:1039C0004180FE308E343387F5404207B307F44020
:1039D0004183C20713160701C183939607014186ED
:1039E000C186635706001307871613160701418621
:1039F00063D706009387871693960701C18633879E
:103A0000C6409357F7413D8F1D8F9307400B63DEF0
:103A1000E7002685EFE0917A2685EFF07FEA26859C
:103A200082B4EFF0FFE96FC01F9A63DAC6002E86FA
:103A3000B7060200A2852685EFF03FCCF1BFE35D1B
:103A4000D6FCB70602002286FDB7EFC29F95AE8472
:103A5000B2852A84EFF07FF5A6852285EFF01FEB73
:103A60006FC07F96EFC25F922A840315E502E1776B
:103A70006306F5025A3436346376D7001307871687
:103A8000420741835C584207054685838D8B4187F9
:103A90006388C700DDC709466383C7086FC01F92EC
:103AA00083150403031624030948B384E600B3878F
:103AB000C500B3C70703B3C404039398070193D8A1
:103AC000084113980401C20413580841C180635788
:103AD000150342873E86EF90801893150501131950
:103AE0000501C1812285EFF07FE213590941A685C6
:103AF0002285EFF09FEB231E24034DB7BE85C286BF
:103B0000EF90E015AA8913190501A6852285EFF02B
:103B1000FFDF9395090113590941C181D1BF0316F4
:103B2000240383150403EF90801352341319050105
:103B30009315050113590941C1812285EFF0FFF06A
:103B40005DBF0316240383150403EF90401113197E
:103B50000501131605011359094141822E34F1BFA5
:103B6000EFC23F8493078016AA842E8463F6B700C1
:103B7000138485E942044180DE34AE343387B74094
:103B80004207818F4183C20713160701C1839396B1
:103B900007014186C186635706001307871613166F
:103BA0000701418663D7060093878716939607011E
:103BB000C1863387C6409357F7413D8F1D8F9307CA
:103BC000400B63DBE7002685EFE0515FA2B426855A
:103BD000EFF05FE96FC02FFF63D8C60081462286F1
:103BE0002685EFF09FB1DDB7E352D6FE2E868146E3
:103BF000A285FDB7EFC2EFFA93078016AA842E8440
:103C000063F6B700138485E942044180BE34CE34A4
:103C10003387F5404207B307F4404183C2071316C8
:103C20000701C183939607014186C1866357060049
:103C30001307871613160701418663D7060093877B
:103C4000871693960701C1863387C6409357F7417D
:103C50003D8F1D8F9307400B63DBE7002685EFE068
:103C6000F155C2B42685EFF0FFDF6FC0CFF563D901
:103C7000C6002E868146A2852685EFF01FA8D5B7FF
:103C8000E351D6FE81462286C5BFEFC28FF1AE84D6
:103C9000B2852A84EFF01FF6A6852285EFF05FEC4F
:103CA0006FC06FF2EFC2EFEF4EB1EFE031516FC076
:103CB0008FF18316E502638FB6023A399317070135
:103CC000C18763D3F5002E871E391316070141867D
:103CD00093950701C18563D3C500BA871397070180
:103CE00041876389E600EFC2CFEB7EB5EFF09FD747
:103CF0006FC06FED8280EFC22FE937CA02003571C5
:103D000013054AED2E89EFC0B1038547631CF50604
:103D1000AA8A4A85EFC0D11EAA894A85EFC0D11D63
:103D2000AA844A85EFC0511D89472A846396F924E5
:103D3000EFC0B15B2A8939C5EFC0915B63145505AB
:103D40000C104A85EFC071671008AC082685EFF0AB
:103D50007F8B8357010203578105998F2310F1024E
:103D60000357A10583572102998F2311F10283473D
:103D70004403858B99CB8315010203152102B3E718
:103D8000A500D1EF0D616FC06FE3B7050200130608
:103D900000052685EF10221DB8809319050193D9DF
:103DA00009012A8933073741C1652685F880EFD09C
:103DB000A17A31C5BC80B3873741C207C187635E32
:103DC000F004FC808316210283170102031701010E
:103DD000B386D602B387F7023307E702B697635B71
:103DE000F7008347440393E71700230AF402EFB078
:103DF000E06A08DC83474403858BC9D7ADBF8317CE
:103E0000010111471316090133C7E7024186BA863B
:103E10006353C700CA86958F4DB785475DB78359F1
:103E2000C4023E3463F7F90093898916C20993D915
:103E30000901EF8090523E345A30139A0901135A07
:103E40000A413E97198D4205418113190501135905
:103E50000941635809001305851613190501135903
:103E600009415A3CB389F940C209B30AF740998F16
:103E7000C207C18333872701420741879356F74121
:103E8000358FC20A158F9306801193D9094193DAB1
:103E90000A0163DEE608034744030149218B11E36D
:103EA0004E89085CCA9713990701EFB080607E388D
:103EB000135909413385A7029307803E3355F50214
:103EC00093170501C18763CC27013307F040CA87E8
:103ED0006357E9003305A04093170501C1872E34CD
:103EE00003172403831604033305BA400E05330673
:103EF000D7403345C502AE9A52868319E4021105B4
:103F0000118556953E9542054185EF805055839722
:103F1000E402131905011359094163982703831714
:103F2000040363962705EFB0605708DCA1BD09477D
:103F3000B3C9E90203474403635739011367870094
:103F4000230AE402B9BF5D9BE5BFEFB0205508DC52
:103F5000CA852685EFF0FFD5E38329FD0146F145AB
:103F60002685EFC0C1758547E31EF5E04DBF831779
:103F70002403E39927E145BFA1476385F9008D47F5
:103F8000639CF902834744032685F99B230AF402C4
:103F9000EFD0215E2A84EFC07134AA84EFC0F134DF
:103FA000EFC011359147E31FF5DCE38D04DC81455B
:103FB0002285EFC0D12DF9B3B5476397F9044A853F
:103FC000EFC081748307050045470319E40293F6A7
:103FD000D7FF6393E602EE348505C205C1852685C9
:103FE000EFF03FCD8317E402E38E27D90146F14578
:103FF0002685EFC0C16C79B3B91793F7D70FE39358
:1040000007D8EE34FD15D1BFC5476398F90A4A8534
:10401000EFC0816F2A8910080C102685EFF08FDE23
:104020009C44014499C3039447011306000581454C
:1040300026854204EF0032734180BC8022959314A0
:104040000501C1808355010203562102B3869740C2
:10405000B387F440C206C207C182C1833387C6005A
:10406000F4803E96AE96BE954207C2064206C20551
:104070004186C185A8084187C186EF7050758325A8
:104080000900A1691386F9FFA808EF80000C01C59B
:1040900023020900C5B93306940042064186B28561
:1040A000A808EF709076832509001386F9FFA80809
:1040B000EF80A0092302A900F1B1CD47639FF90A5F
:1040C00081452685EFF08FCF2A8A81452685EFF03E
:1040D0000FD08145AA892685EFF08FD02A848145AB
:1040E0002685EFF00FD1D28763533A01CE8713971D
:1040F0000701418763538700A28713970701418710
:104100006353A700AA87B705030026851394070108
:10411000EFF0CFCAAA8AB70503002685EFF02FCBB0
:10412000B70503002A8A2685EFF08FCBB705030079
:10413000AA892685EFF0EFCBAA844A85EFC0C15C3F
:104140004184568763D34A01528793170701C18779
:1041500063D337014E8793170701C18763D3970055
:10416000268793072700C20703170500C187818FA1
:1041700063D3E700BA871EA131B1D547E394F9C0F4
:104180004A85EFC061572A844A85EFC0C1602A89F9
:10419000130621004C002285EFF0CFC6CA85A8087F
:1041A000EFE0E11983172100130A4AED635EF00482
:1041B00004082685EF803176268681452285EFD05A
:1041C000D17A5C00BEDE3C81B008E9452285231A25
:1041D000F10802C7D2CE82D0A6DCEFC0414E5A30E1
:1041E00036345E345000A685BA9736978356410917
:1041F000C20742074A85C1834183EF805173B008EB
:10420000ED452285EFC0A14BB70502002285EFF0F6
:10421000EFBAAA8AB70502002285EFF04FBBB705B7
:104220000200AA892285EFF0AFBBAA84B70502007D
:104230002285EFF00FBCD68763D33A01CE87139760
:104240000701418763539700A687139707014187AA
:104250006353A700AA872481B387F440939407018E
:10426000C18463599006930901014E85EF80B16ABC
:104270004E86B70502002285EFD0316FB7070200E6
:104280003EC78547BED0B0085C00E9452285BEDE4A
:10429000D2CE231A9108CEDCEFC0614283164109C9
:1042A0008317210163D3F600F4815A3072301E3433
:1042B000C206CE85BA973297C207420750004A8598
:1042C000C1834183C182EF809166B008ED452285AC
:1042D000EFC0E13E0316210093098100CE864C0019
:1042E0002285EFF00FCE04102685EFA0716626869A
:1042F000B70503002285EFD0710EB70703003EC754
:10430000B0088947E9452285BED0D2CECED2A6D408
:10431000EFC0E13A4E86A6854A85EFA0B168B008A5
:10432000ED452285F9B1831705036396B70083171E
:1043300025036384C702EFC2CF868317E5020EB957
:1043400032B963D3B7006EB58317E5026353F60045
:1043500072B5EFF02FF16FC00F8782805E210A21C6
:1043600085073385A7404205418582807E212A2129
:1043700085073385A740420541858280EFC26F8261
:104380002E841305C4038145EF7030248145130545
:10439000C404EF7090236FC00F83EFC28F801C4165
:1043A0007D578843D8C71307C5036398E7009C4728
:1043B0005CD1EFE0A1606FC00F811307C504E39AE1
:1043C000E7FE9C471CD9F5B7EFB2BFFD4CC50841CD
:1043D000EFE0C15E6FB03FFFEFB2BFFC5D712A84BA
:1043E0000CC23685814536C6EF70301E0808EF7066
:1043F000101AB74700009387873CB2463ECA93071E
:1044000000103EDAB74700009387A739130660060D
:104410008145228536C83ECE02D602D8EF00B2349E
:104420002ADC0808EF70102061616FB0DFF9EFB28D
:104430005FF451712A84EFC0212CAA8C2285EFC031
:1044400081352AC22C106685EFE0211D2946814561
:104450006685EF005231AA842D4681456685EF00BE
:104460009230835581020356A102C204C1804205E5
:104470003387954041812314E1023307A6408356D8
:10448000C1022315E1020357E102A696C2062A974C
:104490004207C1824183850413041500B6943A94FF
:1044A0002316D10283C6CC05118C2317E10203A683
:1044B000CC0203A78C028D8CC20442048D8A8545F0
:1044C000C18441843303E640814A639CB600635A49
:1044D00007006358C00083AA0C03B38AEA4093BA6A
:1044E0001A004946814566851AC4EF00D2272A8BF7
:1044F0004D4681456685EF001227AA8B41468145CE
:104500006685EF0052262A8C454681456685EF0078
:1045100092258315A1020317C1028316E1020356F7
:104520008102420BC20B420C931D0501135B0B0170
:1045300093DB0B01135C0C0193DD0D015A963307DD
:104540007741E295B386B64142064207C205C206EC
:1045500041824183C181C182239ACC02239CEC0217
:10456000239BBC02239DDC02138A4C03224363C8B5
:10457000840685068D8EC206C1860D476341D7022B
:1045800009473347E40283D66C01369742074183DB
:104590009306E7FF0907239BDC02239DEC0283D9E6
:1045A0008C0303D74C0303D9AC038509B389E940D5
:1045B00003D76C030509C2093309E940420993D9BD
:1045C00009411359094163D38412374E00001388FF
:1045D0006C039386AC03CA88130ECE3605A205077A
:1045E000118F420741878D46E3CBE6FA094733C76F
:1045F000E40283D64C013697420741839306E7FFD6
:104600000907239ADC02239CEC0251BF03AD0C0383
:10461000330DCD40330D1D03334D6D022DA203A785
:104620004C02118F330717033347670285A223100B
:10463000B8009AA201A43386654005064206418669
:10464000635CE60092A2039606000317080063531A
:10465000E61E2310C800F1BF9AA22310C800E5B7D8
:1046600083D6AC0303D66C038506A9AC850BB38B4C
:104670006B41C20B93DB0B410D476346773509470E
:10468000B3C4E40203D74C01BA94C204C1801387B7
:10469000E4FF8904231CE102231E91022DA652850A
:1046A000029E05476348A71892452811EFD031496B
:1046B000370702003011E9456685BACF6AD702D9BB
:1046C00052DBEFB0D17F3011ED456685EFB0317F21
:1046D0006D616FB0DFCD9A2205070D8F2310E800C2
:1046E00003DD06003306CD4092A239A2374E00000A
:1046F00093868C03CE885288130ECE3583A58C0505
:104700007D5703A68C02E383E5F003A70C05118F08
:10471000330D170333476D0203AD4C05330DCD4008
:10472000330D1D03131507014185334D6D02420DF5
:10473000135D0D41330DAD40330DBD0293050010E7
:10474000334DBD023A9D03A58C04420D7D57135D88
:104750000D41E306E5EC03A70C04118F33071703A3
:10476000B345670203A74C04118F33071703139651
:10477000050141863347670242074187118F33079E
:10478000A702130600103347C7022E97420741873E
:104790001306B0068145668546CE1ACC72CA36C865
:1047A00042C63AC4EF00227C224713160D01418213
:1047B00093150701C1813248C246524E6243F24806
:1047C000E3CB84F01375F50F854E631ED501330DD1
:1047D000C0403307B04042864207420D36884187C9
:1047E000135D0D41B2860356080032979AA2035713
:1047F00008003A9D2310A80137CD0200130D0DEFDC
:10480000E38F0AE803A68C028395060003170800CD
:104810003306C040B308160333C368024203135380
:104820000301E3CA84E01A9742074187E351B7E0E6
:104830002310E800930A01075685EFA071115686F0
:10484000B70502006685EFD0613992452811EFD097
:10485000112F370702003011E9456685BACF6AD7B4
:1048600002D956DD52DBEFB0916513060006814593
:104870006685EF00426F42054185228763D384003D
:1048800026874207418705873A8D6353E5002A8DC5
:10489000420D135D0D4103160107CA8663D329013A
:1048A000CE86C206C186858636876353D600328798
:1048B000420741870607E3C584DA83D68C0303D613
:1048C0004C038506918EC206C186635BD7020347FF
:1048D000310712455286D6858349A108034921092B
:1048E0003AC4A30901062305010823090108EFA022
:1048F000710B22472305310923092109A309E10688
:1049000003D74C0181466A865A972318E10203D7E0
:104910008C010C18880033077741231AE10203D772
:104920006C0162972319E10203D7AC013307B74149
:10493000231BE102EFA0213881458800EF90517BD5
:104940008315A1020317C1028316E10203568102F7
:104950002E9CB30B7741329BB38DB641420B420C78
:10496000C20BC20D135B0B01135C0C0193DB0B013B
:1049700093DD0D01834921092303010A230901085D
:10498000231C6103231D8103231E7103231FB10315
:104990002A89E3CD84CC850DB38D8D41C20D93DD85
:1049A0000D410D476341B70309473344E40203D780
:1049B0006C013A94420441801307E4FF0904231D6B
:1049C000E102231F8102031601078146D285A80850
:1049D000EFA0612E8145A808EF9091712A841245BD
:1049E0003018D685EFA0017C12455286D685230962
:1049F0003109A3090106230501082303010AEFA0D9
:104A0000617AA808EF90917B8800EF90317B228536
:104A1000EF9051754A85EF90F17475B1EFB2DF9662
:104A200037C50200130505EFAE84EFB0713185473D
:104A3000631DF50AAA892685EFB0914C2A8926853F
:104A4000EFB0914BCD472A846313F90AB7050200F2
:104A5000EFD0A17C2A892685EFB0114B1E21AA84B4
:104A600013970701418763532701CA879EA04946D0
:104A700081452285EF00224F931905014D4681455E
:104A80002285EF00424E131A0501414681452285D9
:104A9000EF00624D13190501454681452285EF005F
:104AA000824C135A0A41420593D9094113590941CD
:104AB0004185D28763D34901CE8713970701418788
:104AC0006353E900CA871397070141876353E500E1
:104AD000AA87C207C18763DA070003970400B307F8
:104AE000F04063D3E700BA879EA06FB03F8D6305A7
:104AF0003901A1476318F900930544032285EFD0DB
:104B0000D168E5B7D547E312F9FE2685EFF03F926D
:104B1000E9BF58516308B7045C5563D3F500AE870D
:104B200014590C5563D3D500B68563D3F500BE8503
:104B3000630AB702EFB2FF8611E64CD1EFD01168DD
:104B40006FB07F883445FD57639BF60038C16CC158
:104B50009306C50313064502EFF01F88D5B77C41C5
:104B60003CC1F5B78280EFB2DF8393074006DCD506
:104B700083C7C5052E8423A20502F19B238EF5046D
:104B800023A4050223A8050223AA050223AC0502DB
:104B90004CDCFD57BCC523A0050423A205046CC44E
:104BA000BCCD228523A8050423AA0504A145EFC096
:104BB000B10F2285C145EFC0310F014681452285E5
:104BC000EFF03FF56FB03F808347C50509478D8BF8
:104BD0006398E704585563D3E5002E871C5563D3CB
:104BE000E700BA874C5163D3B700BE851C5963896F
:104BF000B702EFB20FFB11E60CD9EFD0315C6FB00A
:104C00008FFC344D7D57639BE6003CC96CC993060D
:104C1000C50413060503EFF02FFCD5B77C49F5B7A3
:104C200082803845FD576304F7006841828048510F
:104C300082808347C50509478D8B6384E70008554B
:104C40008280384DFD576304F70068498280085917
:104C50008280684D0D898280EFB2AFF42E84228568
:104C6000C145EFC07104930500402285EFC0817CEF
:104C70006FB06FF5EFB2EFF2AA8537C502001305EA
:104C8000C5F0EFC0B1532A84EFC0916722856FB0A1
:104C90008FF3EFB20FF188552E84EF80E002485475
:104CA000EF80800223240402232604026FB0AFF1B8
:104CB000EFB22FEC29712A84EFB011241E39638FD3
:104CC00007402A8C2285EFB0112D83572C022C1817
:104CD0002A8B93E747002311FC026285EFD0F11382
:104CE00003270C02B707FBFF83540C02F98F370729
:104CF0000400D98F2320FC028801EFA06145A81091
:104D0000EF8071469001B70505006285EFC0116D17
:104D1000B010B70505006285EFD0012283572C0241
:104D200041468145ED9B2311FC0223109C026285C4
:104D3000EF006223931D0501454681456285EF0022
:104D4000822293170501C1874946814562853EC885
:104D5000EF00622193170501C1874D4681456285A9
:104D60003EC6EF00422093170501C187DA85A819D6
:104D70003EC4EFD0C15CB70705002326F112B7C7C8
:104D80000200938787F2BEDF93F704023ECA93F7CF
:104D900024003ECC93F7440093098108130A810450
:104DA0003ECE93F7840093DD0D4123200110232490
:104DB000311123264111014901443ED083570C0390
:104DC0006379F43083274C02B70A0300931B290050
:104DD0003387770108439385CA7005093ED242099B
:104DE000EFB0AFE91359090192576DD18327CC0277
:104DF000931A1400D6979A2393778700639F07240A
:104E0000935777401377070213FD1700630B0724AE
:104E1000136D0D0883268C021317340036970E236A
:104E20000316270003184700031567008356810304
:104E30000357A103B6953A96C2962A972310B10458
:104E40002311C1042312D1042313E10463110D249F
:104E5000130680038C014E85EF70B06F13060002BD
:104E6000AC105285EF70F06E0327CC0283465106DA
:104E70005697122313F7E60F9317360163D40700F2
:104E800013E71600930C0104B019E9456285A302EB
:104E9000E1062322911123288112EFB051022A57F3
:104EA0009317270063DA07080347B10AB2470316CE
:104EB0000104137717FC1367E701A305E10A8316C2
:104EC0004C01BE966318D600137717FC1367670171
:104ED000A305E10A03178C01A247831641041D8F25
:104EE000639BE6000347B10A9376E702137717FC4A
:104EF000558FA305E10A03176C01831621046E97F1
:104F0000639BE6000347B10A9376A703137717FC68
:104F1000558FA305E10A0317AC01C247831661044C
:104F20001D8F639BE6000347B10A9376C70313778F
:104F300017FC558FA305E10A035E610413730D028C
:104F4000035F2104050E420E135E0E01630F030082
:104F50008327CC02D6979E2393F7072099C79317F0
:104F60001F00B387C7412311F1046686CE855A8599
:104F70001AD27AD672D4EFA0E12283274C020357CB
:104F800081038316C105BE9B8357C10383AB0B000E
:104F900026468507998F034851060317A105C207C6
:104FA000C187DE854818EFA0A016835741048355BA
:104FB00001040315410385078D8FC207C187094688
:104FC000898FB3C7C70203572104831661031253A5
:104FD000BE9583576104C205C1818507998FC207B9
:104FE000C187958FB3C7C7022310B104AA952312B6
:104FF000B104BA97C207C183BE96C206C18223110B
:10500000F1042313D104630E03020327CC02BA9ADE
:1050100003D70A00137707200DC7225E325F330ED5
:10502000EE41420E135E0E41334ECE02420E135E2F
:105030000E01B387C741B386C6412311F104231380
:10504000D1046686D2855A850147DE86EF80F11548
:10505000B019ED456285EFB08166050442044180D8
:10506000B1BB03574C03E31787DAD24799C3136DDB
:105070000D02E24799C3136D2D00F24799C3136DDA
:105080004D008257E38807D8136D8D0061B3035735
:105090002C024E852310AC03136747002311EC024A
:1050A000EFA0010B5285EF80110C4E86B70505006D
:1050B0006285EFC0B1325286B70505006285EFC048
:1050C000B16703572C0223109C026D9B2311EC0245
:1050D00061BB83572C02ED9B2311FC0231616FB041
:1050E0000FADEFB20FAC55468145EFF0D1674205E9
:1050F00041856FB04FADC167FD17638BF50CEFB203
:10510000AFA81E3941112A8463F1F50C1C55139781
:105110003500AE84BA97039707002C007880039778
:1051200027007881039747008397670078827C8304
:10513000EFD0A14E814551462285EFF0D1629319FF
:1051400005012285EFF0FFF92A892285EF005244FC
:10515000EFA0402DA9473345F50293D909412C848E
:1051600042054185AA8663533501CE863C80C2063E
:10517000C182AE97958F7C8030854A876353A900A2
:105180002A8728823C814207AA95AE96748234838E
:105190004183B2973696998F3297C20742075638A5
:1051A000C18341837C817883639D96004C5486043F
:1051B000AE94962093F6062089C68607FD17998F30
:1051C0007C818A852285EFD0417C41016FB00F9FA1
:1051D0008280EFB20F9A01112E890C08AA84EFD0B9
:1051E000C1432685EFD0814FAA8C2685EFD0015090
:1051F000494681452A8D2685EFF0F156931B05011E
:105200004D4681452685EFF011569319050141461B
:1052100081452685EFF03155131C05014546814532
:105220002685EFF05154931D050151468145268591
:10523000EFF071532A842685EFF0BFEA137714004C
:105240004204894741843344F4020507B54693DBA1
:105250000B4193D90941135C0C4193DD0D41354A53
:10526000B347F5020589229742074187AA97850728
:10527000C207C18763C3E6003A8A420A3547135A18
:105280000A41BE8A6353F700B54AC20AB54793DAAA
:105290000A414E8B63D33701354B420BB547135B45
:1052A0000B41E28963D38701B549C209B54793D958
:1052B00009416E8C63D3B701354C420C135C0C4131
:1052C000B38C6C41330D8D4101445E88B54DF91CA2
:1052D000791D9E38637CF408985493173400A88095
:1052E000BA97039707000393270083984700839595
:1052F000670093170701C18363C3EB08428763D339
:105300007D0135473307E540BA97C207B081C187B1
:10531000FC8493160301C182B307464163C8690048
:10532000CE8763D33D01B547B307F640BE96C206AC
:10533000C18613970801F485418363C598055A9582
:105340002A974207418793970501F886C18363CD69
:10535000A5036296B297C207C1870146CA8528088D
:1053600042C6FC87EF60705E32480DC19E38639480
:10537000870041647D14228505616FB04F83330738
:10538000554159B756956DBF5296E9B70504420489
:10539000418081B7EFA2FFFD854779712A84AE8AEB
:1053A0003EB901498144B709030093172900D697F4
:1053B000884301C5830705009DE71E38638597066E
:1053C000085409C5EF70501023240402485409C53D
:1053D000EF70900F2326040213953400EF70904174
:1053E00008D41DE101A09385C970EFB00F8909C9E8
:1053F0008504C204C180050942091359090175B722
:105400003E3885073EB8C5BF13951400EF70903E37
:1054100048D411E101A01C5491E3814493951400F8
:10542000EF70B04E06B81306B00681452322540330
:105430002285EFF051339377F50F49468145228558
:105440003ECAEFF051322A8B414681452285EFF06A
:105450009131514681452A8D2285EFF0D130AA84C1
:105460002285EFF01FC8AA8B2285EFD02129AA8DB3
:105470002285EFD0012C03592403420DC20D7D1962
:1054800033099902420B135D0D018149014C814C96
:1054900093DD0D01135B0B013309254193170901BE
:1054A000C1873EC893970401C1833EC693970B0101
:1054B000C1833ECC035A2403636F4C072285EFC09F
:1054C000516A2285EFD0814F45616FA05FEE545441
:1054D000338794010607369718231D8B11E3054780
:1054E000330FE900850413190F01C2041359090190
:1054F000C180139724005697184311CFB7070300B4
:105500009385C7703A853ACEEFA03FF709C5724739
:10551000030707004DFFC247050CB383370199EC21
:10552000910A6688B2479E89C28CEA97139D07014B
:10553000135D0D0141B78144014965BFB3D94903EA
:105540001307FDFF33DA4303EA99C20993D90941EE
:105550003A9A1387F4FF33077703420A135A0A4132
:105560003387ED4042074187BA8E63530700814E6F
:10557000C20E93DE0E4166888148814F58549316BF
:105580001800369710231D8A11E205463387FE0363
:10559000B29FD2471386F8FFB386FE033357270323
:1055A000B3D62603469742074183B296C206054604
:1055B000C182638DC70493150701C185C2061C54BF
:1055C000C186DA95DA9613153800C206C2055287ED
:1055D0003E95C1864E86C1851ED646D476D27ED0F3
:1055E00042CEEF60D01E7248E247A258050833074A
:1055F0009841BE98C20893D80801825F925EB25368
:10560000E36E97F685048A04A69A29BFB386DD4027
:1056100093950601C185B386ED404DB7EFA27FD8C3
:10562000FD57DEB983C765032E8523A20502F99BCA
:10563000238BF50223A4050223A6050223A8050255
:10564000B705002093850508EFF0DFD46FA0BFD722
:10565000EFA23FD5AA8537C50200130585F2EFC03A
:10566000E1352A84EFC0C14922856FA0DFD599C5F5
:10567000EFA23FD3EFF01FD26FA0FFD48280EFA242
:105680005FD212392A8448550606EF70806C4C5060
:105690002285EFF0DFFD6FA01FD31E3963E6F50012
:1056A000C167FD176390F502EFA2BFCFAE844E39FC
:1056B0002A84EFF05FA4A68546B82285EFF0BFA349
:1056C0006FA07FD08280163963F9D502EFA27FCD1B
:1056D0005855939715003284BA9796231347F6FFCF
:1056E00013740420758F9AA3AA84EFF0DFA001C47D
:1056F0002685EFC011476FA01FCD8280EFA27FCA21
:10570000AA842E8901449E386364F4006FA0BFCB45
:10571000A28505044A8626854204EFF0DFFA41801F
:10572000DDB71E3963F5F504EFA2BFC783476503F4
:105730002A84B284858B2E8981CB9377060889C70A
:1057400093050008EFF09FFB5C5413171900CA85FE
:10575000BA979A232285458F9AA393F40420EFF0F9
:105760009F9981C42285EFC0D13F6FA0DFC58280A1
:10577000EFA23FC3AA842E8901449E386364F400DB
:105780006FA07FC4A28505044A8626854204EFF0F7
:105790005FF94180DDB74A398280C167FD176385B3
:1057A000F506EFA27FBE835A05032A89014563E10E
:1057B000BA02AE8981440144370B0300639C340173
:1057C000014563879A00832749020A043E940840F2
:1057D0006FA0DFBE130A1400420A83274902135A3E
:1057E0000A0113172A00BA9788438504C204930557
:1057F000CB70C180EFA07FC811E50904131A040122
:10580000135A0A0152845DBF014582801E3963FB31
:10581000F5005C558605BE958A21718D118D133575
:105820001500828001458280EFA2BFB713060008F1
:105830002A84AE84EFF09FFD2A8993050008228513
:10584000EFF0DFEB6308090013060008A685228548
:10585000EFF03FED6FA03FB7EFA21FB337C50200D7
:105860004111130585F22E89EFA0914D8547631BE9
:10587000F504AA894A85EFA0B168AA844A85EFA0F9
:10588000B167CD472A84639FF4044A85EFA0D167AE
:105890003E38AA8995C7032A44028144B70A030007
:1058A00093972400D29703A90700630B09009385FF
:1058B000CA704A85EFA07FBC01C58307090091E744
:1058C0002390090041016FA07FAF5C54139714002F
:1058D000BA979E2393F70720639B07488504C20469
:1058E000C1807DBF9307A0026396F4004C50EFF097
:1058F0001FD8C9BF93079002E38AF4FE639A340964
:105900004A85EFA071604E382A892285EFF0AFFEFC
:10591000EFB0A11DEFB0C11D7599631E95022C005B
:105920004A85EFB081292C002285EFF09F8AC1675C
:10593000FD17AA856301F5025C5413171500BA9789
:105940009A23935757400D87D98F858B89E74AB89B
:105950002285EFF04FFA5638C167FD17E384F6F65B
:105960005C5413971600BA979A231356974093578F
:105970008740D18F13563740D18F1587D98F858BAC
:10598000B1F336C67000F1452285EFA051531DBF1B
:105990008947639CF4084A85EFA011572A89EFB024
:1059A000C114AA84EFB0C11479157599E30C05F000
:1059B00026852C00EFB061202C002285EFF07F813E
:1059C0004E38AA84E380A5F0C167FD176385F50012
:1059D0002285EFF04FF246B84A85EFB0411CC1670F
:1059E000FD17E381F4EE5C5413991400CA979A23CF
:1059F000935737401587D98F858BE39507ECA6859C
:105A00002285EFF04FEF58543A9983570900A18748
:105A1000858BE39907EA5E3886073E971E23A587A4
:105A2000858BE39107EA26C6B1BFA147639DF408C1
:105A30005A39C167FD176300F708931717005855C7
:105A40003E971E2393D66740858A95CA93D65740C2
:105A5000858A95E693D67740858ABDC283466503DD
:105A6000858AB9EE93F7F7F7C207C1831EA3834770
:105A70006403858B89C74E382285EFF0FFDA5638EC
:105A80005C5413971600BA979E2313D7874013D6FA
:105A90009740518F058B05C313D757408D87D98FFA
:105AA000858B91EB7000F145228536C6EFA0314120
:105AB0008547E319F5E04E382285EFF0CFE319B5BD
:105AC00093E7070865B799476398F4025A39C167A5
:105AD000FD17E309F7DE5C5593161700B6979E2372
