:040000006F40203DF0
:100004000000000000000000F84100001842000059
:1000140000000000D04300000000000000000000C9
:10002400D0430000D04300000000000000000000A6
:10003400F631000000000000900200000000000003
:10004400D0430000D0430000D0430000D043000060
:10005400D0430000D0430000BC3C0000E43C00005E
:100064000C3D0000343D00005C3D0000D043000026
:10007400D0430000D0430000D0430000D043000030
:10008400D0430000D0430000D0430000D043000020
:10009400D0430000D0430000D0430000843D000062
:1000A400D0430000D0430000D0430000D043000000
:1000B400D0430000D0430000D0430000D0430000F0
:1000C400D0430000D0430000D0430000D0430000E0
:1000D400D0430000B8410000D8410000D0430000E4
:1000E400FC3D0000D0430000D0430000D04300009A
:1000F400D0430000D0430000D0430000D0430000B0
:1001040000000000D0430000D0430000D0430000B2
:10011400D0430000D0430000D0430000D04300008F
:10012400D0430000D0430000D0430000D04300007F
:10013400D0430000D0430000D0430000D04300006F
:10014400D0430000D0430000D0430000D04300005F
:10015400D0430000D0430000D0430000D04300004F
:10016400D0430000D0430000D0430000D04300003F
:10017400D0430000D0430000D0430000D04300002F
:10018400D0430000D0430000D0430000D04300001F
:10019400D0430000D0430000D0430000D04300000F
:1001A400000000000000000000000000000000004B
:0C01B4000000000000000000000000003F
:1001C00097820120938202E4938202E073900234CA
:1001D00003210500224573100530B1A819712320B1
:1001E000250006C006C216CAF322003093F2820030
:1001F000638402009302000816C412C81ACC1ECEF3
:1002000022D026D22AD42ED632D836DA3ADC3EDEB6
:10021000C2C0C6C2CAC4CEC6D2C8D6CADACCDECE26
:10022000E2D0E6D2EAD4EED6F2D8F6DAFADCFEDE96
:1002300003A1050009A002457310153492403785CB
:10024000000013050580732005302245732005301A
:100250004242D2426243F243025492542255B25572
:100260004256D2566257F257064896482649B64932
:10027000464AD64A664BF64B065C965C265DB65DF2
:10028000465ED65E665FF65F09617300203000004F
:10029000197116CA9302000816C49302000273A0D3
:1002A000428006C212C81ACC1ECE22D026D22AD430
:1002B0002ED632D836DA3ADC3EDEC2C0C6C2CAC456
:1002C000CEC6D2C8D6CADACCDECEE2D0E6D2EAD4E6
:1002D000EED6F2D8F6DAFADCFEDE73110134EF0066
:1002E000E07AEF10B02FEF00407D731101341384DA
:1002F0008189032904006304090223200400732573
:1003000010342AC013840189044023A024001384DC
:100310004189044003A10400024573101534924042
:10032000B78200009382028073A00230A24273A0C1
:1003300002304242D2426243F24302549254225566
:10034000B2554256D2566257F25706489648264949
:10035000B649464AD64A664BF64B065C965C265D25
:10036000B65D465ED65E665FF65F0961730020305B
:100370000000397101436EC619A0397141536AC832
:1003800066CA62CC5ECE19A0397101535AD056D2DA
:1003900052D44ED64AD826DA22DC06DE330161403A
:1003A000828241114AC026C222C406C68282B24D50
:1003B0004101024D924C224CB24B4101024B924AF8
:1003C000224AB2494101024992442244B2404101C9
:1003D00082803D432A876373C3029377F700BDEFA2
:1003E000ADE5937606FF3D8ABA960CC34CC30CC7A5
:1003F0004CC74107E36BD7FE11E28280B306C340CE
:100400008A069702000096966780A6002307B70029
:10041000A306B7002306B700A305B7002305B7005E
:10042000A304B7002304B700A303B7002303B70056
:10043000A302B7002302B700A301B7002301B7004E
:10044000A300B7002300B700828093F5F50F9396C1
:100450008500D58D93960501D58D61B793962700BC
:100460009702000096968682E78086FA9680C117EA
:100470001D8F3E96E374C3F8A5B703A581808280E3
:10048000EFF23FF2938781809843050798C3EF10FE
:10049000E04D3C45FD173CC589E77C413CC5EF106C
:1004A0008055EF10100705B7634205029307803EA1
:1004B0003347F5023365F5023305F5021305753E42
:1004C0003345F5023307F7023A9582807D558280E5
:1004D00001458280014582800145828001458280FC
:1004E000EFF23FEC1D649D641304C4F7938484F819
:1004F00063639400C9BD1C4011048297D5BFEFF21D
:100500005FEA1D649D64130484F8938404F96363B3
:10051000940055BD1C4011048297D5BFEFF27FE8CF
:10052000F93FEF30705145B5EFF2BFE7B705000076
:1005300037550000D14715479306002001469385A3
:10054000C5511305456DEF10C042EF10205EA5BDEB
:10055000EFF23FE5EF107009EF209042EF00F04618
:10056000EF10B002EF108013C137EF10B002092C6A
:10057000EF10A015014581BDEFF2BFE2D13F01456B
:1005800099B5EFF27FE0AA89EF10403E19C1EF1054
:1005900000262545EF00307C444113044500639656
:1005A0008400EF10A03C014919A8138944FF21469B
:1005B000CE854A85EF00007D01E9EF10203B19C18F
:1005C000EF1080244A85DDBB8440D1BF09E57D550D
:1005D00082807D55CDBBEFF2DFDC2A842E85328907
:1005E000AE8445377DF522852686A545EF005079F6
:1005F0000145231C2401230E0400231D0400D9BF40
:10060000EFF23FDA1E2D41112A84C18B9DE71C5564
:100610008DC32EC68297AA84B24501CD2A8637554E
:100620000000A2851305C56DEF00B033268541019A
:1006300059BB1E2C93E707011EAC1E2CA18B89C74A
:100640003E2CE554A18BFDF35C5489CF2285829723
:10065000AA8405E13E2C93E787003EAC5C2C85071D
:100660005CACE9B785679387F7F0FD8D2EAC8144CC
:10067000D5B7E957E31CF5FAF1BF5C2D85CBEFF256
:100680005FD2FD1793F7F70F5CAD2A84014789EF1E
:100690001C5989E70147231D040039A082972A8746
:1006A00075D9E957E309F5FE3A8531BB7D573A859F
:1006B0008280EFF21FCF582D09E77D55452B01456C
:1006C00021A05C5999C38297FDB96955C5BFEFF266
:1006D0005FCD582D09E77D55512B014521A01C5DAB
:1006E00099C38297CDB16955C5BF0CD101458280B0
:1006F000EFF29FC993894186854A83A74186638625
:100700003705EF10806E83A741862A8A638D3703F1
:1007100003A441865C4018401309C4FE5CC398C31F
:1007200040C000C0EF10A00C7C5099C34A8582974E
:100730004A85EF003076631B55014A85EF00306A29
:10074000EF10800C5285EF10006B8DB9EF10C00BCD
:100750005285EF10406A4848EF0050554A85EF0037
:10076000507061BFEFF2FFC31384019413090401B9
:100770001C4091C382971104E31C24FF953FEDB701
:10078000EFF23FC237060000B755000093080002A1
:100790003D4893070020138701958146130646764E
:1007A000938545711385018CEF1020191385018CF9
:1007B000EF10C03709B9EFF2DFBE41112A842E8550
:1007C00032C62EC4EF1040283246A24519C68547CE
:1007D000630DF60001454101FDB658409387450180
:1007E0001CC398CD5CC0C0C9F5B71C4063888700A6
:1007F00083C6550303C7170263FAE600D443138781
:10080000450198C294CDD8C3DCC9E9B79C43F9BF70
:10081000EFF23FB94111B2842E8689452A8436C64B
:10082000EF001056B246930744011CCC5CC846AC9E
:1008300014B40145410141BEEFF21FB583A7018504
:1008400041112EC62A8491C38297EF10005A5E2C64
:10085000AA8989CFFD175EACEF10E05983A7C18448
:10086000014591CB22858297014531A0B24791E79E
:10087000EF1060587955410191B6EF10200F2328F1
:1008800005021034AA85AA84130544012D37B24706
:10089000635CF0001389C404700081454A85EF1041
:1008A000C0434A85EF1040384E85EF10C054EF002A
:1008B0009064885845D5C1B7EFF2BFAE83A7818455
:1008C0002A8491C38297EF104052AA844848930724
:1008D0004401630EF5003115EF1080200544268594
:1008E000EF10605119C0EF0010610145E9BC5E2CAA
:1008F00085075EAC0144E5B7EFF2BFAA2E84AA8556
:100900000D45EF00B05001CD930745011CCD5CC9EA
:10091000B707FF0085075CCD2320050200B565B44D
:10092000EFF29FA641112EC62A84EF102004AA845C
:10093000EF10A04B83A701852A8999C3228582974E
:100940001C5023A8040263819702938A5403130B5B
:1009500044019389C4045D5A5E2C8DC7FD175EACBB
:1009600004D083C754037CAC7C3C85077CBC4A859F
:10097000EF10604883A7C184014589CF2285829703
:10098000014509A8B24789EBF9574A859CD8EF1071
:100990008046795541011DB4085003C7540383476D
:1009A00055036376F70056868945EF10E01A103438
:1009B000A6855A850935B247635AF0007000814513
:1009C0004E85EF1080314E85EF1000264A85EF10DE
:1009D0008042EF005052885801C5E30F45F75DBFD4
:1009E000EF10A0402A8961B7EFF21F9A41112A84C3
:1009F000EF00D077AA84EF10403F83A78184AA89B3
:100A000099C3228582971C50638B9700FD574E85B2
:100A10009CD8EF10403E7D5541016FF03F9A7C3CE1
:100A20000149FD1793F7F70F7CBC8DEF782C83C736
:100A300054036308F7001306E40189452685EF1087
:100A4000A0115C48130744016389E7021385C7FEC0
:100A500008D083C7170205497CAC7C3C85077CBC69
:100A6000EF1000084E85EF1000390145E30609FA42
:100A70002AC6EF005048324545B75E2C23200402B9
:100A8000014985075EACFD577CACE9BFEFF27F9171
:100A90004111EF108035138741811C23850793F79F
:100AA000F70F1CA383A7C18081C72AC6829732454E
:100AB000EF10603441016FF01F91EFF29F8E4111F2
:100AC000EF10A032138741811C23FD1793F7F70F16
:100AD0001CA383A7018181C72AC682973245EF10E4
:100AE000803141016FF03F8E03C541818280937850
:100AF00008044111639E080099689388088C9373D9
:100B00000801638B03001378E8FF930E000219A815
:100B100099689388C881E5B713731800930E000392
:100B2000E30503FE13732800630E030663580602F1
:100B30003306C0409302D0020A8E814F294F63953D
:100B4000E6073373D6023356D602469303430300B7
:100B5000850F050EA30F6EFE7DF20DA013734800E6
:100B60009302B0026317030093728800B3325000FF
:100B7000960279F2930600035480854FFE8663D374
:100B8000FF00BE8613781801158F63130804638570
:100B900002006353E0007D172A86B308E5001303C3
:100BA000000221A88142F1B71373F600118271BFD0
:100BB0006374B6002300660005063388C840E34925
:100BC00000FF3A866353070001467D173295118F67
:100BD000638802006374B500230055007D17050586
:100BE00063870302AA96130800031DA86374B60066
:100BF0002300D60105063388C840E34900FF3A8642
:100C00006353070001467D173295118FE1BF2A8695
:100C1000B308E500CDB76374B500230005010505F1
:100C20003386A640E3C9CFFEFD56FD1F6383DF0078
:100C300099E7AA873306E5001308000231A8637616
:100C4000B5003306F101102210A10505F9BF63F4C8
:100C5000B700238007018507B306F640E349D0FEBD
:100C60006353070001473A9541018280EFF26FF329
:100C70002A849D3D09C523AC81806FF0CFF4EF003D
:100C8000F04E75D900D9D5BF0D47AA876376C70046
:100C90009377350091C7AA873E966397C7068280EF
:100CA00093F7F50F13978700D98F139707015D8F7F
:100CB000B308C500AA87BD463388F84063EB060336
:100CC00093574600C156B386D7029207AA970D489C
:100CD00036963383C700BE86B308D34063621803D9
:100CE00013572600F156B306D7020A07BA9736966D
:100CF00065B798C3D8C398C7C10723AEE7FE6DBFD9
:100D0000910623AEE6FEC9BF8507A38FB7FE71B774
:100D100063F2A504B386C500637ED5029345F6FF52
:100D20008147FD176393F50082803387F60003083F
:100D300007003387C7002A9723000701DDB73387F1
:100D4000F500830607003307F500850714A3E318B1
:100D5000F6FE82808147E5BF0DC6AA878505038719
:100D6000F5FF85079306F6FFA38FE7FE09EB3E9696
:100D700085076393C7008280A38F07FED5BF3686A1
:100D8000F1FE828001476314E600814739A8B3076A
:100D9000E50083860700B387E5009C23B387F64010
:100DA000E207E18799E30507F9FE3E858280AA877D
:100DB0000387070001E73385A74082808507CDBF01
:100DC000EFF2AFDB2E89B30B250141112A8CB685DA
:100DD00063F5AB001349F5FFFD5BC169376A00009D
:100DE0006284930AB002130B0002FD19130A8A8B66
:100DF00031A8130750026389E702637374011CA0D2
:100E000013051400B284138614002A848307060095
:100E1000EDF363060900637B742F230004003305A0
:100E2000844141016FF0EFD801481307D0029306C7
:100E300030021305000331A0639E57011368480078
:100E400026868307160093041600E397E7FE1368CF
:100E50000801FDB76395670113688800D5B76395EE
:100E6000D70013680802E9BF6395A700136818004C
:100E7000C1BF138707FDA54663E6E6040147A54603
:100E8000294539A03307A70285043E97130707FDBC
:100E900083870400138607FDE3F6C6FE038604007D
:100EA0009306E002FD57631FD6048387140025468E
:100EB00093861400138507FD6365A60A81472545BF
:100EC00029433DA09306A0027D57E399D7FC9841A2
:100ED000930426009105E35307FC3307E0401368B1
:100EE00008016DBFB38767028506B297938707FD38
:100EF00003860600930806FDE37615FF63D307001B
:100F00008147B6848386040013068006014593F862
:100F1000B6FF6395C80013F5F60F85040386040039
:100F2000930690066303D60663C5C606930680053E
:100F30006303D61C63C3C604930750026307F61A03
:100F400063757401930750021CA083870400130586
:100F500014006386071A637375011CB0130524001F
:100F60005DB51306A0026397C7009C4193862400D9
:100F7000910569B7B684814771B79306300663025D
:100F8000D60893064006E31DD6FA13682800A94642
:100F900099A0930630076303D60C63C5C602930677
:100FA000F0066300D61693060007E31BD6F8FD563D
:100FB0006315D700136818002147938C4500C1467C
:100FC00090411DA893065007E303D6FC93088007C1
:100FD000C146E31716F71306C006938C4500E301DC
:100FE000C5FE13068006E31DC5FC904193752800DD
:100FF000639B051033763601DE852285CD3CE68580
:1010000019B51378080163150802BA879306000220
:1010100029A06373740114A00504FD17E34BF0FECF
:101020009307F7FF6343E00005473387E740050771
:101030009387450063747401944114A01305140050
:10104000229713060002B306A7406344D000BE8572
:101050005DBB6373750110A10505F5B783AC050091
:10106000138D450063930C00D28C66853EC63AC44E
:1010700042C2353BB247AA86124822476355F00068
:1010800063D3A700BE8613780801631E0800BA87E1
:101090001306000231A06373740110A00504BA871F
:1010A0007D17E3CAF6FE814763C1D702B68763D3D3
:1010B000060081473305F4002A9713060002B307A0
:1010C000A74063CFF600EA853DBB3306F4006377A3
:1010D0007601B385FC00838505000CA28507E9B77E
:1010E0006373750110A10505D9BF6373740110A066
:1010F0001305140009BB13680804C146E9BDFD14BB
:1011000019B3A146C9BD42064186FDB5A38F0BFEAA
:1011100039B3397136D6741006CE3AD83EDA42DC8D
:1011200046DE36C67139F2402161828003A5C18155
:101130008280EFF20FA703A9C181EFF08FC411CD18
:101140001384C181AA84084019C1EFF00FD393051D
:1011500030042685EFF0CFCA04C04A856FF0AFA6F1
:101160008280397126CA2ED232D436D62A865410BD
:101170009305F007138501B53EDA36C606CE22CCBC
:101180003AD842DC46DE2D39AA8603A5C18109E999
:10119000138501B5F137F2406244D2442161828067
:1011A0002686262D1384C18193E704043EAD930760
:1011B000F00763F4D7009306F007138601B5814565
:1011C000EFF0EFD01C40A6AFF9B7EFF28F9D376577
:1011D0000000130505837137376500001305C583CB
:1011E00049373767000037650000130707868D46CB
:1011F00005468D451305C586AD37376500001305D7
:10120000C58885376FF02F9C31C595661377F50F2C
:101210009386C67109C7BA96882205058280C16780
:10122000938707F0E98F81CB21851377F50F3697E8
:10123000082325058280B707FF00E98F81CB418510
:101240009377F50FB697882345058280618136959F
:1012500008216505828003A741825C41BA97630536
:10126000F502B62395E283A60182638FF60093868A
:10127000818290426313F60088C2D44354C1DC4398
:10128000B306E540BA9794C71045B307C700630F8C
:10129000F500B62381EE938681828C426393A5008C
:1012A0009CC25441D4C35C413E9710C78280EFF288
:1012B0004F8F83A50183376500001305458D553594
:1012C00083A5C183376500001305858E593D83A52D
:1012D000C182376500001305C58F61356FF0AF8E91
:1012E000EFF22F8C13F7C5FFE1462E8663F1E60679
:1012F00093073500F19B930687FE63EAF6041D8F82
:10130000130687FE23A8C182896651171384418280
:10131000938606EAD8C394C323A407001CC0BA97D7
:1013200023A0F182C966938606EAB765000094C3DC
:10133000D8C398C78146054693854599138501BD55
:10134000EFF00FCD184023A4E1826FF0CF87AA857C
:10135000376500001305C5992935C5BFEFF26F84C5
:1013600039C503A7018313043500719813890183DC
:1013700081446366870EB1476373F4003144FD55C1
:10138000138501BDEFF04FCB83A7818283A54182F6
:101390008328090026853386B740B38688401388A2
:1013A00081826368D600138501BDEFF0EFD08144E0
:1013B0007DA0B384C500BA2003AE440061E73307C3
:1013C000CE40930F47FF63EF8F0A138FC183938E35
:1013D000C1821303840183260F0083A30E001389A7
:1013E000C1839382C18263EF6F061307C4003297F3
:1013F000896E3383E500938E0EEA2322C3012324F2
:10140000C3002320D3010546D8C0B2A00326430061
:10141000B108630416012E9618C61387C6002297DA
:101420002320E90063F4E30023A0E2000967130727
:1014300007EA9AA0639A970083A601820147B22324
:1014400005EE19C32320F800138501BDEFF0CFC6C8
:1014500083A78183B10481C7A285268582972685CB
:101460006FE07FF605463697B2A02320EF00E3FF3A
:10147000E3FA23A0EE005DBFE385D7FCDC4305471C
:10148000AE9775BF728631BFEFE2BFF13306B5028A
:101490004111328532C6D9352A8409C53246814583
:1014A000EFF08FFE228541016FE0FFF145C5EFE2CD
:1014B000BFED83A741832A8491C3829783A741828A
:1014C000138941826366F40883A701826372F4087A
:1014D000FD55138501BDEFF02FB6835764FF9309C7
:1014E00044FF81CB035744FF8967938707EA630171
:1014F000F7023765000013058594A531835644FF34
:10150000035664FF37650000CE8513054596913973
:101510008967938707EA231AF4FE938781829843A9
:10152000231B04FE63F4E90023A037011387C18362
:101530001C43832684FF4E85958F83260900B3863E
:10154000D940B6971CC3013B138501BDEFF0CFB660
:101550006FE0DFE68280B70700209386070001472F
:101560009387070021468C426396A5001315470018
:101570003E9582800507C106E317C7FE01458280BC
:10158000EFE29FE02A842E85AE89328AE9372A89E4
:10159000B92C83244900930749006390F404AD24D7
:1015A00093E909F8230434012146D2852285EFF01E
:1015B000AFFA83A7018499C322858297EF00F002D6
:1015C000032749009307C4005CC358C42322F900D1
:1015D00004C8EF0050026FE07FDE84407DBFEFE281
:1015E0005FDC83A741842A8491C38297230404008B
:1015F000EF00A07F544418489307C400D8C214C316
:101600001CC85CC4EF00207F6FE0FFDBEFE2DFD798
:101610002E89AA898937AA84484589332A841DCD11
:10162000D0448145EFF04FE6214623043401A30462
:101630000400CA852285EFF02FF283A7018499C3A5
:1016400022858297EF00607AD8409307C400910406
:101650005CC358C49CC004C8EF00E07922856FE0E9
:10166000FFD5EFE21FD483A741842A8491C38297D8
:1016700023040400EF006077544418489307C40023
:10168000D8C214C31CC85CC4EF00E0762285393D83
:101690006FE07FD3030585007D81828023900186E2
:1016A000938701BF13870708DCC39CC3A107E39D91
:1016B000E7FE3D47238AE18423AC018423A601860B
:1016C00093874186DCC39CC38280EFE29FCD03A554
:1016D000C186EFF07FB37D1593173500138501BFE9
:1016E0003E9508411307C5FE210523ACE184EFE0D8
:1016F0003FAD6FE05FCDEFE2DFCAEF00006F839791
:1017000001862A89B1E703A5C186EFF0FFAF7D15F9
:1017100013173500938701BFBA9784439387818558
:1017200080439385C4FE6305B4028CC383A7C1853F
:10173000238AA18499C32285829783C74181130597
:10174000C4019385840093F7F70F81EBEFE01FA9A5
:101750004A85EF00406A6FE01FC7EF00206ACDBFE7
:10176000EFE23FC42A84EF004068834744039306B6
:101770004401C19B93E71700230AF40283475403F3
:1017800013973700938701BFBA97D84314C318CC77
:10179000D4C35CC89387C1869443185C558F98C3A3
:1017A000EF0060656FE03FC2EFE2BFBF2A84EF0049
:1017B000C063184C544893074401D8C214C35CC892
:1017C0001CCC8347540313973700938701BFBA9704
:1017D0009843631AF7001387C1861C5C144393C7B0
:1017E000F7FFF58F1CC3EF0000616FE0DFBDEFE294
:1017F0005FBBEF00805F938701869A2305079AA35A
:10180000EF00605F6FE03FBCEFE2BFB9EF00E05D6B
:10181000138701861E23FD17C207C1871EA3634CD1
:10182000F00023100700EF00005D83A7818591C3BE
:10183000D9356FE05FB9EF00005CE5BFEFE27FB63E
:1018400003A481855D23AA842285B93F9147230A99
:10185000F4021305C404552E22852D3D8547631BD4
:10186000F5003C5C81EB22859D3B26856923613533
:101870006FE07FB583A641861307440123A2E1866A
:10188000D8C29387418654C81CCCC5B7EFE27FB15C
:101890002A845105411108CC48C80CD050D014D42A
:1018A0003A8658D49305300236853EC642C4EFF0DE
:1018B000AFBD585410544C5008507117B726000053
:1018C0003A969386C683C129B2472248372600003C
:1018D00048CC230BF402A30AF402232C0402814710
:1018E000232204052324040523280402230A0402D6
:1018F000232C0406232E04060147A2861306A69174
:10190000A2851305C404E92483A7018799C322850E
:101910008297014541016FE01FABEFE29FA850495C
:10192000144D795718D954C21307450190C218CDE8
:1019300058C93D35C9336FE01FA9EFE29FA6411199
:10194000B2842E8685452A84368946C03AC63EC46E
:1019500042C2EFF0FFC2024892472247B2464A868F
:10196000A6852285253741016FE0FFA503A5818566
:101970008280EFE27FA141112E89AA85054532C6FA
:10198000B684BA893E8AEFF07FC82A8411C92685B9
:10199000EFF0DF9C324609E92285EFF09FCC01444D
:1019A000228541016FE09FA1AA865288CE872687B3
:1019B000CA852285E13DEDB7EFE2BF9E834745032F
:1019C0002A84BD8B99C3EFF03FDE1305C404352C88
:1019D0009147230AF402112983A641861307440183
:1019E00023A2E186D8C29387418654C81CCC21210A
:1019F00001456FE05F9DEFE2DF9AC52E83A78185E9
:101A00000546AA8603C747033D8B631CC702D04B1C
:101A1000984F6308E60258C210C303C65703938663
:101A200047010E06138701BF94CF3297504314C26B
:101A300090CF54C3D8CBC126EFF0FFCB01456FE068
:101A40009F9836854D2EDDBF834745030547BD8BE7
:101A5000639FE702EFE2FF942A84412E8347440309
:101A6000AA842285C19B93E72700230AF402EFF0A2
:101A7000BFD31305C4040D2C2685B52E83A78187FB
:101A8000014581C72285829701456FE0DF937D552F
:101A90008280EFE21F9141112AC6812E03A4818525
:101AA0002A89228555379304C40470008145268510
:101AB0002D242685952A4A853D2EEFF0DFC3185840
:101AC000F9576314F70023280402014541016FE030
:101AD0009F8FEFE21F8DEFE03F9D653F6FE0BF8E70
:101AE000834745030947BD8B6390E704EFE27F8B93
:101AF0002A84E52C5448184C93074401AA84D8C280
:101B000014C31CCC5CC81305C404792A2685E524BB
:101B10002285EFF0FFC483A74187014581C7228555
:101B2000829701456FE03F8A7D558280EFE27F8793
:101B30008346650305473317D70018DD0947A30A15
:101B4000D502230AE502693F83A7818599C3EFF097
:101B50009FBA01456FE03F87EFE21F830549638D20
:101B6000250589476386F500B1C501456FE01F85EE
:101B70002A84B2899D2C834444032A8ABD886392B7
:101B800024032285EFF05FC283C709002285B39446
:101B9000F400A30AF40204DCEFF09FBC5285A12CF0
:101BA000E9B783C709003319F900A30AF402232C0B
:101BB0002403EDB7A53F5DBFEFF01FE045BF5449DB
:101BC000184D93074501D8C214C31CCD5CC982804F
:101BD000EFE22FFD4111B2842E86A9452A8436C634
:101BE0003AC43EC2EFF0DF999247B2462247F99BD2
:101BF0001CB49307440144CC14D02324040258D0CD
:101C00001CCC5CC841016FE00FFCEFE28FF92A8425
:101C1000E92AAA84228565372685F12A2285EFF0F4
:101C20001F9C01456FE02FFAEFE2AFF72A84752A77
:101C3000AA84228569371C342685F99B1CB4652A41
:101C400083A7C18499C322858297EFE01F835C50EC
:101C50003E9508D4592A1387818803284700370600
:101C60000080938781881346E6FF98436315F80246
:101C70009386C1879042050690C29306440154C3DF
:101C800058C894C31CCC1C3493E717001CB4A5227D
:101C900001456FE04FF3544B0C546385B6008D8EB5
:101CA000E378D6FCBA87D1B71C35858B8DC7EFE2B8
:101CB0004FEF83A781842A8491C382973D22AA840F
:101CC0002285EFF0DFEF26853D221C340145F99B8C
:101CD0001CB46FE04FEF7D55828085476381F5022C
:101CE00063C5B70085C1014582808947638FF500D0
:101CF0008D47E39AF5FE1C3593E7270009A85C5150
:101D00001CC2D5B71C425CD1F9BF1C35F59B1CB574
:101D1000D9BFEFE28FE6EFE04FF62A8CF920B70942
:101D200000802A8A9384818893C9E9FF8D4B804083
:101D3000631694005285C1206FE0AFE7484813094D
:101D4000C4FE3305AC40E3E7A9FE83A7018899C32D
:101D50004A8582974A85EFF09FE61C444844829763
:101D6000EFE0AFF183A741882A8C99C34A85829717
:101D7000834754FF13F7E70FA30AE4FE8D8BE39824
:101D800077FB4A85EFF05FEA5DB793878188DCC314
:101D90009CC3828082801106719A2A8837C7ADDE83
:101DA000130506F8AA871307F7EE631EF600A1676E
:101DB000938707882322D6F82324B6FA232006F92E
:101DC0002324F6F8828098C39107C5B737F700E05F
:101DD0001C43B7060080D58F1CC3828037F700E014
:101DE0001C43860785831CC38280216513050580FB
:101DF000731505308280731005308280EFE26FDA50
:101E00001387818918439387818919E323A8A188BF
:101E100023AAB188054798C3553F6FE0CFDA2A87D8
:101E2000814718436314A7003E8582808507D5BF8C
:101E3000B707EFBE37E700E0938707083CC70145C7
:101E40008280EFE20FD6376500001305859DEFF025
:101E50004FB101456FE02FD7EFE2AFD42A84FD5494
:101E6000376900007D14631494006FE0CFD513052B
:101E70000914EFF00FAFFDB7EFE20FD10041AA84D4
:101E800037690000B7690000631494006FE00FD356
:101E90009305C4FE13054914EFF0AFAC1C406386F4
:101EA000970013858914EFF0CFAB0040F1BFEFE24C
:101EB0004FCF2E89EFE0BFEF2A84EFF05F938324AA
:101EC0000900639C2401EFF03F94A14763C387009E
:101ED00011E0214422856FE00FCF138544FFEFE02E
:101EE0001FED6353A4002A848440E1BFEFE2EFC8F2
:101EF0000545EFF04FE6B7690000130945002A8455
:101F0000CA851385C9C8EFF09FFAAA85AA843765E8
:101F100000001386C9C8130545C9EFF08FA42685B4
:101F2000EFF09FF337650000130585CDEFF06FA349
:101F30004040B7690000054A894A376B0000B76B1B
:101F40000000376C0000B76C0000376D00006315AF
:101F5000890001456FE0EFC503479402138589D1DD
:101F6000930644FF2146A685EFF0AF9F8347840286
:101F700013854CD2BD8B638E470113050CD3638A46
:101F800057011385CBD391C711476396E70013051B
:101F90008BD4EFF00F9D4C4C93073002AE86982205
:101FA0006306F7021050930740060848B295B386BF
:101FB000D540B386F602585C5C50898D13054DD52B
:101FC000B3D6C602EFF0EF99004051B78506C1BF06
:101FD000EFE28FBB41110945EFF0EFD793094500C0
:101FE000376900002A84CE851305C9C2EFF03FECA3
:101FF000AA85AA84376500001306C9C2130585C3E4
:10200000EFF02F962685EFF03FE5376500001305CA
:1020100045C5EFF00F954040376A0000B76A0000F1
:10202000376B000063968900014541016FE00FB9ED
:102030001A281C44930644FF1309840036C63AC488
:102040004A856306F902EFF09FDD2247B246AA8770
:102050002146A6851385CAC6EFF0AF904A85EFF0FA
:10206000BFE113058B49EFF0CF8F004065BFEFF064
:102070001FDB2247B246AA872146A6851305CAC799
:10208000EFF02F8EDDB7EFE22FB041111145EFF0E9
:102090008FCC93094500376900002A84CE8513054B
:1020A00009A7EFF0DFE0AA85AA84376500001306D0
:1020B00009A7130585A7EFF0CF8A2685EFF0DFD9B2
:1020C000376500001305C5A9EFF0AF894040376AB6
:1020D0000000B76A0000376B000063968900014575
:1020E00041016FE0AFAD1C4413098400930644FF27
:1020F00018486309F9024A8536C63AC4EFF03FD260
:102100002247B246AA872146A6851385CAABEFF0BF
:102110004F854A85EFF05FD613058B49EFF06F844A
:10212000004065BF2146A68513054AADEFF06F83D9
:10213000C5BFEFE26FA541110D45EFF0CFC1B76903
:102140000000130945002A84CA85138589BCEFF075
:102150001FD6AA85AA8437650000138689BC13059B
:1021600005BDEFF00F802685EFF01FCF376500002B
:10217000130545BFEFE0FFFE4040B769000063165E
:102180008900014541016FE06FA3930644FF1305E9
:10219000840036C6EFF0BFC8034834015C48B2463D
:1021A000AA8821472146A685138549C1EFE07FFB18
:1021B0000040F1B7EFE24F9D41111545EFF0AFB987
:1021C00093094500376900002A84CE85130589AE3E
:1021D000EFF0FFCDAA85AA8437650000130689AE0B
:1021E000130505AFEFE0FFF72685EFF0FFC6376573
:1021F0000000130545B1EFE0DFF64040376A00000C
:10220000B76A0000376B0000639689000145410101
:102210006FE0CF9A7A285E281044930644FF130992
:10222000840036C63AC43EC24A856307C902EFF04D
:102230001FBF92472247B2462A882146A6851385AA
:102240000AB3EFE01FF24A85EFF01FC313058B4975
:10225000EFE03FF100404DBFEFF07FBC92472247D7
:10226000B2462A882146A68513058AB4EFE07FEF9F
:10227000D5B7EFE26F9141111945EFF0CFAD93095A
:102280004500376900002A84CE85130509B6EFF0B2
:102290001FC2AA85AA8437650000130609B6130574
:1022A000C5B6EFE01FEC2685EFF01FBB37650000D9
:1022B000130585B8EFE0FFEA4040376A0000B76ACF
:1022C0000000376B000063968900014541016FE013
:1022D000EF8E1A2C1C44930644FF1309840036C663
:1022E0003AC44A856306F902EFF07FB32247B2464B
:1022F000AA872146A68513850ABAEFE09FE64A859C
:10230000EFF09FB713058B49EFE0BFE5004065BFD5
:10231000EFF0FFB02247B246AA872146A6851305F3
:102320004ABBEFE01FE4DDB7EFE20F865D712545A4
:10233000EFF06FA29565130600052A841309450086
:10234000938545680A85EF30001FB7690000CA858C
:10235000138589A0EFF0BFB5AA85AA843765000070
:10236000138689A0130505A1EFE0BFDF2685EFF0F6
:10237000BFAE37650000130585A3EFE09FDE404048
:10238000D149376A000063168900014561616FE039
:10239000EF821C44930644FF63E0F90298088A0721
:1023A000BA9703A707FB1C282146A6851305CAA5D3
:1023B000EFE03FDB0040C1BF4647F5B7EFD2DFFC9F
:1023C0002945EFF04F99B7690000130945002A84A9
:1023D000CA851385C9D7EFF09FADAA85AA84376552
:1023E00000001386C9D7130545D8EFE09FD726858F
:1023F000EFF09FA6376500001305C5DAEFE07FD642
:102400004040B7690000376A0000B76A0000631EE9
:102410008900EFE08F86AA8537650000130545E047
:10242000EFE03FD401456FD07FF95C4C184C138529
:1024300009DD930644FF2146A685EFE09FD283473E
:10244000D4FF13858ADE858B99E313054ADFEFE01D
:102450005FD100406DBFEFD23FF337650000130539
:10246000059EEFE01FD003A4018AB7690000376A18
:10247000000083A7418A6365F40001456FD01FF413
:10248000044009469385499F2685EF30E01919C518
:102490005040A68513058A9FEFE0BFCC3104D1BF21
:1024A000EFD29FEE376500001305452AEFE07FCBA2
:1024B00003A4018AB7690000376A000083A7418A34
:1024C000636BF4003765000013058549EFE07FC9B1
:1024D00001456FD0BFEE044019469385092C26852F
:1024E000EF30801401E950409385640013058A2C75
:1024F000EFE03FC73104D9B705458280EFD2DFE86E
:1025000079712A84AA95930600022547830704005F
:10251000B38485406385D70A6383E70A0145638BEB
:102520000410014913070002A546B307240183875D
:102530000700638AE7086388D7086314990883A9AA
:10254000018A83AA418A376B000063F0590903AA04
:102550000900194693050B2C5285EF30E00C59E524
:102560004A86A28513056A00EF30000C41E14A9AC1
:1025700083076A00A5EF83A989006388090413060D
:10258000800281452800EFD0DFE413098100CA866C
:10259000A2870145014713080002A54829431306F5
:1025A0002002130EC005838507006384050163962E
:1025B0001505631F9702A9476303F50469A805047D
:1025C000B1B705099DB7E31C09F6A2870387070089
:1025D0001377F7FD79E7376500001305C5282380D9
:1025E0000700A285EFE0FFB77D55A9A0B109B1BFF3
:1025F00023800700050785077DB7631065043765ED
:10260000000013058526EFE0DFB50018B764000071
:1026100083250900138584281109EFE09FB4E3198D
:1026200089FE3765000013058549EFE09FB3294512
:102630002C00829945616FD07FD8637E9700050595
:102640006392C504850705079CC2838507006381E3
:10265000C5026364970069FD8DBF838E1700639682
:10266000C5016394CE008507050785070507F1BFFF
:10267000E37397FE23800700050785079106E3644F
:1026800097F2D1BF9CC283850700638905016387E8
:102690001501E30297FC85070507F5B7E36097FE90
:1026A0005DBF850725B7EFD25FCD8307050099E7AA
:1026B00081450145EFF0DFDE6FD0BFCF03AA018A6D
:1026C000AA8981440149376B0000B76B000083A7DA
:1026D000418A6369FA00EDD04A86A6854E85EFE00F
:1026E000AFE7D9BF03240A00194693050B2C2285B6
:1026F000EF20907321E14E85EF20F07119042A86B6
:10270000A2854E85EF20507215E5631709002285DA
:10271000EF2070702A89A284A6872287038607008B
:1027200001EE858F63D327013E89A28513850B2D8A
:10273000EFE03FA3310A61BF83060700FDD2E31239
:10274000D6FE85070507D9BFEFD2BFC5EFF00FFA58
:1027500001456FD05FC7EFD2DFC4EFE05FB5014541
:102760006FD07FC6EFD2FFC303A5C189EFE0CF943E
:1027700001456FD05FC5EFD2DFC2B7770000938706
:1027800087E223A0F18AB7770000938787F723A217
:10279000F18AB7770000938787F723A4F18AB77788
:1027A0000000938787F793050021054523A6F18A4A
:1027B0001384C189EFE05FCD08C019E937650000D7
:1027C00013054538EFE0FF997D5422856FD0BFBFD8
:1027D000B735000037650000A9472D479306004034
:1027E00001469385658F1305C539EFF08F98AA844C
:1027F0000840B7650000814601469385453AEFE001
:102800002F810144F9D02685EFF04FB27DBFEFD282
:102810005FB9EFF07FCE0DC5B76500009385053534
:10282000138501C7EF20305EB7650000938505363C
:10283000138501C7EF20505B138501C76FD0BFB868
:10284000B765000093858535E1BFEFD29FB52A8437
:10285000376500001305053CEFE0BF90EFF03FFB4C
:10286000AA85376500001306A41B1305853CEFE01D
:102870005F8F01456FD03FB5EFD2BFB241112AC67D
:10288000EFD03FD0B24511E937650000130545365A
:10289000EFE03F8D41016FD01FB383A7C189AA84A8
:1028A0001384C18983A7C720E386A7FE930530144C
:1028B000EFD01FD565F11C4003A5C72009C9EFD093
:1028C000DFDB1C40814503A5C720EFD01FE200409D
:1028D0001306000581451305A41BEFD09FAFB72554
:1028E0000000231504202326942093854576268511
:1028F000EFD0BFDF45B7EFD2DFA783A7C189411172
:102900009384C18903C74702136717002382E70234
:1029100083A7C72091E7EFE07F8119C1EFF0DFF5D2
:10292000EFF0FFEEEFE0FF83376B0000B76B0000C6
:10293000B7690000376A0000B76A0000376C000012
:10294000B76C00009C4085461306F10003A5C72024
:10295000FD55EFD01FD68547631AF5000309F10036
:10296000ED4780406319F90008D0E9BF8840FD5564
:10297000EFD09FECC1BF1C506392A7029307B00534
:102980006315F90089471CD075BF23200402E30BAF
:1029900009FAA5476314F9120149D1A80947E39838
:1029A000E7FE23200402930710046312F9046E303B
:1029B000D1D9FD15C205C1816EB09307A41B1307C1
:1029C0000005B385E502130600053E859385A50243
:1029D000A295EF205036EF2010441375F50F230514
:1029E000A420A305A4202285EFF03FE6A1BF930712
:1029F00020046311F90216347E301387F6FF63D882
:102A0000E70085077EB09307A41B6E304DBF9DDAAB
:102A10007AB0D5BF930740046310F9028347B4200E
:102A200095D31385C93AEFE0CFF398408347B72099
:102A3000FD17A305F72039B793073004E319F9F41C
:102A40008347B4200347A420E3FEE7EE3E948305CA
:102A5000A41B13850A3BEFE0CFF098408347B720D3
:102A60008507C1BF1385C93AEFE0AFEF0509804084
:102A70008347B420E348F9FE13058A49EFE06FEE7F
:102A8000EFF09FA785471304A41B6315F50022856B
:102A9000EFF07FC1EFF0BFD72286AA8513858C3C6B
:102AA000EFE02FEC80401305A41BEF20D036137508
:102AB000F50F2305A420A305A42069B59307F0070B
:102AC0006305F900A1476315F9088347B420E38B38
:102AD00007E60346A420FD1793F7F70F7D1613763C
:102AE000F60F2305C420A305F42063F8C7049385DB
:102AF000B71B1385A71B1D8EA2952295EFE04FA152
:102B00009C4013854B3B03C7A7203E97230D071A14
:102B100083C5B7209385A51BBE95EFE08FE49C404D
:102B200003C4B7209C4083C7A720E3CD87E013856B
:102B3000C93AEFE00FE30504F5B71305CB3BEFE02F
:102B40004FE29C4003C7A720BA97238D071ADDBB2D
:102B500035478347A4206305E9002947631EE90E32
:102B6000B9CB035984029147130DA41B63FB2709BA
:102B7000930DA41613060005EA856E85EF207019E3
:102B80001DC91309A4024A85130909051306000586
:102B9000CA85EF20501AE3982DFF130600058145E2
:102BA0006E85EFD01F830346A420EA856E85EF2053
:102BB000901895471EB41E347EB0EFF0FF93854702
:102BC0006312F5029C4083C74702858B89C71305B2
:102BD0008A49EFE00FD988408345A5201305A51B3E
:102BE000EFF0DF91EFF0BFC2EFE0AFD78040130608
:102BF000000581451305A41BEFD0AFFD231504206C
:102C000091B3630109021305F9FF9307000533052A
:102C1000F50213060005EA851305A5022295EF20AB
:102C2000500F51D9930D00053305B9031306000564
:102C300081451305A5022295EFD0AFF90A3403466A
:102C4000A420EA853305B5031305A5022295EF20DC
:102C5000900E1E348507B9BF1307F0046374F700A4
:102C6000230504200346B4208347A4206370F6089C
:102C70009305A61B1305B61BA2953386C740229564
:102C8000EFE00F898C4083C7B5203387F500230D13
:102C9000271B03C74502058B01CB9387A71BBE9556
:102CA00013054C14EFE0EFCB9C4003C4B7209C40CD
:102CB00083C7A7206346F40298408347A720834632
:102CC000B7208507850693F7F70FA305D7202305BF
:102CD000F7209306F004E3F7F6C6231507209DB10D
:102CE0001385C93AEFE0EFC70504D1B7A297238D4A
:102CF000271B83474402858BE1D3CA8513850A3B92
:102D0000EFE02FC655BF7C4123280504232A050484
:102D10009C4381CBEFD2EFE89305850482976FD077
:102D20008FEA01458280EFD22FE636899DCAAA84B8
:102D30003284B309D600294A1C20639B4701BE2C6C
:102D400093F7070491C7FC40B54526859C478297B9
:102D5000FC408305040026859C4705048297E31DFB
:102D600034FD4A856FD08FE5EFD2AFE393F70510BE
:102D70002A8491C71A2D61551377071035CF13F7A1
:102D8000054011C71A2C61551377074035C713F753
:102D900005049304000401E7262C93F40404384846
:102DA00093F5F50F2EAC39EBA1C768442981420594
:102DB00041813105EFE08FDA70442A89310529829B
:102DC0004206418281452320A900EFD0FFEB232258
:102DD00009003E2C232409002328240593E707102B
:102DE0003EAC7C4013060010C145DC43228582972F
:102DF0003E2C0145DD8C26AC6FD0EFDCF5DB93E596
:102E000005102EACF5B70948AA8763810503EFD2F8
:102E10004FD90D486382050305476399E5041A2DD0
:102E20001377F7FD1AAD01456FD0EFD91A2D13674F
:102E300007021AAD01458280328775D6504274452B
:102E40004C2D2982A9824206C2064182C1826304B6
:102E5000D6001D45F1F91443B4C75443F4C7E1D576
:102E6000F443BA853E859442829675BF7C41DC432B
:102E700082975DBFEFD24FD13684B1CA3E2DAA8969
:102E8000328993F70710B6849DE37D5AA94A83A738
:102E900049044E85DC478297630945012300A90058
:102EA000FD14050963035501FDF0058C0DA02449AF
:102EB000368A854AEFE07FF3FE20DA202A869444A2
:102EC000631AF70081EAEFE01FF3330444412285DF
:102ED0006FD0CFCE98403E97034B070003A7C9049D
:102EE0008507C2072983C1834207FEA0418363E4AB
:102EF000E700239304006394560123A40400328561
:102F0000EFE07FEF7D1A230069010509E3140AFA57
:102F10006DBF582D854763ECE7023E2D93F70710F0
:102F20009DC7EFD20FC82A842849EFE02FD83E2C46
:102F3000232804041306001093F7F7EF3EAC7C40FF
:102F4000C5452285DC43829701456FD0CFC7014537
:102F50008280EFD20FC537370000130767D018D52E
:102F600037370000130787D658D5373700001307C7
:102F700027F118D937370000130747E758D93737F3
:102F80000000130767D218DD37370000130767E02A
:102F9000420658DD34C14182232A05002320050260
:102FA00023220502EFD08FE26FD0EFC193F5F50F2A
:102FB00085476391F50AEFD22FBD20494111AA84BC
:102FC0007D598549FC402685DC4782972A8A63071C
:102FD0002505EFE09FE15A201C40BA972380470166
:102FE0005E20F8448507C2072983C18342075EA09B
:102FF000418363E4E7002312040076205E20639C93
:10300000D7008507C207C1837EA02324340163E46F
:10301000E70023130400EFE01FDE6DB79C5085C36B
:10302000EFE0BFDC5A206E20636EB700B305B740F7
:103030002EC6EFE05FDC9C50B245268582974101A9
:103040006FD0CFB7FC44998DA983C207C183B385E4
:10305000B740F9BF828001CEEFD2AFB47841B287DA
:103060008E2318433222029701456FD0CFB57D558C
:103070008280EFD20FB3138741CF78432E86AA8583
:103080001843138541CF02976FD0EFB3EFD26FB1E2
:10309000138741CF78432E86AA855843138541CFA5
:1030A00002976FD04FB2EFD2CFAF138741CF7843A3
:1030B000AA85138541CF184702976FD0CFB005C6B8
:1030C00011476392E602EFD2CFAD7C410E2241114F
:1030D0009C4736C632C482972246B2462AA236851B
:1030E00041016FD04FAE8146368582801DC2B287C6
:1030F00011466390C602EFD2CFAA7841B2238E2345
:103100005843411136C60297B246410136856FD009
:103110008FAB814636858280EFD2AFA8938741CFAF
:103120004947D8CB373700001307E70BD8DB3737D1
:1031300000001307C70E98DF373700001307670535
:10314000ECC3B0C3AA850D46138541CF23A0070267
:1031500023A2070223A4070223A6070223A807022B
:10316000D8DFEFD0AFC601456FD0EFA537050020FF
:103170001305C5688280374500201305C568828025
:10318000EFD22FA2B707002003A707159307803EB1
:10319000C1563357F702B7E700E02386D7402387AD
:1031A000D740856623A0D710916623A0D710B7F724
:1031B00000E023A0070023A20700014690C7814634
:1031C000D4C781461306F7FF90CBD4CB3D4798C3B5
:1031D000EFD00FB1EFF09FF92A84EFF0DFF9AA8565
:1031E0002285EFE0EF8F3765000013050544EFD02F
:1031F0005FF46FD04F9D73110134EFD03F89B7F763
:1032000000E023A20700EFD0AFA705453920EFD09B
:10321000DF8A7311013473002030238A018A938777
:10322000018B98433A9588C38280EFD20F957571D0
:10323000854513050002EF10F018930700202318AE
:10324000F10437140140C147BECC8C088D471305EB
:103250000440BECAEF10E04093050020130504406F
:10326000EF10004D3765000013058544EFD06FB1B6
:1032700023ACA18A11E93765000013050545EFD09D
:103280005FEE49616FD0EF9293053010EFD04FB7EA
:1032900037650000130545469384818BEFD07FECA2
:1032A000014437690000B7690000376A0000B76A57
:1032B0000000376B0000B76B0000376C000013068E
:1032C000000281450818EFD03F9C8840FD46101849
:1032D0008145EFD00FBE6356A0029305C947081879
:1032E000EF20003741C53715014093050020130535
:1032F0000540EF10A0430545412A13050B48EFD0C8
:103300005FE605049307100363FE870468083D2AFF
:1033100029E98348E10283574102025546C63EC46B
:10332000EF20000C2AC27245EF20800BB2482258D1
:10333000A2471247AA861386CB4A93050004880841
:10334000EFD03FDD80408808EFD07FA6AA86814578
:1033500090082285EFD0AFB78C0813050C4CEFD046
:103360005FE001445145EFE0CFF691BF9385C94836
:103370000818EF20E02D11CD3715014093050020EE
:1033800013050540EF10C03A0145FD2813850A4991
:10339000BDB70C181305CA49EFD0BFDC9DB7EFC20B
:1033A000BFFE37650000411181451305854CEFD004
:1033B000AFD423AEA18A11E9376500001305054D8E
:1033C000EFD03FDA41016FC07FFF37650000130582
:1033D000054FEFD01FD92922FD24192137650000A0
:1033E00013050550EFD0FFD78567B744002013843D
:1033F000C18B9384C468138A47CE9389F7FF6C000E
:103400002800C52E01ED0840FD55EFD06FD1A24731
:1034100008409CC0B247DCC0EFD00FDDA9452D4568
:1034200061262A890840FD55EFD08FCF23942401CF
:103430003309490308403349390323A62401EFD057
:10344000AFDA1305803EEFE0CFE855BF1DC9EFC2EC
:103450005FF51384C18BAA840840795705C1FD55D7
:10346000EFD00FCCB745002051469385C56826851F
:10347000EF20600C0840EFD02FD701473A856FC08E
:103480009FF47D573A858280EFC2BFF11384C18BD0
:10349000AA84084011CDFD55EFD08FC80840B7472A
:1034A0000020238F9768EFD02FD401456FC0BFF164
:1034B0007D55EDBFEFC2FFEE6164B75400402A892D
:1034C0001304146A93840440CA852685EF10805241
:1034D00001C501456FC03FEF7D147DF40545DDBF9B
:1034E000EFC23FEC011185452545EF10A06D8545E4
:1034F00037052000EF10E06E81450945EF102024CC
:103500009307000C7C8237150140F1474C003EC602
:10351000130505C08D47375400403EC4EF106014BA
:1035200013050440EF10C031E1679387076A3EC876
:10353000B707FFBF3ECAB70700043ECC0C0891672F
:1035400013050440FC86EF10C03285451305044086
:10355000EF10004205616FC01FE7EFC2FFE2B759ED
:1035600000402A892E84328A93840940B7050200DC
:103570002685EF1080497DF9854513850940EF10B8
:10358000A040370503000505EFF0DFF2854429E987
:1035900093151900014693F5E50F13850940EF10C7
:1035A00040443709070013052908EFF0BFF0AA844B
:1035B00015E1B7590040229A938A09401309490836
:1035C0006313440337550040854513050540EF104C
:1035D000403D39A0854513850940EF10803C894462
:1035E00026856FC0BFDD0C2056850504EF10A03E78
:1035F0004A85EFF03FEC69D5854513850940EF100A
:10360000403A8D44F1BFEFC23FD8B7540040AA8979
:10361000AE8A328A13840440B70502002285EF1077
:10362000C03E7DF9854513850440EF10E03537092C
:10363000030013051900EFF0FFE7054431ED939502
:103640001900054693F5E50F13850440EF10603926
:1036500013052900EFF01FE62A840DE9B759004051
:103660008144130BFAFF93890940130909046398F5
:103670004403B7540040138504408545EF10603281
:10368000854513850440EF10603339A085451385C7
:103690000440EF100031094422856FC03FD2631609
:1036A0009B0081454E85EF1060314A85EFF09FE029
:1036B00009E94E85EF106032B3879A0088A385042C
:1036C0007DB70D44D1BFEFC2DFCD79711306000283
:1036D0008145080802C202C402C6EFC09FCF8545DB
:1036E00013050021EF10004E3165EF10203589479A
:1036F0004C00371501407C8202C6EF0090763724DB
:103700000140B7070E003ECE0C0885471305044064
:103710002302F10202C802CA02CC02D0EF00905488
:10372000854513050440EF00505913050440EF0090
:10373000D059930404402685EF00D0596DFD130540
:10374000044037240140EF007059130404402285DF
:10375000EF0070596DFD45616FC0FFC6EFC27FC4B9
:1037600037240140AA859D46130504400546EF0015
:1037700090591305044085456164B7240140EF006A
:1037800010571304046A1389044089454A85EF00E1
:10379000906319C513850440EF0070626FC0BFC20B
:1037A0007D1465F40145DDBFEFC2BFBF41112A8919
:1037B000014481446319B40033D5840241014205B8
:1037C00041816FC05FC04A852EC6EFF03FF9AA94D1
:1037D0001545EFE00FB005041374F40FB245D9BFDF
:1037E000EFC23FBC13054006EFE0AFAE01456FC02E
:1037F0009FBDEFC27FB941118D672A89AE8993873A
:10380000C73A0D464C00130580037C822303010058
:10381000EFF0BFD401CD3765000013050552EFD09E
:103820005F940544228541016FC05FB913054006CE
:10383000EFE02FAA19462C0013058003EFF0BFDC40
:103840002A8409C93765000013054553EFD07F91DD
:103850000944C9BF8307810063DA070037650000A8
:1038600013058554EFD0FF8F0D446DBF88853886D2
:10387000B7070F0093140501FD8C93178700218370
:10388000D98FC207C183DD8C18859C8411811207F2
:10389000B207D98F5D8DEF10D03AB767000083A5CE
:1038A0000751376A0000EF10C05183254A51EF10CD
:1038B000405123A0A9002685EF10B038B76700005B
:1038C00083A58751EF10E04F83254A51EF10604FD9
:1038D000B767000083A5C751EF10E0772320A90048
:1038E00091B781478546130700023396F6006306B9
:1038F000A6008507E39BE7FEFD573E858280EFC269
:103900005FAA854513050002EF10C02B6FC0BFAB47
:10391000EFC23FA985452145EF10C02A6FC0BFAA5D
:10392000EFC23FA885451145EF10C0296FC0BFA960
:10393000EFC23FA785454145EF10C0286FC0BFA823
:10394000EFC23FA6854513050004EF10A0276FC006
:103950009FA7EFC21FA599653775000001469385A3
:1039600045551305C5C3EFF02FFB6FC0DFA59307C7
:10397000400663ECA7009317450019651305C55E63
:103980003E951841FD576313F70001458280EFC251
:103990005FA1411113F5F50F32C6EFF05FFD11C5C0
:1039A0004E2532460845EF00F05841016FC0BFA1D7
:1039B000EFC23F9F13F5F50FEFF07FFBAA8701459C
:1039C00089C7CE278847EF00D0556FC0DF9FEFC271
:1039D0005F9D011113F5F50F3284EFF05FF905C516
:1039E0005C412AC6829732455C45FC82C1473ECE87
:1039F0008D473ECC09C41547631AE40002CE084542
:103A00004C08EF00104605616FC0FF9B054763152A
:103A1000E40091473ECEE5B76315F40093078002BA
:103A2000D5BF89476315F40093078004E5B7914734
:103A30006314F400D147F9BF99476314F400F147C8
:103A4000D1BF9D47E31DF4FAE147E9B7EFC2DF9329
:103A500013F5F50FAE84B289368A3A89EFF03FF15B
:103A6000994731CD4845EFF0DFE73D472A84994734
:103A70006367A704EFE06FB7B146B306D402B70798
:103A80000020138707082A8693870708369783162E
:103A90000700639F96004C43639C45012E23639966
:103AA0003501184763162701EFE0EFB4814701A8FD
:103AB0007D576389E6003285EFE0EFB39D473E8591
:103AC0006FC0DF8F31453305A4023E9506A1232246
:103AD000450123113501232425013285F1B7EFC2B9
:103AE0005F8C13F5F50FEFF09FE819471DC94845A6
:103AF000EFF03FDFBD472A84194763E4A702EFE0F8
:103B0000CFAEB1473304F402B7070020938707080C
:103B10007D57A297839607006398E600EFE0AFAD6C
:103B200001473A856FC03F8A41677D1798C323A23A
:103B3000070023A40700DDB7EFC21F85011113F5AD
:103B4000F50F328AEFF0BFE2994721C185442A84FC
:103B500063159A104845EFF0DFD83D47AA8499478E
:103B60006365A702EFE06FA8B14AB3875403370932
:103B7000002013090908AA893E9903170900FD5777
:103B80006319F700EFE02FA799473E8505616FC0E5
:103B9000FF825C40829785450545EF10A0025C449A
:103BA0000D473AC47C823EC88357290002CA52CED0
:103BB000638C4709C1C70947638DE70808444C0077
:103BC000EF00302A1844B7170140938607C0054517
:103BD0006302D7020945630FF700938707400D453D
:103BE000630AF700B72701409387078001456313F5
:103BF000F700114593F5F40FEF00D0410808EF00EE
:103C0000301D99679387C7568E04BE94D04037E71E
:103C100000E093060005B307C7002380D740935701
:103C200056009387070485468A07B396C600BA975D
:103C300094C34E85EFE02F9C814781BF930780029C
:103C40003EC6A1473ECC9DBF930780043EC656CCDE
:103C5000B5B791473EC6C147F5B79947E3170AF292
:103C60004845EFF01FC83D479947E360A7F2931717
:103C7000350019651305C5563E95584193575700B1
:103C800093870706B394E4008A0737E700E0BA9702
:103C900084C30F1000004DB7EFC2AFF0EFF07FC448
:103CA000B1473305F502B7070020938707083E9513
:103CB0005C4199C3084582976FC0EFF073110134DE
:103CC000EFC0DFDC0545EF00501719C50545EFF0E3
:103CD000BFFC0545EF005018EFC03FDE7311013403
:103CE0007300203073110134EFC05FDA0945EF0033
:103CF000D01419C50945EFF03FFA0945EF00D0157A
:103D0000EFC0BFDB73110134730020307311013435
:103D1000EFC0DFD71145EF00501219C51145EFF084
:103D2000BFF71145EF005013EFC03FD973110134B5
:103D30007300203073110134EFC05FD52145EF00CF
:103D4000D00F19C52145EFF03FF52145EF00D01008
:103D5000EFC0BFD6731101347300203073110134EA
:103D6000EFC0DFD24145EF00500D19C54145EFF0DE
:103D7000BFF24145EF00500EEFC03FD47311013444
:103D80007300203073110134EFC05FD013050002BF
:103D9000EF00B00A1DCD13050002EFF0FFEF130591
:103DA0000004EFF07FEF13050008EFF0FFEE1305BE
:103DB0000010EFF07FEE13050020EFF0FFED13058C
:103DC000003EEF007009EFC05FCF73110134730044
:103DD000203013050004EF00500655FD13050008C0
:103DE000EF00B0054DF913050010EF00100545F583
:103DF00013050020EF00700459FDF1B77311013471
:103E0000EFC0DFC813050040EF00300329C11305E0
:103E10000040EFF07FE8056513050580EFF0DFE770
:103E20000565EFF07FE70965EFF01FE71165EFF03B
:103E3000BFE62165EFF05FE64165130505C0EF00C1
:103E4000B001EFC09FC773110134730020300565C6
:103E500013050580EF00607E5DF90565EF00E07DEC
:103E60005DF50965EF00607D5DF11165EF00E07CB7
:103E700059FD2165EF00607C59F9E1B70145828069
:103E8000EFC22FD22041AA84930550520848EF0078
:103E9000706711C985452685EFF04F910848930555
:103EA0005052EF00F0696FC00FD2EFC28FCC374B8A
:103EB0000020374C002013060C6A93070B7513077C
:103EC0005003D8CB7846B70400C0416A210A658FF9
:103ED00071643367470113040420B70D0C003749A0
:103EE00001409D6A1165011178C620C61309098039
:103EF000938A0AC423A4B70123A2070085451105AC
:103F000023225605B719014023A8270180C3239611
:103F10000700EF00304B930700200D4DE14C2C00C3
:103F2000138509807C846AC666C8EF008073930796
:103F30000040914B2C00138509807C845EC8EF0003
:103F4000407293050B754A85EF00704D4A85854593
:103F5000EF00F055B76500001306301093060B759F
:103F60009385054413050C6AEFE0BFFE374B002034
:103F700093078B76374C002013076003D8CB1307C9
:103F80008C6F74473749004020C7F58CB3E4440177
:103F900064C723A4B7011309094023A2070085457C
:103FA000370502002322570523A8270180C3239643
:103FB0000700EF00104385451145EF00B0404C0865
:103FC00013850980231A71016ACC66CE592DA14749
:103FD0004C0813850980FC825ECE612593058B76A3
:103FE0004A85EF00D0434A858545EF00504CB765C0
:103FF000000093068B7613063010938585441305D5
:104000008C6FEFE01FF5014505616FC04FBAEFC23D
:104010004FB99C412041A14641111CC0B1473EA46B
:10402000DC412316040013F7F7006301D702A5460D
:10403000631ED70005675AA013D747000D8B01C731
:1040400085466308D7002313040031A0231204001F
:10405000E5B709677AA099838D8B05476389E700E7
:1040600081C709476387E7062314040021A093074B
:1040700000601EA41848B747014093870780631D5E
:10408000F704116585451105EF00D0339307002033
:10409000B71401407C820D49E1474C001385048030
:1040A0003EC64AC47D2B930700407C824AC4914798
:1040B0004C00138504803EC66D230848A285EF009E
:1040C000103608488545EF00903E014541016FC01C
:1040D0008FAF9307004071BFB747004093870740F9
:1040E000E315F7FE854537050200EF00902F854563
:1040F0001145EF00302D91477C82B7140140E14714
:104100003EC64C008D47138504803EC4992BA147C1
:104110007C8271BFEFC2EFA82041930500020848DE
:10412000EF00B03D19C51C48CA231375F50F6FC0C9
:104130008FA97D55EDBFEFC2CFA624412E848848BC
:1041400093050004EF00703B7DD99C4842044180F8
:10415000C2A305456FC02FA7EFC2AFA4C147384126
:10416000638DF502C5476397F502544B054693D717
:104170005600938707063316D6008A07B7E600E095
:10418000B69790C30F1000000146084B930550529C
:10419000EF00503301456FC00FA3544B054693D732
:1041A0005600938707043316D6008A07B7E600E067
:1041B000B69790C30546D1BF73110134EFC01F8D70
:1041C000374500201305056AEFF09FCBEFC0FF8E47
:1041D000731101347300203073110134EFC01F8B51
:1041E000374500201305856FEFF09FC9EFC0FF8CA6
:1041F000731101347300203073110134EFC01F8933
:1042000037750000130505C6EFC0BFF5EFC0FF8A84
:10421000731101347300203073110134EFC01F8714
:1042200037750000130545C5EFC0BFF3EFC0FF8829
:104230007311013473002030EFC2AF963765000070
:1042400013058549EFC0FFF137740000130504C75B
:10425000EFC03FF137750000130585C8EFC07FF050
:10426000130504C7EFC0FFEF8566B735000037655B
:104270000000A94729479386068001469385E539C2
:104280001305854CEFD0EFEE0DC9EFD03F8A856660
:10429000B735000037750000A9473147938606807F
:1042A00001469385A522130505CCEFD08FEC09CDEF
:1042B000EFD0DF8701456FC00F9137750000130500
:1042C00005CAEFC01FEAE1B737750000130585CCBA
:1042D000EFC03FE9C5B7B71702409843B706FFF0F4
:1042E00041111367170098C3D84337060200758F32
:1042F000D8C39843B706F7FEFD16758F98C3984349
:10430000B706FCFFFD16758F98C3D843B70601FFAB
:10431000FD16758FD8C39843B70600ECFD16758F50
:1043200098C33707FF0098C723A6070202C402C636
:104330009843C166558F98C3B716024005679C42E3
:10434000F18F3EC6A24785073EC4B24781E7A24728
:10435000E397E7FEB71702409C431397E7006357C4
:10436000070685473EC632478547631FF704B717E0
:104370000240D843B706C1FFFD16D8C3D843D8C3FF
:10438000D84313670740D8C3D843758FD8C3D843E1
:10439000B7062900558FD8C39843B7060001558F3B
:1043A00098C3984393166700E3DD06FED843B7161B
:1043B0000240719BD8C3D84313672700D8C3214755
:1043C000DC42B18BE39EE7FE4101828002C661BF01
:1043D00001A07390123497C1FF1F9381A157174119
:1043E0000120130121C2173500001305E5BA97C556
:1043F000FF1F938525C11386818063FAC500832240
:10440000050023A0550011059105E3EAC5FE1385BB
:104410008180970500209385E5366377B5002320DA
:1044200005001105E36DB5FEFD42739002BCFD422F
:1044300073904280B78200009382028073900230B2
:1044400097C2FFFF938242BC93E2320073905230D6
:10445000EFF07FE897C2FFFF93824212739012340D
:10446000730020305C413707F1E01307F7EF944DFC
:104470007D8F9C41D58FD44DD58FD441A206D58F49
:10448000D98F5CC11C4537F7F1FF1307D77FD4459F
:104490007D8F9C49D58F94458606D58FD98F1CC5B5
:1044A0005C55370710FF7D177D8FDC29FD1793F7CB
:1044B000F70FD207D98F5CD582801C4589C593E759
:1044C00017001CC58280F99BEDBF1C4593E7870050
:1044D0001CC5828008450D81058982801C4593E7B3
:1044E00047001CC5828008450981058982801C45DA
:1044F00091C537075000D98F1CC582803707B0FFA0
:104500007D17F98FD5BFA54763F7B7048D4713878C
:1045100065FF3307F7020328C5009D47B397E700FF
:1045200093C7F7FFB3F70701B396E600DD8E54C5D6
:10453000994763E3C70495477D163306F602585939
:10454000FD47B397C70093C7F7FFF98F3396C500B0
:104550005D8E50D982800D473387E502032805011F
:104560009D47B397E70093C7F7FFB3F70701B396EB
:10457000E600DD8E14C96DBFB14763E2C7029547FF
:1045800065163306F6021859FD47B397C70093C75F
:10459000F7FFF98F3396C5005D8E10D9828095475D
:1045A0004D163306F6025855FD47B397C70093C71B
:1045B000F7FFF98FB395C500DD8D4CD58280684536
:1045C00042054181828008416D8D3335A000828093
:1045D0005841032805004C45370601409307064023
:1045E0003E979346F8FFB1C583250640F58D2320FD
:1045F000B640D043F18ED4C31443B3E6060114C3CE
:10460000184190479346F7FF758E90C7D047F18EBB
:10461000D4C7144541466399C6009447D98E94C7C0
:10462000D447558FD8C78280B6979443558F98C387
:1046300082801C43F58F1CC38280B707014013871B
:10464000074083A70740584B698F09C77D8D3335D5
:10465000A000828001458280B707014023AAA740BD
:1046600082809C4513F7070113F8F70001C7D84172
:104670003368E8008E2113F7F50F39C318418146DE
:10468000854E3D4F930F800293028004214E339656
:10469000DE00B3F8C50063111603939826003313A8
:1046A0001F011343F3FF3377E300B318180133E717
:1046B000E800639FF70550C98506E39AC6FD18C157
:1046C0001307F00F6375B70454412146854E3D4FE3
:1046D000930F800293028004414EB398CE0033F7CB
:1046E00015016392E8021317260001173313EF0038
:1046F0001343F3FFB376D3003317E800D98E639DDD
:10470000F701232A15010506E319C6FD54C182806D
:10471000E39457FA10C94DB7E39757FE23281501C4
:10472000DDB708456D8D3335A00082800CC98280CD
:104730004CC9828019C20CC982804CC98280B707DB
:104740000140635A0504DC4F935605011318050117
:104750003707300013F6F60013580801B376E5006A
:1047600063500506639BE602930606010D46B316E9
:10477000D60093C6F6FFF58F99C9135755011377E5
:10478000F73F12073317E800D98F6357050437073F
:1047900001405CCF8280DC4345BF1317B5006356F0
:1047A00007008D46B396C600E9B713575501137736
:1047B000F73F12073317E8001347F7FFF98F6DBF74
:1047C0006390E602370601405442370700F17D1737
:1047D000F98F758F58C2D5F1370701405CC38280CD
:1047E0001317B500635C07008D46B396C60093C6E9
:1047F000F6FFFD8EB707000FD58FF1BF1357550198
:1048000012073317E8001347F7FF7D8FB707000F34
:10481000D98FD1B713F7C50F93F73500B70501400E
:10482000BA9594458A073D473317F7001347F7FFBA
:10483000758F98C598453315F500598D88C58280C8
:10484000EFB23FB6B7570040938707408545631BDB
:10485000F500370520006D268145370520004D26DF
:104860006FB07FB637054000612E814537054000A7
:10487000FDB7EFB21FB3797146212A8468082EC6AE
:10488000F922925737470F001307072433D7E7025F
:10489000C204C18093F404FCC2049306C003C18027
:1048A000B24563F4E6001307C00313160701418203
:1048B000D18C46A0162061651305056AC206C18227
:1048C000F99AC206C18216A094416369D50486068E
:1048D000B3D7D7029146139707014183BA87637311
:1048E000D700914705064206C2074182C18312B034
:1048F0005EAC1E20DA21B62593E717001EA01E200D
:10490000558FC207C18393F757BFD98F1EA09A2531
:10491000DE25D98F1EA445616FB0FFAAEA2131665A
:104920007D16631DC5020D46B386C602B3D7D702F6
:10493000C207C1839396470199E293E71700A166E6
:10494000D58F9306C0123307D7029306803E3347B4
:10495000D7020507420741831AB059BF6546B3869F
:10496000C602B3D7D7029166C207C183D58FD9B724
:104970001E2189C593E717001EA18280C207C1834B
:10498000F99BC207C183CDBF1E2189C593E70710DC
:104990001EA18280C207C18393F7F7EFC207C183CC
:1049A000C5BF1E2189C593E707201EA18280C207CB
:1049B000C18393F7F7DFC207C183C5BF1E2189C535
:1049C00093E707401EA18280C207C18393F7F7BF18
:1049D000C207C183C5BF0EA982800A291375F50FCE
:1049E000828093F7E50F19C293E71500C207C183D0
:1049F0001EA982805E290A2D42055D8D6D8D2205DE
:104A000021810D8D133515008280411102C402C62B
:104A100093D7C5012AC63EC4A247A205A18199CB5E
:104A2000B247D1073EC6B247884341016D8D333549
:104A3000A0008280B247C181E107EDB7B7160240FE
:104A4000DC4251777D17F98F5D8DC8C282803717A0
:104A500002405C439146B18B6385D700A1466382D7
:104A6000D706B7177A00938707201CC13716024074
:104A70005C4237070020130707149183BD8BBA9758
:104A800094231C41B3D7D7005CC15442A1829D8AB4
:104A9000BA969422B3D6D70014C55442AD829D8AEB
:104AA00036971823B3D7E7005CC55842398393760D
:104AB00037001387418036971823B3D7E7021CC904
:104AC00082805C435843C166C983758FB7F6FF1F68
:104AD00083A6C670BD8B890713961601634806002E
:104AE000C54601466392D702C94739A88946638FF4
:104AF000D702BD46638ED702C146638ED702C54634
:104B000001466393D700C1471DEF37470240032793
:104B10000780418B05C737177A0013070720B307B3
:104B2000F7021CC121D61C41858381B701466DBFA8
:104B30000546B547D1BF0146BD47F9B737173D0018
:104B400013070790E9BFB7150240D8559316F70031
:104B5000D85563DF060411833D8B93061700371782
:104B60007A00130707203357D70218C1D455A18202
:104B7000BD8A8DE295463307D702058318C13717E2
:104B80000240585714413D8B050733D7E60218C140
:104B9000184171B785456394B600E546E9BFBD4548
:104BA0006396B600D1463387E602C9BF8906E5BFE2
:104BB0003D8B9306170037177A00130707203357EA
:104BC000D702F1B799C5371702401C4F5D8D08CF4A
:104BD0008280B7170240984F1345F5FF798D88CF33
:104BE000828099C5371702405C4F5D8D48CF828027
:104BF000B7170240D84F1345F5FF798DC8CF828093
:104C000099C5371702401C4B5D8D08CB8280B717C2
:104C10000240984B1345F5FF798D88CB8280EFB227
:104C20004FF81629F577FD17F58FF621DA257971FA
:104C3000D58F1EA95625FD779387379FF58FD621EF
:104C40002A842EC6D58F9625D58FB625D58F5EA5FD
:104C50005E29C207C18393F7F7CFD98F5EA9680891
:104C6000EFF0FFDEB747014093870780B245631E30
:104C7000F402A2576547B387E702984193064006BE
:104C80000A07B3D7E70233D7D702B3F7D702120721
:104C9000920793872703B3D7D702BD8BD98FC2075B
:104CA000C1831EA445616FB00FF29257E1B791C561
:104CB0005E250967D98F5EA582805A25F977FD1791
:104CC000F98FD5BF13F7F50F85471583B395B70057
:104CD0006319F7009307C500984301CED98D8CC3A3
:104CE0008280894693074501E318D7FE93070501A3
:104CF000E5B793C5F5FFF98DDDB70A216D8D333525
:104D0000A000828013F7F50F85461583B397B60090
:104D10006311D7025A25F98F1A21014542074183B1
:104D200081CB0545A181B315B5006D8F3335E0000A
:104D3000828089466314D7001A29F1BF5A29E1BF3E
:104D4000A1818547B397B70093C7F7FFC207C18317
:104D50001EA18280C167637CF5029307F00F1307E1
:104D6000000263EBA70097270000938727F8AA9714
:104D700088233305A74082802181972700009387ED
:104D8000E7F6AA97882361473305A7408280B707D3
:104D90000001636DF500618197270000938707F597
:104DA000AA97882321473305A7408280418197270E
:104DB00000009387A7F3AA97882341473305A740AC
:104DC0008280797122D4135475014ECE52CC93193E
:104DD000950006D626D24AD056CA5AC81374F40F84
:104DE00093D99900135AF50169C49307F00F63082A
:104DF000F40E9397390037070004B3E9E700130472
:104E000014F88144014B13D77501939A95001377D9
:104E1000F70F93DA9A0013D9F50145CF9307F00FF6
:104E2000630CF7028E0A130717F8B7070004B3EAFA
:104E3000FA003A94014633452A01BD47AA869305F4
:104E4000140063E2971017270000130727FA8A045B
:104E5000BA949C40BA9782871304F40F63980A0CA3
:104E600093E424000946C1BF01451307F00FB707BB
:104E70004000B2502254A6075E07A5837E05D98F55
:104E800092540259F249624AD24A424B5D8D4561C1
:104E90008280CA86D689328B89476301FB0A8D4797
:104EA000E304FBFC854736856312FB1A0147814703
:104EB000C9B7639E090413D77501939A95001377B8
:104EC000F70F91440144054B93DA9A0013D9F50189
:104ED00031F7639D0A0093E414000546A9BF63936C
:104EE0000902A1441304F00F094B31BF5685EFF0BE
:104EF0007FE69307B5FF098CB39AFA001304A4F870
:104F0000014615BFB1441304F00F0D4BEDBD4E85A6
:104F10002EC6EFF03FE49307B5FF1304A0F8B39952
:104F2000F900098C8144014BB245F1BD93E4340092
:104F30000D4611B78947D286E313FBF63685130772
:104F4000F00F81473DB741639306F3FF13D6090184
:104F500093D80A01B3F7D900B3FADA0033885703BC
:104F6000B389F80213570801B30A5603D6994E972E
:104F700033061603637357011A96C167FD17B3769C
:104F8000F7003378F800C206C296939966009357EB
:104F90000701B3393001E982B2979A07B3E6D90025
:104FA000B3E9D7009397490063D9070013D71900D5
:104FB00093F71900B369F7002E841307F4076350C1
:104FC000E00493F7790099C793F7F900914663835A
:104FD000D70091099397490063D90700B70700F8F4
:104FE000FD17B3F9F900130704089307E00F63CB2B
:104FF000E70493976900A5831377F70F9DBD854755
:10500000B386E74011C76D4601478147E343D6E6C3
:105010001307E4093397E9003337E000B3D7D90029
:10502000D98F13F7770019C713F7F7009146630379
:10503000D700910713975700634C07009A07A58381
:10504000014705BD1307F00F814725B52E84B5B77D
:105050000547814739BD3707800041117D179356B9
:10506000750113D87501B377A70093F6F60F935E19
:10507000F5013376B70026C24AC01378F80F06C68A
:1050800022C41303F00F3E8E3689F684139F370037
:10509000FD8113153600B38806416303681093C57C
:1050A0001500638DBE106355100D63110810630564
:1050B000051EFD18B307AF40638608029307F00F83
:1050C0006389F616ED4763C81729130700023307F3
:1050D00017413317E500B35715013337E000D98F77
:1050E000B307FF40139757006352071A37040004B1
:1050F0007D147D8C2285EFF0FFC56D15B317A400DC
:10510000634E251B330525411304150013070002C8
:10511000018F3397E7003337E000B3D78700D98F8B
:10512000014913F7770019C713F7F7009146630396
:10513000D700910713975700635E07149306190071
:105140001307F00F93FE14006386E6169A07A583F3
:1051500093F6F60FA607B240224413D59700DE0659
:105160009397FE01558D924402495D8D41018280E5
:105170006392080A138716001377E70F631B07145F
:105180006394062263020F2071D5B307AF401397D3
:10519000570063550722B307E5410149AE8451B773
:1051A000E30F05EE638ABE0AE35410FD9307F00F88
:1051B0006381F608B70700045D8D29B7635E1009A7
:1051C000630108089307F00F6385F606B70700042C
:1051D0005D8DED4763C0171F1307000233071741AA
:1051E0003317E500B35715013337E000D98FFA972D
:1051F00013975700635C070805091307F00F630B4B
:10520000E90AB706007E13D71700FD16858B758F48
:10521000D98F01BF3307D84063950610630D0F1473
:105220007D176303071A9307F00F6314F810AE8419
:10523000328E630F0E06814E9306F00FB7074000C3
:1052400011BF39C9FD18B307AF00E38308FA93070C
:10525000F00FE390F6F8F1BF639908081389160080
:105260001377E90F63160712639B061063030F168B
:10527000E30205EEB307AF001397570001496357E8
:105280000700370700FC7D17F98F054913F77700F2
:10529000E31C07E813DE37009307F00FE30BF9F880
:1052A00093179E00A5839376F90F93FE14005DB5C6
:1052B00093FE14009306F00F814769BD370700FC89
:1052C0007D17F98F13F777003309A940E31E07E430
:1052D000D1B73304AF409317540063C3070CE31BEB
:1052E00004E0814E81468147B5B53307D840B5C645
:1052F0009307F00FE30EF8F2B7070004336FFF00D7
:10530000ED4763CDE70C93070002998FB317FF00B9
:105310003357EF00B337F0005D8FB307A700428922
:10532000C1BD9307F00FE304F8F0B7070004336F33
:10533000FF00ED4763C2E70893070002998FB31798
:10534000FF003357EF00B337F000D98FB307F540B4
:105350004289AE8441BB854761B3630E0F067D175A
:10536000B307AF004289E30507E89307F00FE3199D
:10537000F8F8328E7DBD328E4289AE8431BFE309AA
:105380000FEAE30805EA45BD0DCDAE8EB287D9B36D
:105390009307F00FE300F9F2B307AF008583FDB583
:1053A0003304E541AE84B9B3E31D0FFCE30505E822
:1053B000AE84BDBD854725BD854749BF0149E397FB
:1053C00007EC814E814779B3B307E5414289AE844A
:1053D00011BBB28741B3328E42897DBD054735BFCF
:1053E00037068000135775019307F6FF1377F70F01
:1053F0009305E007B3F6A7009357F50163FCE500BA
:105400009305D00963FAE500370500801345F5FFE1
:105410003E9582800145828093055009D18E63CDEF
:10542000E500130660093307E64033D7E60033058D
:10543000E040F5F33A8582801307A7F63397E6003C
:10544000FDB7411106C622C41DCD2A84EFF09F90FE
:105450009307E0093387A7409307600963C0E70417
:10546000A1469377F70F63D5A60061153314A40006
:1054700026042580260413559400B2402244DE07FA
:105480005D8D410182800144260413559400B24091
:1054900022448147DE075D8D410182809307900998
:1054A00063DDE7009307B5019546B317F400898ED5
:1054B000B337F0003354D4005D8C954763D6A70012
:1054C0009307B5FF3314F400B70600FCFD1693777D
:1054D00074003376D40085C39377F4009145638CD0
:1054E000B70011069317560063D707009307F0091A
:1054F000758E3387A7401314660025802604135544
:105500009400B24022449377F70FDE075D8D41018E
:10551000828001476314E60001458280B307E500FD
:105520000507B386E5009C2383C6F6FFE384D7FE18
:105530003385D7408280B3C7A5008D8B3307C50064
:1055400081E78D4763EDC700AA87637EE508942154
:1055500085078505A38FD7FEE3EBE7FE8280937670
:105560003500AA8789CA942185078505A38FD7FEB0
:1055700093F63700C5BF9376C7FF138606FE63F028
:10558000C70683A3050083A2450083AF850003AF50
:10559000C50083AE050103AE450103A3850183A8C1
:1055A000C5019385450223A0770003A8C5FF23A268
:1055B000570023A4F70123A6E70123A8D70123AAB4
:1055C000C70123AC670023AE17019387470223AEC0
:1055D00007FF75B790419107910523AEC7FEE3EB36
:1055E000D7FEE3E6E7F68280AA8798239386170022
:1055F00009EB850503C7F5FF8507A38FE7FE75FB5C
:105600008280B687DDB7AA87982185078505A38F95
:10561000E7FE7DFB8280AA87850703C7F7FF6DFF42
:105620003385A7407D15828015C27D160147B307DB
:10563000E500B386E5009C2394226396D7006304BB
:10564000C7000507EDF73385D7408280014582808A
:1056500018219C2101E791C301458280814739A02F
:105660001C3113071500EDDB81473A853387F500C0
:10567000182365D7B306F5009422E393E6FE850769
:105680002A87E5B74C61000060610000706100008E
:1056900084610000906100009C610000A061000036
:1056A000B0610000C0610000C8610000DC61000062
:1056B000EC610000F4610000006200000C62000078
:1056C000206200002862000038620000486200008A
:1056D000606200006D61696E00000000546F206917
:1056E0006E697469616C697A652064657669636561
:1056F0003A2573206661696C65642E2054686520C4
:105700006572726F7220636F64652069732025640F
:105710000A0000007469646C65000000000001006C
:10572000020001000300010002000100040001006A
:105730000200010003000100020001000500010059
:10574000020001000300010002000100040001004A
:105750000200010003000100020001000600010038
:10576000020001000300010002000100040001002A
:105770000200010003000100020001000500010019
:10578000020001000300010002000100040001000A
:1057900002000100030001000200010007000100F7
:1057A00002000100030001000200010004000100EA
:1057B00002000100030001000200010005000100D9
:1057C00002000100030001000200010004000100CA
:1057D00002000100030001000200010006000100B8
:1057E00002000100030001000200010004000100AA
:1057F0000200010003000100020001000500010099
:105800000200010003000100020001000400010089
:1058100002000100030001000200010030313233B8
:10582000343536373839414243444546000000009C
:105830000A205C207C202F0A000000002D205254FA
:10584000202D2020202020546872656164204F7034
:1058500065726174696E672053797374656D0A00AF
:105860004A756C202039203230323600202F207CBF
:10587000205C202020202025642E25642E256420F5
:105880006275696C642025730A0000002032303094
:1058900036202D203230313920436F70797269679C
:1058A00068742062792072742D7468726561642056
:1058B0007465616D0A000000284E554C4C290000AB
:1058C0003031323334353637383961626364656676
:1058D00000000000746F74616C206D656D6F7279EB
:1058E0003A2025640A00000075736564206D656DBB
:1058F0006F7279203A2025640A0000006D61786992
:105900006D756D20616C6C6F6361746564206D658D
:105910006D6F72793A2025640A0000006C69737417
:10592000206D656D6F727920757361676520696E92
:10593000666F726D6174696F6E0000006C697374DC
:105940005F6D656D00000000746F206672656520F4
:105950006120626164206461746120626C6F636BBA
:105960003A0A00006D656D3A203078253038782C81
:10597000207573656420666C61673A2025642C206D
:105980006D6167696320636F64653A203078253004
:1059900034780A0068656170000000006D656D2054
:1059A000696E69742C206572726F72206265676916
:1059B0006E206164647265737320307825782C20C2
:1059C000616E6420656E6420616464726573732027
:1059D000307825780A0000001B5B324A1B5B4800C8
:1059E0002D2D46756E6374696F6E204C6973743A21
:1059F0000A0000005F5F0000252D313673202D2D39
:105A00002025730A00000000646576696365000064
:105A1000252D2A2E7320202020202020202074795C
:105A200070652020202020202020207265662063C1
:105A30006F756E740A000000202D2D2D2D2D2D2D3B
:105A40002D2D2D2D2D2D2D2D2D2D2D2D2D202D2D93
:105A50002D2D2D2D2D2D2D2D0A000000252D2A2E2A
:105A60002A7320252D32307320252D38640A00003A
:105A70006576656E74000000252D2A2E7320202087
:105A80002020207365742020202073757370656E4C
:105A900064207468726561640A00000020202D2D66
:105AA0002D2D2D2D2D2D2D2D202D2D2D2D2D2D2D33
:105AB0002D2D2D2D2D2D2D0A00000000252D2A2EF7
:105AC0002A73202030782530387820253033643A06
:105AD00000000000252D2A2E2A7320203078253042
